:020000041001E9
:4000000000780408EB0201100D00000051030110510301105103011051030110000000000000000000000000000000004D0301104D030110000000004D0301104D03011019
:400040004D0301104D0301104D0301104D0301104D0301104D0301104D0301104D0301104D0301104D0301104D0301104D0301104D0301104D0301104D0301104D03011070
:400080004D0301104D0301104D0301104D0301104D0301104D0301104D0301104D0301104D0301104D0301104D0301104D0301104D0301104D0301104D0301104D03011030
:4000C0004D0301104D0301104D0301104D0301104D0301104D0301104D0301104D0301104D0301104D0301104D0301104D0301104D0301104D0301104D0301104D030110F0
:400100004D0301104D0301104D0301104D0301104D0301104D0301104D0301104D0301104D0301104D0301104D0301104D0301104D0301104D0301104D0301104D030110AF
:400140004D0301104D0301104D0301104D0301104D0301104D0301104D0301104D0301104D0301104D0301104D0301104D0301104D0301104D0301104D0301104D0301106F
:400180004D0301104D0301104D0301104D0301104D0301104D0301104D0301104D0301104D0301104D0301104D0301104D0301104D0301104D0301104D0301104D0301102F
:4001C0004D0301104D0301104D0301104D0301104D0301104D0301104D0301104D0301104D0301104D0301104D0301104D0301104D0301104D0301104D0301104D030110EF
:400200004D0301104D0301104D0301104D0301104D0301104D0301104D0301104D0301104D0301104D0301104D0301104D0301104D0301104D0301104D0301104D030110AE
:400240004D0301104D0301104D0301104D0301104D0301104D0301104D0301104D0301104D0301104D0301104D0301104D0301104D0301104D0301104D0301104D0301106E
:400280004D0301104D0301104D03011010B5054C237833B9044B13B10448AFF300800123237010BD8C4C0208000000002C4D0310084B10B51BB108490848AFF30080084814
:4002C000036803B910BD074B002BFBD0BDE81040184700BF00000000904C02082C4D03106C430208000000007047FFF7FDFF72B6104C114DAC4209DA21686268A368043B8B
:40030000A2BFC858D050FAE70C34F3E70B490C4A00209142BCBF41F8040BFAE709480A490860BFF34F8F1CF011F91BF061FF1AF031FDFEE7304D0310484D03108C4C02088C
:40034000407C03080040020808ED00E0FEE7FEE700B504207146084202D0EFF3098001E0EFF3088004301DF0C1F9FEE780B582B000AF78607B68002B02D10BF027FD7860C5
:400380007B68002B01D1002301E07B681B6B18460837BD4680BD00BF80B582B000AF78607B68002B02D10BF011FD78607B68002B01D1002301E07B685B6B18460837BD4677
:4003C00080BD00BF80B582B000AF78607B68002B02D10BF0FBFC78607B68002B01D1002301E07B689B6B18460837BD4680BD00BF80B500AF002000F0C3F800BF80BD00BF95
:4004000090B589B000AF78607B68DB684B4A13604A4B1B68DB68002B00F08980474B1B68184600F0F1FD454B1B6893F84C3003F00403DBB2002B7CD1404B1B6807F10C028C
:40044000114618460BF04EFE0346FB773B4B1B68184600F0D9FD3A4B00221A60374B1B68BA7E1A77354B1B681B7F012B08D1334B1B68DC680BF082FE0346C4F8603110E0C1
:400480002E4B1B681B78042B0BD1B7F91830002B07D02A4B1B68DC680BF070FE0346C4F86031264B1B681B78012B08D1234B1B6807F10C021146184600F000F928E01F4BDA
:4004C0001B681B78022B08D11C4B1B6807F10C021146184600F03EF91AE0184B1B681B78042B08D1154B1B6807F10C021146184600F03CF90CE0114B1B681B78032B07D172
:400500000E4B1B6807F10C021146184600F03AF90A4B1B68184600F077FDFB7F002B8BD1064B00221A60064B00221A6002E000BF00E000BF2437BD4690BD00BFA84C0208E4
:40054000AC4C020880B400AF034B1B681846BD465DF8047B704700BFA84C020880B483B000AF78607B68002B01D1002301E07B681B7818460C37BD465DF8047B704700BFE6
:4005800080B584B000AF78607B68002B07D07A6892F84C3043F0020382F84C3012E000200BF088FDF8600AE0FA6892F84C3043F0020382F84C30F8680BF07CFDF860FB6857
:4005C000002BF1D100BF1037BD4680BD80B483B000AF786039607B681B78012B0CD07B681B78032B08D03B684FF6FF721A803B684FF6FF725A8009E07B68B3F920203B68C6
:400600001A807B68B3F922203B685A8000BF0C37BD465DF8047B704780B483B000AF78607B68002B01D1002314E07B681B78012B05D07B681B78032B01D000230AE07B6881
:4006400093F8403003F00203DBB2002B14BF01230023DBB218460C37BD465DF8047B704780B483B000AF786039607B68002B06D13B6800221A803B6800225A8018E07B68B4
:400680001B78012B0AD07B681B78032B06D03B6800221A803B6800225A8009E07B68B3F928203B681A807B68B3F92A203B685A800C37BD465DF8047B704700BF80B582B0DF
:4006C00000AF786039607B681B6D002B1AD07B68B3F924203B68B3F900309A4207D17B68B3F926203B68B3F902309A420AD07B68186D3B68B3F900103B68B3F902301A46A0
:4007000001F0C8FC3B68B3F900207B681A843B68B3F902207B685A847B681B7F012B05D17B681C33184600F073F804E07B681C33184600F0F9FA7B68B3F920207B689A8451
:400740007B68B3F922207B68DA8400BF0837BD4680BD00BF80B483B000AF7860396000BF0C37BD465DF8047B704700BF80B483B000AF7860396000BF0C37BD465DF8047B34
:40078000704700BF80B582B000AF786039607B689A6D3B689B689B001344B3F900207B681A847B689A6D3B689B689B001344B3F902207B685A847B68B3F924207B68B3F9FA
:4007C00020309A4211D17B68B3F926207B68B3F922309A4209D13B689B7B012B05D17B681C33184600F014F804E07B681C33184600F09AFA7B68B3F920207B689A847B688D
:40080000B3F922207B68DA8400BF0837BD4680BD80B588B000AF78607B689B697C4A13607B6893F8303003F00803DBB2002B40F05D82784B1B68DB683B610023FB77744B2B
:400840001B68002B2BD13869FFF7BCFD03461946786800F027FC02466D4B1A606C4B1B68002B0AD13869FFF797FD03461946786800F018FC0246664B1A60654B1B68002BA1
:400880000AD13869FFF772FD03461946786800F009FC02465E4B1A600123FB773EE07B6893F8243003F00203DBB2002B36D1584B1B681021184602F00BFE034683F00103D2
:4008C000DBB2002B2AD03869FFF77CFD03461946786800F0E7FB02464D4B1A604C4B1B68002B0AD13869FFF757FD03461946786800F0D8FB0246464B1A60454B1B68002B9B
:400900000AD13869FFF732FD03461946786800F0C9FB02463E4B1A600123FB77FB7F002B0CD07B68DB69002B08D07B6800229A827B680022DA82786800F092FD7B689A6987
:40094000334B1B689A4200F09C807B68B3F904207B681A817B68B3F906207B685A817B689B69002B1CD07B689B69FB60FB68DB69284A12680A21F8689847786800F0B2FE2D
:400980000346002B40F0B48100220221F86802F07BFA786800F0A6FE0346002B40F0AA811B4B1A687B689A61194B1A687B68DA61174B1B68002B64D00BF0E0FB02467B6800
:4009C0009A627A6892F830306FF3000382F830307A6892F824306FF3000382F824307A6892F824306FF3410382F824307B6800221A827B6800225A827B6800229A817B6844
:400A00000022DA81024B1B68BB6100237B6111E0AC4C0208A84C0208BB6993F82C3003F02003DBB2002B01D0BB697B61B86902F04FFBB861BB69002BEED17B69002B02D04E
:400A4000786901F0FDFAAC4B1B68DB69AA4A1068AA4A126808219847786800F043FE0346002B40F04D81A44B1B6800220021184602F00AFA786800F035FE0346002B40F0DA
:400A800041817B68B3F904309AB27B68B3F908309BB2D31A9BB21AB27B689A817B68B3F906309AB27B68B3F90A309BB2D31A9BB21AB27B68DA817B68B3F914301A46134656
:400AC0009B001344DB101AB27B689A827B68B3F916301A4613469B001344DB101AB27B68DA827B68B3F91430002B09DA7B68B3F914309BB201339BB21AB27B689A820DE09E
:400B00007B68B3F91430002B08DD7B68B3F914309BB2013B9BB21AB27B689A827B68B3F91630002B09DA7B68B3F916309BB201339BB21AB27B68DA820DE07B68B3F916300B
:400B4000002B08DD7B68B3F916309BB2013B9BB21AB27B68DA827B68B3F914309AB27B68B3F90C309B00DB109BB213449BB21AB27B689A827B68B3F916309AB27B68B3F9D3
:400B80000E309B00DB109BB213449BB21AB27B68DA82594B1B68002B00F0C380564B1B68DB69554A1068554A126809219847786800F098FD0346002B40F0A6804E4B1B6804
:400BC00000220121184602F05FF9786800F08AFD0346002B40F09A80786800F0B7FA786800F080FD0346002B40F092807B6893F8243003F00203DBB2002B3AD17B6893F885
:400C0000303003F00103DBB2002B32D17B689B6A18460BF0CDFA0246384B1B68DB8A9A4227D9354B1B68DB69334A1068334A12680C219847786800F055FD0346002B69D1FC
:400C40002D4B1B6800220421184602F01DF9786800F048FD0346002B5ED17A6892F8303043F0010382F830300BF088FA02467B68DA627B6893F8243003F00203DBB2002BE1
:400C80004FD17B6893F8303003F00103DBB2002B47D07B68DB6A18460BF08AFA0246174B1B681B8B9A423CD9134B1B68DB69124A1068124A12680D219847786800F012FDFC
:400CC0000346002B2AD10C4B1B6800220521184602F0DAF8786800F005FD0346002B1FD10BF04CFA02467B68DA621AE000BF18E000BF16E000BF14E0AC4C0208A84C02084A
:400D000000BF0EE000BF0CE000BF0AE000BF08E000BF06E000BF04E000BF02E000BF00E000BF2037BD4680BD80B584B000AF78607B6893F8303003F00803DBB2002B12D0D7
:400D40007B6800229A617B680022DA617B6800229A627B680022DA627A6892F830306FF3C30382F830307B689B69A54A1360A44B1B68002B00F01481A14B1B6810211846BA
:400D800002F0A6FB0346002B49D09D4B1B68DB699B4A10689B4A12680B219847786800F0A1FC0346002B40F010817B6893F8243003F00203DBB2002B23D17B6893F83030C7
:400DC00003F00103DBB2002B0DD18D4B1B6800220321184602F058F8786800F083FC0346002B40F0F480864B1B6800220621184602F04AF8786800F075FC0346002B40F0AA
:400E0000E8807F4B1B6800220721184602F03CF8786800F067FC0346002B52D0ECE0784B1B68DB69764A1068764A12680B219847786800F057FC0346002B40F0CC807B689D
:400E400093F8303003F00103DBB2002B15D17B6893F8243003F00203DBB2002B0DD1684B1B6800220321184602F00EF8786800F039FC0346002B40F0B0807B6893F8243035
:400E800003F00203DBB2002B0DD15D4B1B6800220621184601F0F8FF786800F023FC0346002B40F09C80564B1B6800220721184601F0EAFF786800F015FC0346002B40F010
:400EC0009080786800F00EFC0346002B40F08B800023FB727B681A6A494B1B689A4223D0FB7A83F00103DBB2002B1DD07B681B6A00220D21184601F0C7FF786800F0F2FB61
:400F00000346002B71D17B689B6900220C21184601F0BAFF786800F0E5FB0346002B66D1374B1A687B681A62786800F0DBFB0346002B5ED1324B1B68FB6003E0F86802F026
:400F4000C7F8F860F86802F081FA0346002B02D0FB68002BF2D1FB68002B18D0F86802F05FFA0346002B12D07B6893F8243003F00203DBB2002B0AD000220A21F86801F095
:400F800083FF786800F0AEFB0346002B33D17B6800229A617B6800229A627B680022DA627B68DB69002B27D07B6893F8303003F00203DBB2002B1FD1786800F051FA7868CA
:400FC00000F090FB0346002B16E000BF14E000BF12E000BF10E000BF0EE000BF0CE000BF0AE000BF08E000BF06E000BF04E000BF02E000BF00E000BF1037BD4680BD00BFC4
:40100000AC4C0208A84C020880B483B000AF78607B6893F84C3003F00203DBB2002B39D07B6800225A637B6800229A637B680022DA637A6892F840306FF3000382F84030EE
:401040007A6892F840306FF3410382F840307A6892F84C306FF3000382F84C307B6800225A647B6800229A647B6800229A857B680022DA857B6800221A867B6800225A86E9
:401080007A6892F84C306FF3410382F84C30044B00221A6000BF0C37BD465DF8047B7047AC4C020880B586B000AF7860396000237B613B6803F110027B680433194610462D
:4010C0000BF0F6FB0346002B3AD03B68043318460BF078FF38610EE039697868FFF7E2FF78617B69002B0AD13B680433396918460BF090FF38613B69002BEDD100E000BF10
:401100007B69002B1CD1386802F04EF90346002B16D03B68FB6009E0F86802F02FF90346002B07D1F86801F0D3FFF860FB68002BF2D100E000BFFB68002B01D13B687B6189
:401140007B6918461837BD4680BD00BF80B58AB000AF78607B689B697B62002387F8233003E0786A01F0B4FF7862786A02F06EF90346002B02D07B6A002BF2D17B6A002B89
:4011800000F06281786A02F025F9034683F00103DBB2002B40F05A81786A02F031F903467B777B68B3F910309AB27B68B3F90C309BB213449BB21AB27B681A827B68B3F9FD
:4011C00012309AB27B68B3F90E309BB213449BB21AB27B685A827B6893F8243003F00103DBB2002B29D17B7F03F00103002B0AD07B68B3F91030002BB8BF5B42974A12684E
:40120000127D93420FDA7B7F03F00203002B14D07B68B3F91230002BB8BF5B428F4A1268127D934209DB7A6892F8243043F0010382F82430012387F823307B6893F8243038
:4012400003F00103DBB2002B00F005817B68B3F90C30002B05D17B68B3F90E30002B00F0FA807E4B1B68DB6818460AF03FFE03467B837B6A1B8A3B837B6A5B8AFB82786A3F
:4012800001F026FF0346184601F0F6FF0346BB82786A01F01DFF0346184601F0FBFF03467B82786A01F0A8FF03463B84786A01F0C3FF0346FB837B7F032B28D197F823305D
:4012C000002B0FD07B68B3F910309AB23B8C13449BB23B847B68B3F912309AB2FB8B13449BB2FB837B68B3F90C309AB23B8C13449BB219B27B68B3F90E309AB2FB8B134497
:401300009BB21BB21A46786A00F0C4FE3AE07B7F03F00103002B18D097F82330002B07D07B68B3F910309AB23B8C13449BB23B847B68B3F90C309AB23B8C13449BB21BB209
:401340001946786A00F032FF1CE07B7F03F00203002B17D097F82330002B07D07B68B3F912309AB2FB8B13449BB2FB837B68B3F90E309AB2FB8B13449BB21BB21946786A11
:4013800000F02AFF7B6AB3F91030B7F918209A4237D17B6AB3F91230B7F916209A4230D1786A01F095FE0346184601F065FF03463B82786A01F08CFE0346184601F06AFF1B
:4013C0000346FB81B7F91020B7F914309A423FD1B7F90E20B7F912309A4239D11F4B1B68DB6818460AF082FD0346BB811B4B1B68D868BA897B8BD31A9BB219460AF086FD9E
:4014000026E07A6892F8243043F0020382F8243097F82330002B1ED07B6ADB690F4A12680E21786A9847786800F05CF90346002B10D100220821786A01F026FD786800F06E
:4014400051F90346002B06E000BF04E000BF02E000BF00E000BF2837BD4680BDA84C020880B58AB000AF78607B6893F8243003F00203DBB2002B00F023817B68DB697B6289
:4014800003E0786A01F024FE7862786A01F0DEFF0346002B02D07B6A002BF2D17B6A002B00F01081786A01F0BBFF034683F00103DBB2002B1FD07A6892F824306FF34103C6
:4014C00082F824307B6ADB69844A12680F21786A984700220921786A01F0D6FC786800F001F90346002B40F0EF8000220921786A01F0CAFCEFE0786A01F082FF034687F81E
:4015000023307B68B3F914301A46744B1B685B7DC3F1640303FB02F3714A82FB03125211DB17D31A1AB27B689A827B68B3F916301A466A4B1B685B7DC3F1640303FB02F350
:40154000674A82FB03125211DB17D31A1AB27B68DA827B68B3F91430002B05D17B68B3F91630002B00F08D8007F114031946786A01F0D8FD786A01F03FFE03469AB27B686C
:40158000B3F914309BB213449BB23B84786A01F053FE03469AB27B68B3F916309BB213449BB2FB8397F82330032B08D1B7F91E20B7F920301946786A00F06CFD18E097F896
:4015C000233003F00103002B06D0B7F920301946786A00F0EBFD0BE097F8233003F00203002B05D0B7F91E301946786A00F0F4FD07F10C031946786A01F094FDB7F91420F4
:40160000B7F90C309A4204D07B68B3F91430002B5CD1B7F91620B7F90E309A4204D07B68B3F91630002B51D17A6892F824306FF3410382F824307B6800229A817B680022E4
:40164000DA817B6800229A827B680022DA827B6ADB69224A12680F21786A9847786800F041F80346002B33D100220921786A01F00BFC786800F036F80346002B26D000BFBF
:4016800029E07A6892F824306FF3410382F824307B6ADB69114A12680F21786A9847786800F020F80346002B14D100220921786A01F0EAFB786800F015F80346002B0AE07E
:4016C00000BF08E000BF06E000BF04E000BF02E000BF00E000BF2837BD4680BDA84C02081F85EB5180B483B000AF78607B6893F8303003F00203DBB2002B02D0094B0022CB
:401700001A607B6893F8303003F00203DBB2002B14BF01230023DBB218460C37BD465DF8047B7047AC4C020880B582B000AF786039600822396878681EF05CFF00BF083740
:40174000BD4680BD80B483B000AF78607B68B3F904309AB27B68B3F900309BB2D31A9BB201339BB21BB218460C37BD465DF8047B704700BF80B483B000AF78607B68B3F92D
:4017800006309AB27B68B3F902309BB2D31A9BB201339BB21BB218460C37BD465DF8047B704700BF80B500AF114B1B78002B1DD10BF016FD0BF0B8FE0AF016FD02F0E0FE9B
:4017C00002F01EF94FF4B2710A480BF055FA5C2109480BF051FAFEF70BFE08F0C9FE012008F0FCFD024B01221A7000E000BF80BDB04C0208107303080073030890B587B097
:4018000000AF7860396000237B617B68002B40F0B6800AF0DBFA38613B69002B01D1002364E23B69243318460BF046FA78617B69002B01D1002359E27B6900221A607B6993
:401840000433402118460BF017FA7B69874ADA617B69874A1A627B6900229A617B6900221A827B6900225A8200200AF0BBFA03469BB2013B9BB21AB27B699A8200200AF0EC
:40188000D3FA03469BB2013B9BB21AB27B69DA827B6900221A867B69002283F83C207B6900221A877B6900225A877B6900225A637A6992F83D306FF3000382F83D3017F02F
:4018C000A5FBF860FB68002B04D0FB681A687B699A6202E07B69674A9A627A6992F82C306FF3000382F82C307A6992F82C306FF3410382F82C307A6992F82C306FF382035D
:4019000082F82C307A6992F82C306FF3C30382F82C307A6992F82C306FF3041382F82C307A6992F82C306FF3451382F82C307B69002283F82E207A6992F82C306FF3861306
:4019400082F82C307B69FF2283F82F207A6992F82C306FF3C71382F82C307A6992F82D306FF3830382F82D307A6992F82D306FF3061382F82D307B6900225A62D0E07B68ED
:40198000043318460BF098F978617B69002B01D10023ABE17B697A681A607B690433402118460BF069F97B69304ADA617B69304A1A627B6900229A617A6992F82D306FF386
:4019C000830382F82D307B68B3F912207B695A827B68B3F912309BB264339BB21AB27B69DA82786901F048FD0346012B0ED17B68B3F914207B699A827B68B3F914309BB2AD
:401A0000963B9BB21AB27B691A820DE07B68B3F910207B691A827B68B3F910309BB296339BB21AB27B699A827B6900221A867B69002283F83C207B6900221A877B690022E2
:401A40005A877B6900225A637A6992F83D306FF3000382F83D3017F0D9FAB860BB68002B0AD0BB689A687B699A6208E0A93601108D350110047203087B699E4A9A627A69A6
:401A800092F82C3043F0010382F82C307A6992F82C306FF3410382F82C307A6992F82D3043F0030382F82D307A6992F82C306FF3820382F82C307A6992F82C306FF3C3039D
:401AC00082F82C307A6992F82C306FF3041382F82C307A6992F82C306FF3451382F82C307B69002283F82E207B69FF2283F82F207A6992F82C306FF3861382F82C307A6984
:401B000092F82C306FF3C71382F82C307A6992F82D306FF3061382F82D307B6900225A623B68002B00F0D5807B6903F110023B68103319461046FFF7F7FD3B68B3F93020AE
:401B40007B691A863B6893F83C207B6983F83C203B68B3F938207B691A873B68B3F93A207B695A873B685A6B7B695A633B6893F83D30C3F30003D9B27A6992F83D3061F3EC
:401B8000000382F83D303B689A697B699A613B6893F82C30C3F30003D9B27A6992F82C3061F3000382F82C303B6893F82C30C3F34003D9B27A6992F82C3061F3410382F809
:401BC0002C303B6893F82D30C3F30103D9B27A6992F82D3061F3010382F82D303B6893F82C30C3F38003D9B27A6992F82C3061F3820382F82C303B6893F82C30C3F3C003F7
:401C0000D9B27A6992F82C3061F3C30382F82C303B6893F82C30C3F30013D9B27A6992F82C3061F3041382F82C303B6893F82C30C3F34013D9B27A6992F82C3061F34513E5
:401C400082F82C303B6893F82C30C3F3C013D9B27A6992F82C3061F3C71382F82C303B6893F82C30C3F38013D9B27A6992F82C3061F3861382F82C303B6893F82E207B69D9
:401C800083F82E203B6893F82F207B6983F82F203B689A6A7B699A62386801F019FA0346002B11D07B68002B0ED0386801F0A4FA03461C46386801F0BFFA03461A46214690
:401CC000786900F0E7F904E000220021786900F0E1F97B68002B08D07B68DB697A69012178689847786900F02BF97B6918461C37BD4690BDA472030880B588B000AF7860A1
:401D0000786800F01DF9002178680AF0C3FA7B68043318460BF056F9F8610BE07B680433F96918460BF076F97861F86901F0A4FD7B69FB61FB69002BF0D100221321786829
:401D400001F0A2F8786801F0FFFD00200AF0B2F9B86118E0BB695A6B7B689A4204D0BB699A6B7B689A4202D1B869FEF709FCBB69DA6B7B689A4202D1BB690022DA63B86944
:401D80000AF098F9B861BB69002BE3D17B68DB690022002178689847786801F099F938613B69002B0AD1786801F058F9F860FB682433796818460BF035F805E03B69043352
:401DC000796818460BF02EF87B685B6A002B04D07B685B6A18460BF055FA78680BF052FA3B69002B05D03B69DB690022012138699847002318462037BD4680BD80B58CB08C
:401E000000AF78603960786801F0B8FA0346002B40F08E80786801F00DF97862786A01F01DF93862386AFEF7A1FA02467B6A9A420DD0386AFEF7B0FA02467B6A9A4206D0E1
:401E4000386AFEF7BFFA02467B6A9A4275D17B681B8EFB837B6803F1100207F1140311461846FFF761FCB7F914309AB2FB8BD31A9BB21BB2BB82B7F916309AB2FB8BD31AFA
:401E80009BB21BB2FB82B7F918309AB2FB8B13449BB21BB23B83B7F91A309AB2FB8B13449BB21BB27B8307F1140207F10C03396818460AF06FFC034687F82F3097F82F30C9
:401EC00083F00103DBB2002B34D1786801F000F9B8621DE0BB6A03F1100207F10C0107F10C0318460AF056FC034687F82F3097F82F3083F00103DBB2002B0DD1B86A01F0B7
:401F00003DFA0346002B17D1B86A01F0E1F8B862BB6A002BDED100E000BF97F82F30002B0BD007F10C031946386A01F071FD04E000BF02E000BF00E000BF3037BD4680BD85
:401F400080B586B000AF78607B681B8EFB827B6803F1100207F10C0311461846FFF7E4FBB7F90C309AB2FB8AD31A9BB21BB2BB81B7F90E309AB2FB8AD31A9BB21BB2FB81AA
:401F8000B7F910309AB2FB8A13449BB21BB23B82B7F912309AB2FB8A13449BB21BB27B8207F10C0319467868FFF728FF00BF1837BD4680BD80B584B000AF786039607B68E4
:401FC0001B68002B36D03B68002B35D07868FFF7B7FF786801F010F903463B81786801F02BF903467B817B681B68FB607B681B68181D3B68191D01237A680AF08DFF7B6811
:402000003A681A60B7F90830B7F90A201946786800F040F8FB68DB6900220121F86898473B68DB697A680121386898477868FFF787FF02E000BF00E000BF1037BD4680BDA4
:4020400080B584B000AF7860786801F041F8F860FB68043318460AF0B5FF02467B689A4214D0F868FFF76CFFFB68181DFB68191D01237A680AF050FFFB68DB697A68012191
:40208000F8689847F868FFF75BFF00E000BF1037BD4680BD80B586B000AF78600B467B8013463B807B681B687B617B69B3F910309AB27B8813449BB27B807B69B3F91230E7
:4020C0009AB23B8813449BB23B807A887B68B3F910309BB2D31A9BB21BB23B823A887B68B3F912309BB2D31A9BB21BB27B82B7F91030002B03D1B7F91230002B51D078689F
:40210000FFF71EFF07F108031946786801F00AF87B68B3F910309AB2B7F910309BB213449BB21AB27B681A827B68B3F912309AB2B7F912309BB213449BB21AB27B685A8285
:402140007B68B3F914309AB2B7F910309BB213449BB21AB27B689A827B68B3F916309AB2B7F912309BB213449BB21AB27B68DA82B7F91030B7F912201946786801F0D6FAB3
:402180007B68DB6907F108020221786898477B69DB697A680121786998477868FFF7D0FE00E000BF1837BD4680BD00BF80B582B000AF78600B467B80786801F03DF803460E
:4021C0001A46B7F9023019467868FFF763FF00BF0837BD4680BD00BF80B582B000AF78600B467B80786801F007F803461946B7F902301A467868FFF74DFF00BF0837BD46F2
:4022000080BD00BF80B586B000AF78600B467B8013463B80786801F02FF803461A46B7F90230934208D1786801F034F803461A46B7F9003093426DD07868FFF781FE07F13A
:4022400008031946786800F06DFF7B68B3F912309AB23B8813449BB2013B9BB21AB27B68DA82786801F008F90346012B0CD17B68B3F914309AB27B88D31A9BB201339BB29F
:402280001AB27B681A820BE07B68B3F910309AB27B8813449BB2013B9BB21AB27B689A827B68DB6907F10802022178689847786800F00EFF38613B69002B05D03B69DB69C5
:4022C0007A680121386998477B68043318460AF079FE78610CE07B69DB6900220321786998477B680433796918460AF093FE78617B69002BEFD17868FFF722FE7B6893F88D
:402300003D3003F00103DBB2002B04D0786800F08FFC00E000BF1837BD4680BD80B582B000AF78600B467B80786800F0A5FF03461946B7F902301A467868FFF763FF00BF95
:402340000837BD4680BD00BF90B589B000AFF860B96011461A460B46FB711346BB80F86800F04AFF0346FB83F86800F065FF0346BB83BB68002B03D1F86800F0A9FEB860AD
:40238000FB79142B00F2F98101A252F823F000BFE52301103B240110452401107524011095240110B5240110FB2401103125011061250110A7250110BD250110F9250110B1
:4023C00025260110352601106B26011091260110A7260110E32601100F2701101F27011055270110B86800F047FF0346DA0F13445B101BB29CB2F86800F03EFF0346DA0F64
:4024000013445B101BB29BB2E31A9BB2FB83B86800F040FF0346DA0F13445B101BB29CB2F86800F037FF0346DA0F13445B101BB29BB2E31A9BB2BB839FE10023FB8300233A
:40244000BB839AE1B86800F017FF0346DA0F13445B101BB29CB2F86800F00EFF0346DA0F13445B101BB29BB2E31A9BB2FB830023BB8382E1B86800F0FFFE03469CB2F86873
:4024800000F0FAFE03469BB2E31A9BB2FB830023BB8372E10023FB83B86800F0FBFE03469CB2F86800F0F6FE03469BB2E31A9BB2BB8362E1B86800F0DFFE0346DA0F1344C6
:4024C0005B101BB29CB2F86800F0D6FE0346DA0F13445B101BB29BB2E31A9BB2FB83B86800F0D8FE03469CB2F86800F0D3FE03469BB2E31A9BB2BB833FE1B86800F0BCFEB6
:4025000003469CB2F86800F0B7FE03469BB2E31A9BB2FB83B86800F0BDFE03469CB2F86800F0B8FE03469BB2E31A9BB2BB8324E10023FB83B86800F0ADFE0346DA0F134431
:402540005B101BB29CB2F86800F0A4FE0346DA0F13445B101BB29BB2E31A9BB2BB830CE1B86800F089FE03469CB2F86800F084FE03469BB2E31A9BB2FB83B86800F08AFE6A
:402580000346DA0F13445B101BB29CB2F86800F081FE0346DA0F13445B101BB29BB2E31A9BB2BB83E9E00023FB83F86800F072FE03469BB25B429BB2BB83DEE0B86800F0F1
:4025C0005BFE0346DA0F13445B101BB29CB2F86800F052FE0346DA0F13445B101BB29BB2E31A9BB2FB83F86800F054FE03469BB25B429BB2BB83C0E0B86800F03DFE034669
:402600009CB2F86800F038FE03469BB2E31A9BB2FB83F86800F03EFE03469BB25B429BB2BB83AAE00023FB83B86800F033FE0346BB83A2E0B86800F01FFE0346DA0F1344F3
:402640005B101BB29CB2F86800F016FE0346DA0F13445B101BB29BB2E31A9BB2FB83B86800F018FE0346BB8387E0B86800F004FE03469CB2F86800F0FFFD03469BB2E31AFE
:402680009BB2FB83B86800F005FE0346BB8374E0F86800F0F1FD03469BB25B429BB2FB830023BB8369E0F86800F0E6FD03469BB25B429BB2FB83B86800F0ECFD0346DA0F1F
:4026C00013445B101BB29CB2F86800F0E3FD0346DA0F13445B101BB29BB2E31A9BB2BB834BE0F86800F0C8FD03469BB25B429BB2FB83B86800F0CEFD03469CB2F86800F037
:40270000C9FD03469BB2E31A9BB2BB8335E0B86800F0B2FD0346FB830023BB832DE0B86800F0AAFD0346FB83B86800F0B3FD0346DA0F13445B101BB29CB2F86800F0AAFD68
:402740000346DA0F13445B101BB29BB2E31A9BB2BB8312E0B86800F08FFD0346FB83B86800F098FD03469CB2F86800F093FD03469BB2E31A9BB2BB8300BFF86800F0A8FC81
:40278000B861BB681B8AFB82BB685B8ABB82BB691B8A7B82BB695B8A3B82BA88FB8A13449AB2FB8B13449BB2FB833A8EBB8A13449AB2BB8B13449BB2BB83FA8B7B8AD31A89
:4027C0009BB2FB83BA8B3B8AD31A9BB2BB83B7F91C20B7F91E301946F868FFF75BFCFB68FA7983F83C20FB68BA881A87FB683A8E5A87FB68BA685A63FA6892F83D306FF39A
:40280000410382F83D3000BF2437BD4690BD00BF80B58AB000AFF860B96011461A460B46FB711346BB80F86800F0E6FC0346FB84F86800F001FD0346BB84F86800F01CFD74
:402840000346DA0F13445B107B84F86800F022FD0346DA0F13445B103B84BB68002B03D1F86800F035FCB860FB79142B00F2958101A252F823F000BFCD28011003290110CB
:40288000152901103929011055290110712901109F290110C5290110E9290110172A0110292A01104D2A0110692A0110852A0110B32A0110D92A0110EB2A01100F2B01100C
:4028C0002B2B0110472B0110752B0110B86800F0D3FC0346DA0F13445B101BB29AB27B8CD31A9BB2FB84B86800F0D4FC0346DA0F13445B101BB29AB23B8CD31A9BB2BB8464
:402900004BE17B8C5B429BB2FB843B8C5B429BB2BB8442E1B86800F0AFFC0346DA0F13445B101BB29AB27B8CD31A9BB2FB843B8C5B429BB2BB8430E1B86800F09DFC03466D
:402940009AB27B8CD31A9BB2FB843B8C5B429BB2BB8422E17B8C5B429BB2FB84B86800F099FC03469AB23B8CD31A9BB2BB8414E1B86800F081FC0346DA0F13445B101BB22B
:402980009AB27B8CD31A9BB2FB84B86800F082FC03469AB23B8CD31A9BB2BB84FDE0B86800F06AFC03469AB27B8CD31A9BB2FB84B86800F06FFC03469AB23B8CD31A9BB2EF
:4029C000BB84EAE07B8C5B429BB2FB84B86800F061FC0346DA0F13445B101BB29AB23B8CD31A9BB2BB84D8E0B86800F045FC03469AB27B8CD31A9BB2FB84B86800F04AFCF0
:402A00000346DA0F13445B101BB29AB23B8CD31A9BB2BB84C1E07B8C5B429BB2FB843B8C5B429BB2BB84B8E0B86800F025FC0346DA0F13445B101BB29AB27B8CD31A9BB231
:402A4000FB843B8C5B429BB2BB84A6E0B86800F013FC03469AB27B8CD31A9BB2FB843B8C5B429BB2BB8498E07B8C5B429BB2FB84B86800F00FFC03469AB23B8CD31A9BB264
:402A8000BB848AE0B86800F0F7FB0346DA0F13445B101BB29AB27B8CD31A9BB2FB84B86800F0F8FB03469AB23B8CD31A9BB2BB8473E0B86800F0E0FB03469AB27B8CD31AFF
:402AC0009BB2FB84B86800F0E5FB03469AB23B8CD31A9BB2BB8460E07B8C5B429BB2FB843B8C5B429BB2BB8457E07B8C5B429BB2FB84B86800F0CEFB0346DA0F13445B1031
:402B00001BB29AB23B8CD31A9BB2BB8445E07B8C5B429BB2FB84B86800F0BCFB03469AB23B8CD31A9BB2BB8437E0B86800F0A4FB03469AB27B8CD31A9BB2FB843B8C5B428C
:402B40009BB2BB8429E0B86800F096FB03469AB27B8CD31A9BB2FB84B86800F09BFB0346DA0F13445B101BB29AB23B8CD31A9BB2BB8412E0B86800F07FFB03469AB27B8CBF
:402B8000D31A9BB2FB84B86800F084FB03469AB23B8CD31A9BB2BB8400BFF86800F098FAF861BB681B8A7B83BB685B8A3B83FB691B8AFB82FB695B8ABB82BA887B8B1344C7
:402BC0009AB2FB8C13449BB2FB843A8E3B8B13449AB2BB8C13449BB2BB84FA8CFB8AD31A9BB2FB84BA8CBB8AD31A9BB2BB84B7F92420B7F926301946F868FFF74BFAFB6865
:402C0000FA7983F83C20FB68BA881A87FB683A8E5A87FB68BA685A63FA6892F83D3043F0020382F83D3000BF2837BD4680BD00BF80B584B002AF78607B6893F83D3003F061
:402C40000203DBB2002B10D07B68596B7B6893F83C207B68B3F938007B68B3F93A30009303467868FFF7D4FD0FE07B68596B7B6893F83C207B68B3F938007B68B3F93A30E3
:402C8000009303467868FFF75FFB00BF0837BD4680BD00BF80B483B000AF78600B46FB70FB7803F00103D9B27A6892F83D3061F3000382F83D3000BF0C37BD465DF8047B7C
:402CC000704700BF80B582B000AF786039607B683A689A62786800F0A3FD786800F004F800BF0837BD4680BD80B582B000AF78607868FFF725F97B68DB69002204217868AC
:402D000098477868FFF71CF900BF0837BD4680BD80B584B000AF7860002009F0C3F8F86023E0FB68243318460AF04CF9B86015E0BB689A6A7B689A4202D07B68002B02D16F
:402D4000B868FFF7D1FFB968786800F03DFDFB682433B96818460AF05DF9B860BB68002BE6D1F86809F09EF8F860FB68002BD8D100BF1037BD4680BD80B483B000AF7860EA
:402D80000B46FB70FB7803F00103D9B27A6892F82C3061F3000382F82C3000BF0C37BD465DF8047B704700BF80B582B000AF78600B46FB70FB78002B03D001217868FFF70B
:402DC000DBFFFB7803F00103D9B27A6892F82C3061F3410382F82C3000BF0837BD4680BD80B483B000AF78600B46FB70FB7803F00103D9B27A6892F82C3061F3820382F8D6
:402E00002C3000BF0C37BD465DF8047B704700BF80B483B000AF78600B46FB707B6893F82E20FB781343DAB27B6883F82E2000BF0C37BD465DF8047B704700BF80B483B0CA
:402E400000AF78600B46FB70FB78DB43FB707B6893F82E20FB781340DAB27B6883F82E2000BF0C37BD465DF8047B704780B483B000AF786039607B683A689A6100BF0C37C0
:402E8000BD465DF8047B704780B586B000AFF8600B467A60FB72FB68002B01D1012309E0FB689869FA7A7B68F96800F007F80346FB75FB7D18461837BD4680BD80B58AB075
:402EC00000AFF860B9603B601346FB71BB683B6100233B750023BB612B4B1B68002B02D0294B1B68BB61284A07F110031360274B1B687B62254A3B681360FDF723FB386285
:402F00003B6A002B09D03B6A9B68002B05D03B6A9B683A6AF97910469847FB68002B04D0FA79FB681146B8689847184A7B6A1360154B1B689B68144A13603B7D002B01D09A
:402F400000231DE0BB68002B19D0BB6893F82C3023F07F03DBB2002B11D0BB681B68002B0DD0BB681B68F9793A681846FFF78CFF0346FB77FB7F012B01D0002300E0012322
:402F800018462837BD4680BDB44C0208B84C020880B400AF034B1B681846BD465DF8047B704700BFB84C020880B483B000AF786039607B683A68DA6100BF0C37BD465DF8EE
:402FC000047B704780B483B000AF786039607B683A681A6200BF0C37BD465DF8047B704780B582B000AF78600B467B807B685B6A7A88114618460AF089F902467B685A6287
:403000007B685B6A18460837BD4680BD80B582B000AF78607B6800221A867B68DB6900220621786898477868FEF78AFF00BF0837BD4680BD80B584B000AF78607B68FB607F
:40304000FB68BB60B86800F043F8F860FB68002BF6D1BB6818461037BD4680BD80B586B000AF78607B681B68002B02D17B687B6103E07868FFF7DEFF7861144809F0A2FF58
:4030800038611BE03B692433184609F09BFFF8600CE0FA687B699A4201D13B6912E03B692433F968184609F0B5FFF860FB68002BEFD13969054809F0ADFF38613B69002BB9
:4030C000E0D1002318461837BD4680BD1073030880B483B000AF78607B681B6818460C37BD465DF8047B704780B584B000AF786039600023FB603B68002B06D17B68043338
:40310000184609F05FFFF86006E07B6804333968184609F07FFFF860FB6818461037BD4680BD00BF80B582B000AF786039607B68103319463868FEF7F7FA00BF0837BD461A
:4031400080BD00BF80B584B000AF78603960786800F0E2F8F860FB689B7D03F00403002B0CD03B68B3F900309AB2FB68B3F914309BB213449BB21AB23B681A80FB689B7DB9
:4031800003F00803002B0CD03B68B3F904309AB2FB68B3F914309BB2D31A9BB21AB23B689A80FB689B7D03F00203002B0CD03B68B3F902309AB2FB68B3F914309BB213449A
:4031C0009BB21AB23B685A80FB689B7D03F00103002B0CD03B68B3F906309AB2FB68B3F914309BB2D31A9BB21AB23B68DA8000BF1037BD4680BD00BF80B584B000AF786057
:403200007868FFF765FFB860BB68002B0BD07B68B3F910309AB2BB68B3F910309BB2D31A9BB2FB8102E07B681B8AFB81B7F90E3018461037BD4680BD80B584B000AF78603D
:403240007868FFF745FFB860BB68002B0BD07B68B3F912309AB2BB68B3F912309BB2D31A9BB2FB8102E07B685B8AFB81B7F90E3018461037BD4680BD80B582B000AF7860DB
:403280007B6810331846FEF75DFA034618460837BD4680BD80B582B000AF78607B6810331846FEF767FA034618460837BD4680BD80B584B000AF7860786800F02DF8F860ED
:4032C0007868FFF7D9FF03469AB2FB68B3F924309BB2D31A9AB2FB68B3F926309BB2D31A9BB21BB218461037BD4680BD80B483B000AF78607B6893F83D3003F00103DBB2B7
:40330000002B14BF01230023DBB218460C37BD465DF8047B704700BF80B485B000AF78607B689B6AFB60FB68002B19D17B681B68BB6012E0BB689B6A002B0BD0BB689B6A59
:403340001B7803F00103DBB2002B03D1BB689B6AFB6005E0BB681B68BB60BB68002BE9D1FB68002B01D1044BFB60FB6818461437BD465DF8047B70476471030880B483B01B
:4033800000AF78607B6893F82C3003F01003DBB2002B14BF01230023DBB218460C37BD465DF8047B704700BF80B483B000AF78607B6893F82C3003F00103DBB2002B14BF2F
:4033C00001230023DBB218460C37BD465DF8047B704700BF80B483B000AF78607B6893F82C3003F00203DBB2002B14BF01230023DBB218460C37BD465DF8047B704700BF0E
:4034000080B483B000AF78607B6893F82D30C3F30103DBB218460C37BD465DF8047B704780B483B000AF78607B6893F82C3003F00403DBB2002B14BF01230023DBB21846EE
:403440000C37BD465DF8047B704700BF80B483B000AF78607B6893F82C3003F00803DBB2002B14BF01230023DBB218460C37BD465DF8047B704700BF80B483B000AF7860CB
:40348000002318460C37BD465DF8047B704700BF80B584B000AF78607B68FB600FE0FB6893F82C3003F04003DBB2002B03D0FB6893F82F3007E0F868FFF70AFEF860FB6886
:4034C000002BECD1FF2318461037BD4680BD00BF80B483B000AF78600B46FB707B6893F82E20FB781340DBB2002B14BF01230023DBB218460C37BD465DF8047B704700BFA5
:4035000080B483B000AF78607B68DB6918460C37BD465DF8047B704780B483B000AF78607B681B6A18460C37BD465DF8047B704780B483B000AF78607B685B6A18460C378B
:40354000BD465DF8047B704780B485B000AF786039600023FB7308E0FA7B7B6853F82230002B06D0FB7B0133FB73FB7B062BF3D900E000BFFA7B7B68396843F82210012311
:4035800018461437BD465DF8047B704790B58BB000AFF860B9601346FB71FB79022B6AD1FB6810331946B86809F0E0F9034683F00103DBB2002B01D0002370E0F868FFF78A
:4035C000ABFE78627B6A9B7BFA2B01D8002366E07B6A9B897B84B7F9223047F61842934201D100235BE007F114031946F868FFF799FDB7F914309AB27B8C13449BB21BB22E
:40360000BB82B7F918309AB27B8CD31A9BB21BB23B8307F114031946B86809F0A7F9034683F00103DBB2002B01D0002337E007F114031946F868FFF775FDB7F916309AB21B
:403640007B8C13449BB21BB2FB82B7F91A309AB27B8CD31A9BB21BB27B8307F114031946B86809F083F9034683F00103DBB2002B14D0002313E0FB79002B0FD1F868FFF7B9
:403680004BFEF861FB6803F11004F868FFF700FF0346FA69B968204603F0E6FD012318462C37BD4690BD00BF80B586B000AFF8600B467A60FB72FB7A072B05D11A497868E1
:4036C000FFF742FF03462AE00123FB75FB7A012B09D10121F868FFF7FBFE0346002B1DD00023FB751AE0FB7A062B11D1F868FFF713FE38613B69B3F91C20FB68B3F930304F
:403700009A420BDD3B69B3F91C20FB681A8605E0FB7A042B02D1F868FFF778FCFB7D18461837BD4680BD00BFA410031080B584B000AF78600B467B8013463B807B680433BB
:40374000184609F03FFCF86036E0FB68B3F910309AB27B8813449BB21AB2FB681A82FB68B3F912309AB23B8813449BB21AB2FB685A82FB68B3F914309AB27B8813449BB2E7
:403780001AB2FB689A82FB68B3F916309AB23B8813449BB21AB2FB68DA82B7F90020B7F902301946F868FFF7C1FF7B680433F968184609F02FFCF860FB68002BC5D100BFCC
:4037C0001037BD4680BD00BF80B584B000AF786039603B680433184609F0F4FBF86018E0FB689A6A7B689A4202D07B68002B05D1F86800F015F8F868FFF776FAF96878684A
:40380000FFF7E2FF3B680433F968184609F002FCF860FB68002BE3D100BF1037BD4680BD80B584B000AF786000217868FFF75CFCF8601AE0FB689B6A002B06D1F868FFF7F0
:40384000EFFFF868FFF750FA0AE0FB689B6A1B7803F00103DBB2002B02D0F868FFF7E0FFF9687868FFF740FCF860FB68002BE1D100BF1037BD4680BD80B586B000AF7860DC
:403880007B680433184609F09DFB78610BE07B6804337969184609F0BDFBF8607869FFF7EBFFFB687B617B69002BF0D1002213217868FFF7E9FA786800F046F800217868EA
:4038C00008F0E8FC002008F0F5FB386118E03B695A6B7B689A4204D03B699A6B7B689A4202D13869FCF74CFE3B69DA6B7B689A4202D13B690022DA63386908F0DBFB3861B8
:403900003B69002BE3D17B68DB6900220021786898477868FFF7DCFBB860BB6804337968184609F07FFA7B685B6A002B04D07B685B6A184609F0A6FC786809F0A3FC00BF8C
:403940001837BD4680BD00BF80B485B000AF78600B4B1B68FB600AE0FB681A687B689A4202D1FB6801221A71FB689B68FB60FB68002BF1D100BF1437BD465DF8047B7047BA
:40398000B44C020880B582B000AF786039600822396878681CF02EFE00BF0837BD4680BD80B483B000AF78607B68B3F904309AB27B68B3F900309BB2D31A9BB201339BB291
:4039C0001BB218460C37BD465DF8047B704700BF80B483B000AF78607B68B3F906309AB27B68B3F902309BB2D31A9BB201339BB21BB218460C37BD465DF8047B704700BF89
:403A000080B400AF00BFBD465DF8047B704700BF80B588B000AF786039607B68002B02D108F0D4F978607B68002B00F09B803B68002B07D17A68B2F85C316FF30903A2F8AC
:403A40005C3192E00023BB820023FB82786808F0C9F903469BB2013B9BB21BB23B83786808F0E2F903469BB2013B9BB21BB27B8307F1140207F10C033968184608F08AFED2
:403A800003467B777B7F002B6FD07B681B69002B06D07B681B697A6807F10C01104698470023FB8311E0FB8B0733DB007A6813441A1D07F10C031146184608F057FF03468C
:403AC000002B51D1FB8B0133FB83FB8B7A68B2F85C21C2F3090292B29342E4DB7B68B3F85C31C3F309039BB21F2B11DC7B68B3F85C31C3F309039BB20733DB007A68134441
:403B0000043307F10C0211461846FFF73BFF17E07A68B2F85C316FF30903A2F85C317B68B3F85C31C3F309039BB20733DB007A681344043307F1140211461846FFF722FF35
:403B40007B68B3F85C31C3F309039BB20133C3F3090399B27A68B2F85C3161F30903A2F85C3102E000BF00E000BF2037BD4680BD80B400AF034B1B681846BD465DF8047B7A
:403B8000704700BFC04C0208B0B58AB000AF786008F0F4FAF8617B68DB686D4A136000F0DBF800F07DF96A4B1B68B3F85C31C3F309039BB2002B00F0C480654B1B6818462C
:403BC00008F0EEF90346002B00F08D80604B1B68184608F07FF9B86100F06AFC00BFBB699B69C3F30003DBB2002BF8D1BB699B687B61BB699A68BB691B689A4202D1BB6946
:403C00005B6801E0BB691B683B61514B1B68184608F0E8F80346FB810023FB8459E04C4B1A68FB8C134493F83C31002B4ED1B7F90E20474B1968FB8C0733DB000B44B3F9E7
:403C4000063003FB02F2424B1968FB8C0733DB000B44B3F9043013449B003B623C4B1A68FB8C0733DB00134404331846FFF798FE03469B00BB60364B1A68FB8C0733DB00F9
:403C80001344DB88BB8415E07A693B6AD0183A693B6A1344BA6819461CF0ACFCB7F90E309B003A6A13443B62B7F924309BB201339BB2BB84264B1A68FB8C0733DB001344BA
:403CC000B3F90A30B7F924209A42DDDDFB8C0133FB84FB8C1E4A1268B2F85C21C2F3090292B293429BDB1A4B1B683C334FF48072002118461CF089FC154B1B6803F59E73B3
:403D00002022002118461CF080FC114B1A68B2F85C316FF30903A2F85C310D4B1B689B69002B0ED00A4B1B689C69094B1B681D46F86908F03DFA0146064B1B681A46284618
:403D4000A04700F0D9FE00BF2837BD46B0BD00BFC04C0208BC4C0208B0B584B000AF0023BB608AE04D4B1A68BB68134403F59E731B78002B7DD10023FB606EE0474B1A68A7
:403D8000FB68134403F59E731B78002B5FD1BA68FB689A425BD0414B1A68BB680733DB001344181D3D4B1A68FB680733DB0013440433194608F0ACFD034683F00103DBB297
:403DC000002B46D1354B1A68BB680733DB001344191D324B1A68FB680733DB0013441A1D3B46184608F028FD3B46184608F0B0FC04462A4B1A68BB680733DB00134404332F
:403E0000184608F0A5FC0546244B1A68FB680733DB0013440433184608F09AFC03462B449C4217D21D4B1A68BB680733DB00134404333A4611461846FFF7A4FD174B1A687E
:403E4000FB68134403F59E7301221A7002E000BF00E000BFFB680133FB60104B1B68B3F85C31C3F309039BB21A46FB689A4285D800E000BFBB680133BB60084B1B68B3F8ED
:403E80005C31C3F309039BB21A46BB689A423FF669AF00BF1037BD46B0BD00BFC04C020880B582B000AF204B00221A6000237B602AE01E4B1A687B68134403F59E731B7889
:403EC000002B1ED1194B1A687B680733DB0013440433184600F02CF8144B1B689B69002B0FD0124B1A687B680733DB0013440433184608F02DFC02460B4B1B6813440A4A2A
:403F000013607B6801337B60084B1B68B3F85C31C3F309039BB21A467B689A42C9D800BF0837BD4680BD00BFBC4C0208C04C020890B58DB000AF78607F4B1B68184608F06E
:403F40002FF80346002B27D07B4B1B68184607F0C1FF38623B6A00221A82774B1B68184607F040FF03469BB2013B9BB21AB23B6A9A823B6A00225A826F4B1B68184607F09A
:403F800053FF03469BB2013B9BB21AB23B6ADA82786800F0D3F8CBE0674B1B68184607F099FFF8617868FFF7FBFC03467B837868FFF70EFD03463B837B68B3F906405E4B88
:403FC0001B68184607F030FF03469C420CDB5A4B1B68184607F028FF03469BB2013B9BB2FB82B7F9163002E07B68B3F90630FB82FB69DA68B7F91A30B2FBF3F3FB62B7F912
:404000001820FB6A9A4202DAB7F91830FB624A4B1B681B69002B34D00023BB8100233B820023FB81FB6A7B857B8D013B9BB21BB27B82414B1B681B693F4A1268104607F189
:404040000C021146984707F10C031846FFF7C0FC03461A46FB6A9A420ADDB7F92A309BB2013B9BB27B85B7F92A30002BDCDC00E000BFB7F92A30002B59DDB7F91230013317
:40408000FB620023FB847B685B883B852CE07B68B3F90020FB691A827B68B3F90420FB699A82FB693A8D5A82FB6A9AB23B8D13449BB2013B9BB21AB2FB69DA82FB69B3F944
:4040C0001630B7F916209A4202DAFB69FA8ADA82FB69DB8AFB84786800F030F8FB6A9AB23B8D13449BB23B85B7F92820FB6A13445A1EB7F916309A42C9DDB7F91620B7F941
:4041000026309A4214D07B68B3F90020FB691A827B68B3F90420FB699A82FB693A8D5A82FB69FA8ADA82786800F008F800E000BF3437BD4690BD00BFC04C020880B586B0D2
:4041400000AF78602E4B1B68184607F0C3FE78612B4B1B68184607F00BFF034683F00103DBB2002B07D000BF7B699B69C3F30003DBB2002BF8D17B6903F1100207F1080358
:404180007968184608F006FB1D4B1B681846FCF7EDF8024607F108031146184600F032F8386107F108031946386900F07FF8144B1B681846FCF7F0F8024607F108031946C4
:4041C000104600F073F80E4B1B681846FCF7FAF8024607F108031946104600F067F8084B1B68184607F0DCFE034683F00103DBB2002B01D000F05CF900BF1837BD4680BDBF
:40420000C04C020880B586B000AF7860396000237B613B6810331946786808F0A7FB0346002B3ED03B6893F82C3003F01003DBB2002B36D13B680433184608F0C3FE3861C4
:404240000EE039697868FFF7DDFF78617B69002B0AD13B6804333969184608F0DBFE38613B69002BEDD100E000BF7B69002B18D13868FFF751F8F860FB689B7BFF2B10D116
:404280003B681B6A02227968386898470346002B07D03868FFF7FCF80346FF2B01D13B687B617B6918461837BD4680BD80B586B000AF786039607B68002B05D11C4B1B688F
:4042C0001846FCF753F878603968786800F032F87B683B617868FEF7FBFE786121E07B6904333969184608F0B1FEF8600AE03968F86800F01FF87B690433F968184608F0AA
:40430000A5FEF860FB68002BF1D17B691B6A01223968786998477B693B617869FEF7D8FE78617B69002BDAD100BF1837BD4680BDC04C020880B58EB000AF786039607B68AC
:4043400093F82C3003F01003DBB2002B40F0AC807B681B8E7B8607F1180319467868FEF7E1FEB7F918309AB27B8ED31A9BB21BB23B83B7F91A309AB27B8ED31A9BB21BB221
:404380007B83B7F91C309AB27B8E13449BB21BB2BB83B7F91E309AB27B8E13449BB21BB2FB8307F1180207F120033968184608F0F1F9034687F8313097F83130002B74D027
:4043C0007B681B6A07F1200100227868984707F1180319467868FEF7A5FE07F1180207F128033968184608F0D5F9034687F8313097F83130002B4FD07B680433184608F0A4
:40440000F5FD786345E007F108031946786BFEF789FE7B6B1B8E7B86B7F908309AB27B8ED31A9BB21BB23B81B7F90A309AB27B8ED31A9BB21BB27B81B7F90C309AB27B8EB6
:4044400013449BB21BB2BB81B7F90E309AB27B8E13449BB21BB2FB8107F1080207F1280107F11003184608F095F9034687F8313097F83130002B05D007F110031946786BE7
:40448000FFF758FF7B680433796B184608F0DEFD78637B6B002BB6D17B681B6A07F1200101227868984700E000BF3837BD4680BD80B582B000AF234B1B68184607F00AFDF9
:4044C0007860204B1B68184607F052FD0346002B07D000BF7B689B69C3F30003DBB2002BF8D17A68137E43F001031376FFF740FB38603B68DB68002B08D03B68DB683868BC
:404500007A6802F110017A68926898477B681B68002B12D07B685B68002B0ED07B689A687B681B689A4204D17B685A687B689A6003E07B681A687B689A6000BF0837BD4614
:4045400080BD00BFC04C020890B482B000AF0446084611462246FA710246BA710A467A717A7962F30703BA7962F30F23FA7962F3174343F07F4318460837BD4690BC7047CE
:4045800098B500AFB64A13786FF300031370B44BFF229A73B24BFF221A71B14BFF225A71AF4BFF229A71AE4BFF22DA71AC4BFF221A72AB4BFF225A72A94BFF229A72A84BA8
:4045C000FF22DA72A64B00229A81A54B00229A84A34B0022DA84A24B00221A84A04B00225A849F4B07221A859D4B00221A749C4B00225A749A4B00229A74994BFF22DA7461
:40460000974BFF22DA75964B00229A82944B0F229A75934B80221A76914B80225A76904B80229A768E4BFF22DA768D4B01229A778B4B00229A838A4BFF2283F83C20884CF3
:40464000302230213020FFF77FFFE062844CD82296215520FFF778FF2063814B814A5A637F4B00221A877E4B02225A877C4BFF2283F845207A4C202220212020FFF764FF52
:404680002064774B002283F84420754BFF2283F84E20734C202220212020FFF755FFA0646F4B0222A3F84C206D4A92F84F306FF3000382F84F306A496B4800F0DFF96A4B33
:4046C00007229A84684B0722DA84674B07221A84654B07225A846449644800F0CFF9634CF022F021F020FFF72FFFE0625F4CF022F021F020FFF728FF20645C4CF022F02166
:40470000F020FFF721FFA064584CD82296215520FFF71AFF6060554A544B5B6893605249534800F0ABF9524C202220212020FFF70BFFE0624E4C202220212020FFF704FFFF
:4047400020644B4C202220212020FFF7FDFEA064474BFF221A71464BFF225A71444BFF229A71434BFF22DA71414BC0221A72404BC0225A723E4BC0229A723D4BFF22DA7257
:404780003B4B0A229A813A4C402240214020FFF7DBFE2061364B03229A82354B4C22DA753349344800F06AF9324CE022E021E020FFF7CAFEE0622F4CE022E021E020FFF7F4
:4047C000C3FE20642B4CC022C021C020FFF7BCFEA064284CC7229A216B20FFF7B5FE6060244C8B2259212B20FFF7AEFEA060214C42222C211520FFF7A7FE20611A491E48DE
:4048000000F03CF91C4A137843F0010313701A4B00229A82184B00229A731749174800F02DF9164B00229A84144B0022DA84134B00221A84114B00225A841049104800F003
:404840001DF90F4B00221A8507490E4800F016F90C4CD022A2217620FFF776FE606013E004720308A842020864710308A472030824700308E46E0308346F030814710308F2
:4048800074700308846F0308774C5D223A211920FFF75AFEA060744B0A229A81724B25229A84714B2522DA846F4B19221A846E4B19225A846C4B0F221A856B4C2822192137
:4048C0000B20FFF741FE2061674B03229A82664BB222DA75644B80221A76634B80225A76614B80229A76604BFF22DA765E4B00229A835D4CFF22FF21FF20FFF725FEE06249
:40490000594CFF22FF21FF20FFF71EFE20645649564800F0B3F8554C942262213320FFF713FE6060514C3C2226211020FFF70CFEA0604E4CC622B521A420FFF705FEE06247
:404940004A4CC622B521A420FFF7FEFD2064474CC622B521A420FFF7F7FDA0644249444800F08CF8424C222211210A20FFF7ECFD60603F4C902262213720FFF7E5FDA06060
:404980003B4C0D2207210120FFF7DEFD2061384CF422DD21C820FFF7D7FDE062344CF422DD21C820FFF7D0FD2064314CF422DD21C820FFF7C9FDA0642D492E4800F05EF8EC
:4049C0002C4C272214210220FFF7BEFD6060294C70224C212B20FFF7B7FDA060254CC622B521A420FFF7B0FDE062224CC622B521A420FFF7A9FD20641E4CC622B521A420F1
:404A0000FFF7A2FDA06418491B4800F037F81A4CD822D821D820FFF797FD6060164CD822D821D820FFF790FDA060134C902290219020FFF789FD20610F4C70227021702012
:404A4000FFF782FDE0620C4C702270217020FFF77BFD2064084C702270217020FFF774FDA06400BF98BD00BF846F0308D46F0308B471030854720308C470030880B582B04A
:404A800000AF786039605022396878681BF0B2FD00BF0837BD4680BD80B582B000AF7860134B1B687A689A4202D8124B1B681AE00F4A7B6813600F4B1B68002B08D178683A
:404AC00008F0AEFB02460B4B1A600A4B1B680AE0084B1B687968184608F018FC0246054B1A60044B1B6818460837BD4680BD00BFC44C02080C73030880B500AF084B1B683C
:404B0000002B0AD0064B1B68184608F0BBFB044B00221A60034B00221A6000BF80BD00BF0C730308C44C020880B487B000AFF860B9601346FB71BB7B9AB2FB799BB212FBBC
:404B400003F39AB2BB7A99B2FB79C3F1FF039BB211FB03F39BB213449BB21B0A9BB2DBB2BB757B7B9AB2FB799BB212FB03F39AB27B7A99B2FB79C3F1FF039BB211FB03F3CF
:404B80009BB213449BB21B0A9BB2DBB27B753B7B9AB2FB799BB212FB03F39AB23B7A99B2FB79C3F1FF039BB211FB03F39BB213449BB21B0A9BB2DBB23B75FF23FB757B6974
:404BC00018461C37BD465DF8047B704780B483B000AF78607B68B3F904309AB27B68B3F900309BB2D31A9BB201339BB21BB218460C37BD465DF8047B704700BFB0B58EB054
:404C000004AFBA607B600346FB810B46BB8197F838300F2B40F2838097F83830FB2B02D9FF2387F83830BB68B3F90030B7F90E209A4276DBBB68B3F90430B7F90E209A424C
:404C40006FDCBB68B3F90230B7F90C209A4268DBBB68B3F90630B7F90C209A4261DCFEF787FF7862786A07F035F938623B6A10331846FFF7ABFF0346FB61FA893B6AB3F99E
:404C800010309BB2D31A9BB2FB81BA893B6AB3F912309BB2D31A9BB2BB817B6A5B69002B13D07B6A5C69786A3B6A9968FB691AB2B7F90E5097F8383002937B680193B7F93E
:404CC0000C3000932B46A0472CE00023FB763B6A9B687B61B7F90C30FA6902FB03F2B7F90E3013449B007A6913447B61FB7E83F00103DBB2002B15D097F83830FF2B03D1B0
:404D00007B697A681A600DE097F838207B6919687868FFF709FF02467B691A6002E000BF00E000BF2837BD46B0BD00BF80B590B002AFF860B9607A60FB70FB780F2B68D9DE
:404D4000FB78FB2B01D9FF23FB7007F11C03BA68F968184607F01EFD034687F8373097F8373083F00103DBB2002B54D1FEF700FF3863386B07F0AEF8F862B7F91C309AB23F
:404D8000FB6AB3F910309BB2D31A9BB21BB2BB82B7F91E309AB2FB6AB3F912309BB2D31A9BB21BB2FB82B7F920309AB2FB6AB3F910309BB2D31A9BB21BB23B83B7F92230F2
:404DC0009AB2FB6AB3F912309BB2D31A9BB21BB27B83FB6A9B68BB62FB6A10331846FFF7F5FE03467B62B7F916301A467B6A03FB02F39B00BA6A1344BB62FB6A98687B6A7D
:404E000019B207F11402FB7800937B6800F064FC02E000BF00E000BF3837BD4680BD00BFF0B5A5B004AFF860B9607A603B60002387F84030FF2387F84130C44A07F13C03B6
:404E400010681860C24B07F12C04186859689A68DB680FC497F89C300F2B40F22C8497F89C30FB2B02D9FF2387F89C307B68002B00F0238407F1240100233A68786806F017
:404E8000F5F8034687F85E3097F85E3083F00103DBB2002B40F01384FB68B3F900309AB297F928309BB213449BB2A7F85C30FB68B3F902309AB27B681B7A19B27B6893F9CE
:404EC00009301BB2CB1A1BB29BB213449AB297F827309BB2D31A9AB297F929309BB2D31A9BB2A7F85A3097F82A30032B02D1042387F82A3097F82A30013B072B00F2E1836E
:404F000001A252F823F000BF294F0110374F0110C3560110454F0110C3560110C3560110C3560110534F011007F14003FB67802387F87B3013E007F13C03FB67C02387F83A
:404F40007B300CE007F12C03FB67F02387F87B3005E00023FB67FF2387F87B3000BF3968786806F073F878677B6F002B00F0AB83B7F95C3097F826201344BA68B2F9002016
:404F80009342C0F2A283BB68B3F90430B7F95C209A4200F39A83B7F95A3097F827201344BA68B2F902209342C0F28F83BB68B3F90630B7F95A209A4200F38783FEF7D8FD69
:404FC0007865786D06F086FF38653B6D10331846FFF7FCFD0346A7F84E303B6D9B683B6797F82630DB0887F84D3097F8263003F00703002B04D097F84D30013387F84D300B
:4050000097F826309AB297F82A309BB212FB03F3A7F84A307B689B7A03F00303DBB2002B14BF0123002387F8493097F8493083F00103DBB2002B5ED0BB68B3F90030B7F91E
:405040005C209A4209DABB68B3F900309AB2B7F85C30D31A9BB21BB200E00023A7F86A30B7F95C3097F826201344BA68B2F90420934203DC97F826301BB20AE0BB68B3F9B4
:4050800004309AB2B7F85C30D31A9BB201339BB21BB2A7F86830BB68B3F90230B7F95A209A4209DABB68B3F902309AB2B7F85A30D31A9BB21BB200E00023A7F86630B7F917
:4050C0005A3097F827201344BA68B2F90620934203DC97F827301BB20AE0BB68B3F906309AB2B7F85A30D31A9BB201339BB21BB2A7F864306FE0BB68B3F90030B7F95C20F6
:405100009A420DDABB68B3F900301A46B7F95C30D31A9BB21A46520013449BB21BB200E00023A7F86A30B7F95C3097F826200949A1FB02125208D2B21344BA68B2F904203F
:40514000934209DC97F826301BB213E0AC100310B0100310ABAAAAAABB68B3F904301A46B7F95C30D31A01339BB21A46520013449BB21BB2A7F86830BB68B3F90230B7F96D
:405180005A209A4209DABB68B3F902309AB2B7F85A30D31A9BB21BB200E00023A7F86630B7F95A3097F827201344BA68B2F90620934203DC97F827301BB20AE0BB68B3F977
:4051C00006309AB2B7F85A30D31A9BB201339BB21BB2A7F86430B7F95A303A6DB2F912209B1AB7F94E2002FB03F2B7F95C3013443A6DB2F910209B1A9B003A6F13443B67AF
:4052000097F84930002B13D0B7F96630B7F94E2002FB03F2B7F96A30B34981FB0301DB17CB1A1BB213449B003A6F13443B670CE0B7F96630B7F94E2002FB03F2B7F96A3078
:4052400013449B003A6F13443B67B7F96630B7F84A2002FB03F2B7F96A3097F82A1001FB03F313447B647B6CDB087A6F13447B67002387F863307B6C9BB203F00703A7F81D
:405280006030002387F8433097F89A303B7797F899307B7797F89830BB77B7F86630A7F86C3000E297F87B20B7F8603042FA03F387F87A30002387F85F30B7F86A30A7F82C
:4052C0006E309DE17B6F1A7897F87A301340DBB21A46B7F86030C3F1080397F82A105B1A42FA03F387F8423097F8493083F00103DBB2002B00F0938097F84230002B00F0E8
:405300008A8097F89C30FF2B0ED197F82A30082B05D097F84230FA6F13441B7801E097F8423087F8633021E097F82A30082B0CD197F842309AB297F89C309BB212FB03F3D4
:405340009BB21B0A9BB2DBB20EE097F84230FA6F13441B789AB297F89C309BB212FB03F39BB21B0A9BB2DBB287F863307B6D5B69002B2BD07B6D5C69786D3B6D9968B7F88E
:405380006E20B7F85C3013449AB23B6DB3F910309BB2D31A9BB21EB2B7F86C20B7F85A3013449AB23B6DB3F912309BB2D31A9BB21BB2B7F94E5097F863200292D7F898201A
:4053C0000192009333462A46A04724E03B6F1A68D7F898309A421ED097F86330FB2B04D93B6FD7F898201A6015E097F86330102B11D997F8433083F00103DBB2002B0AD00F
:4054000097F863203B6F1968D7F89800FFF78CFB02463B6F1A603B6F04333B67C7E097F84230002B3ED097F89C30FF2B0ED197F82A30082B05D097F84230FA6F13441B78D2
:4054400001E097F8423087F8633021E097F82A30082B0CD197F842309AB297F89C309BB212FB03F39BB21B0A9BB2DBB20EE097F84230FA6F13441B789AB297F89C309BB2C4
:4054800012FB03F39BB21B0A9BB2DBB287F8633097F85F3007F18002134497F8632003F8602C07E097F85F3007F180021344002203F8602C97F85F30013387F85F3097F895
:4054C0005F30032B73D197F82030002B0ED197F82130002B0AD197F82230002B06D13B6F1B68BB6153E000BF565555553B6F9B783B753B6F5B787B753B6F1B78BB753B7F68
:405500009AB297F820309BB212FB03F39AB23B7D99B297F82030C3F1FF039BB211FB03F39BB213449BB21B0A9BB2DBB2BB76BB7F9AB297F822309BB212FB03F39AB2BB7D61
:4055400099B297F82230C3F1FF039BB211FB03F39BB213449BB21B0A9BB2DBB23B767B7F9AB297F821309BB212FB03F39AB27B7D99B297F82130C3F1FF039BB211FB03F36F
:405580009BB213449BB21B0A9BB2DBB27B7697F8433083F00103DBB2002B02D0BA693B6F1A60002387F85F303B6F04333B67B7F8602097F82A30C3F108039A420FDA97F8E1
:4055C0002A309AB2B7F860301344A7F8603097F87A3097F82A20134187F87A3009E00023A7F8603097F87B3087F87A307B6F01337B67B7F96E309BB201339BB2A7F86E30BA
:40560000B7F96E20B7F968309A42FFF65BAE97F826301A46B7F96830D21AB7F96A3013449AB297F82A309BB212FB03F39AB2B7F860301344A7F86030B7F86030DB089BB2EB
:405640001A467B6F13447B67B7F8603003F00703A7F8603097F84930002B11D0B7F94E20B7F96810B7F96A30CB1A1A4981FB0301DB17CB1AD31A9B003A6F13443B670BE0E4
:40568000B7F94E20B7F96810B7F96A30CB1AD31A9B003A6F13443B67B7F96C309BB201339BB2A7F86C30B7F96C20B7F964309A42FFF6F8AD0AE000BF08E000BF06E000BF0B
:4056C00004E000BF02E000BF00E000BF8437BD46F0BD00BF5655555590B58FB004AFF8607A603B600B467B81FEF742FA38623B6A5B69002B34D07B681B88BB8428E07B68E4
:405700005B88FB8417E03B6A5C69386AB7F92410B7F90A2097F8383002933B680193B7F9263000930B46F968A047B7F926309BB201339BB2FB847B68B3F90630B7F9262043
:405740009A42E0DDB7F924309BB201339BB2BB847B68B3F90430B7F924209A42CFDDCAE07B68B3F902301A46B7F90A3003FB02F39B00FA681344FB6097F83830FF2B59D19E
:405780007B681B88BB840CE0B7F924309B00FA6813443A681A60B7F924309BB201339BB2BB847B68B3F90430B7F924209A42EBDD7B68B3F900309B00FA681344FB617B6806
:4057C000B3F904301A467B68B3F90030D31A01339BB29B009BB27B83B7F90A309B00FA681344FB607B68B3F902309BB201339BB2FB8417E07B68B3F900309B00FA681344A5
:40580000B7F91A20F96918461AF0F4FEB7F90A309B00FA681344FB60B7F926309BB201339BB2FB847B68B3F90630B7F926209A42E0DD60E000237B7600233B7500237B7548
:405840000023BB75FF23FB7597F838301A4679693868FFF769F903463B617B685B88FB8442E07B681B88BB842BE07B7E83F00103DBB2002B1FD0B7F924309B00FA68134487
:405880001A687B699A420FD0B7F924309B00FA6813441B687B6197F838301A4679693868FFF742F903463B61B7F924309B00FA6813443A691A60B7F924309BB201339BB2DA
:4058C000BB847B68B3F90430B7F924209A42CCDDB7F90A309B00FA681344FB60B7F926309BB201339BB2FB847B68B3F90630B7F926209A42B5DD00BF2C37BD4690BD00BFE7
:4059000080B485B000AF0346FB710023FB73FB790E2B36D801A252F823F000BF595901105959011083590110835901105F590110655901105F5901106B590110715901101E
:40594000775901107D5901106B59011071590110775901107D5901100023FB7314E02023FB7311E02023FB730EE00123FB730BE00223FB7308E00423FB7305E00823FB7316
:4059800002E00023FB7300BFFB7B18461437BD465DF8047B704700BF80B485B000AF78600323FB737B68002B01D1FB7B18E07B68BB60BB681B781F2B07D9BB681B785BB2D6
:4059C000002B02DB0123FB7309E0BB681B785BB2002B02DA0223FB7301E00023FB73FB7B18461437BD465DF8047B704780B483B000AF78607B681B7A18460C37BD465DF849
:405A0000047B704790B482B000AF0446084611462246FA710246BA710A467A717A7962F30703BA7962F30F23FA7962F3174343F07F4318460837BD4690BC704780B483B06E
:405A400000AF78607B68B3F904309AB27B68B3F900309BB2D31A9BB201339BB21BB218460C37BD465DF8047B704700BF90B5B9B004AFF860B9607A60FB707B685B6BC7F88F
:405A8000AC30D7F8E0301B78002B00F0E28397F8E43003F00203002B06D1F868FFF7CEFF0346A7F8CE3019E07B68596B7B68B3F938407B68B3F93A3007F1280097F8E4201F
:405AC000029247F618420192009323460A46D7F8E01007F0BFFF3B8DA7F8CE30D7F8AC00FFF784FF03469AB27B68B3F93A309BB213449BB2A7F8AA300023A7F8A830FB68DA
:405B0000B3F90030A7F88430FB68B3F90230A7F886300023A7F8CC300023A7F8CA30D7F8E830002B13D0D7F8E8301B88A7F8CC30D7F8E8305B88A7F8CA30B7F986309AB2F7
:405B4000B7F8CA3013449BB21BB2A7F886300023C7F8C4304FF0FF33C7F8C030D7F8F030002B24D0B7F9CA30002B20D1FB68B3F90230002B1BDAD7F8F0309B68FA68B2F98C
:405B800002209B1A83EAE372A2EBE372B7F9AA30C3F500735B009A4204DDD7F8F0304FF0FF321A60D7F8F0301B68C7F8C030D7F8F030002B13D0D7F8C030002B0FDBD7F803
:405BC000C030C7F8C430B7F986309AB2D7F8F0305B689BB213449BB21BB2A7F88630D7F8E020D7F8C430D0187B68B3F93820B7F9CE1097F8E43000930B46D7F8AC1008F092
:405C0000F9F803461A46D7F8C4301344C7F8BC3053E0D7F8BC30C7F8C430D7F8E020D7F8C430D0187B68B3F93820B7F9CE1097F8E43000930B46D7F8AC1008F0DBF803464F
:405C40001A46D7F8BC301344C7F8BC30B7F986309AB2B7F8AA3013449BB21BB2A7F88630D7F8F030002B1FD0B7F9863013F5806F1ADBD7F8F0301B68002B15DAD7F8C4206C
:405C8000D7F8F0301A60B7F986301A46FB68B3F90230D21AD7F8F0305A60FB68B3F902301A46D7F8F0309A60D7F8E020D7F8C43013441B78002B00F0CE82B7F986301A46A8
:405CC000B7F9AA301344BA68B2F902209342A0DB97F8E43003F00403002B30D0D7F8E020D7F8C430D018D7F8BC309AB2D7F8C4309BB2D31A99B27B68B3F9382097F8E43069
:405D000000931346D7F8AC2008F006F90346A7F8A830F868FFF792FE03461A46B7F9A830D31ADA0F13445B101946B7F984309AB28BB213449BB21BB2A7F8843031E097F8C6
:405D4000E43003F00803002B2BD0D7F8E020D7F8C430D018D7F8BC309AB2D7F8C4309BB2D31A99B27B68B3F9382097F8E43000931346D7F8AC2008F0CFF80346A7F8A83092
:405D8000F868FFF75BFE03461A46B7F9A830D31AB7F9842092B29BB213449BB21BB2A7F88430FB78FF2B03D17B6893F83C300BE07B6893F83C309AB2FB789BB212FB03F34E
:405DC0009BB21B0A9BB2DBB287F8A7304FF6FF73A7F8BA304FF6FF73A7F8B830D7F8EC30002B1BD0D7F8EC301B88A7F8BA30D7F8EC305B88A7F8B830B7F8BA20B7F8B830F6
:405E00009A420BD9B7F8BA30A7F8A430B7F8B830A7F8BA30B7F8A430A7F8B830002387F8B7300023A7F8B43007F12C03AD491846FEF724FE7B681B6B7B637B6B3B63FEE101
:405E4000D7F8E830002B09D0B7F984309AB2B7F8CC3013449BB21BB2A7F88430002387F8B7300023C7F88030D7F8E020D7F8C4301344C7F8A0303CE10023A7F8B230B7F815
:405E8000BA304FF6FF72934213D0B7F8B8304FF6FF7293420DD0944B1B68D7F88010D7F8C4200A441146D7F8E00098470346A7F8B2308E4B1B6807F180021146D7F8A0007E
:405EC0009847C7F89C00894B1B68D7F88020D7F8A0100A44002110469847C7F8980097F8E43003F00103002B00F0828023231A46D7F89C309A421BD197F8B730002B07D1EF
:405F0000D7F88030A7F8B430012387F8B730F0E097F8B730012B03D1002387F8B73007E097F8B730022B03D1002387F8B730E0E097F8B730012B5BD1D7F89C30202B40F07B
:405F4000D780D7F88020B7F8B430D31A072B48D1B7F8B430D7F8A020D11807F11C03062218461AF047FB002387F822303B7F184600F078F903461C017B7F184600F072F916
:405F800003462344C7F89430BB7F184600F06AF903461C01FB7F184600F064F903462344C7F8903097F82030184600F05BF903461C0197F82130184600F054F903462344F7
:405FC000C7F88C30D7F89430DBB2D7F89020D1B2D7F88C20D2B21846FFF714FD0346FB6702E07B68DB6AFB67022387F8B7307FE07B68DB6A7B6297F8B730022B01D1FB6FBB
:406000007B62D7F89820D7F89C10D7F8AC0005F041F80346A7F88A30B7F8BA304FF6FF7293423CD0B7F8B8304FF6FF72934236D0B7F8B220B7F8BA309A4230D3B7F8B22064
:40604000B7F8B8309A422AD2B7F98430BB82B7F98630FB82B7F984309AB2B7F88A3013449AB27B68B3F938309BB213449BB2013B9BB21BB23B83B7F986309AB2B7F8AA303A
:4060800013449BB2013B9BB21BB27B8397F8A73007F12C0207F11400B96801F0E5F807F1840097F8A73001937B6A0093D7F89C30D7F8AC20B968FEF7B3FEB7F98A30002BE1
:4060C00017DDB7F984309AB27B68B3F9383099B2B7F88A300B449BB213449BB21BB2A7F8843006E0A4720308D0420208C442020800BFD7F8BC20D7F8C430D21AD7F8803026
:406100009A423FF6B9AED7F8BC30C7F8C430D7F8E020D7F8C430D0187B68B3F93820B7F9CE1097F8E43000930B46D7F8AC1007F061FE03461A46D7F8BC301344C7F8BC30BC
:40614000FB68B3F90030A7F8843097F8E43003F00403002B30D0D7F8E020D7F8C430D018D7F8BC309AB2D7F8C4309BB2D31A99B27B68B3F9382097F8E43000931346D7F8B7
:40618000AC2007F0C9FE0346A7F8A830F868FFF755FC03461A46B7F9A830D31ADA0F13445B101946B7F984309AB28BB213449BB21BB2A7F8843031E097F8E43003F0080363
:4061C000002B2BD0D7F8E020D7F8C430D018D7F8BC309AB2D7F8C4309BB2D31A99B27B68B3F9382097F8E43000931346D7F8AC2007F092FE0346A7F8A830F868FFF71EFCE8
:4062000003461A46B7F9A830D31AB7F9842092B29BB213449BB21BB2A7F88430B7F986309AB2B7F8AA3013449BB21BB2A7F88630B7F98620BB68B3F906309A420DDCD7F8A7
:40624000E020D7F8C43013441B78002B7FF4F8AD04E000BF02E000BF00E000BFD437BD4690BD00BF80B485B000AF0346FB710023FB73FB792F2B06D9FB79392B03D8FB79FF
:40628000303BFB732DE0FB79602B02D9FB79203BFB71FB79413B052B20D801A252F823F0B9620110BF620110C5620110CB620110D1620110D76201100A23FB7311E00B23AF
:4062C000FB730EE00C23FB730BE00D23FB7308E00E23FB7305E00F23FB7302E00023FB7300BFFB7B18461437BD465DF8047B704780B590B002AFF860B9607A603B603B6882
:40630000B3F94C30002B00F02781FB68B3F90020BB68B3F900309A4208D1FB68B3F90220BB68B3F902309A4200F01881FB68B3F900301A467B68B3F9003019463B68B3F9EC
:406340004C30CB1A9A420EDABB68B3F900301A467B68B3F9003019463B68B3F94C30CB1A9A42C0F2FD80FB68B3F900301A467B68B3F9043019463B68B3F94C300B449A4209
:406380000EDDBB68B3F900301A467B68B3F9043019463B68B3F94C300B449A4200F3E280FB68B3F902301A467B68B3F9023019463B68B3F94C30CB1A9A420EDABB68B3F922
:4063C00002301A467B68B3F9023019463B68B3F94C30CB1A9A42C0F2C780FB68B3F902301A467B68B3F9063019463B68B3F94C300B449A420EDDBB68B3F902301A467B687C
:40640000B3F9063019463B68B3F94C300B449A4200F3AC80FB68B3F900301A46BB68B3F90030D31A83EAE372A2EBE372FB68B3F902301946BB68B3F90230CB1A002BB8BFAF
:406440005B429A4229DDFB68B3F90020BB68B3F900309A4210DAFB68B3F900303B83FB68B3F902307B83BB68B3F90030BB82BB68B3F90230FB8239E0BB68B3F900303B83DD
:40648000BB68B3F902307B83FB68B3F90030BB82FB68B3F90230FB8228E0FB68B3F90220BB68B3F902309A4210DAFB68B3F900303B83FB68B3F902307B83BB68B3F9003068
:4064C000BB82BB68B3F90230FB820FE0BB68B3F900303B83BB68B3F902307B83FB68B3F90030BB82FB68B3F90230FB8207F1140207F1180107F11C03184600F0F5FCB7F9D7
:406500001E20B7F922309A4208D197F8403007F11C003A68796800F02DF828E0B7F91C20B7F920309A4208D197F8403007F11C003A68796800F098F819E0002387F83730FA
:4065400097F8371007F11C0097F8403000933B687A6800F003F90AE000BF08E000BF06E000BF04E000BF02E000BF00E000BF3837BD4680BD80B58AB000AFF860B9607A603E
:40658000FB707B68B3F94C309BB2013B9BB2FB84B7F926305B10BB84FB8C03F001037B84FB78FF2B03D17B6893F84E300BE07B6893F84E309AB2FB789BB212FB03F39BB253
:4065C0001B0A9BB2DBB287F82130FB68B3F900303B83FB68B3F90430BB83FB68B3F902309AB2BB8CD31A9AB27B8CD31A9BB21BB27B83FB68B3F906309AB2BB8C13449BB2B9
:406600001BB2FB83B7F91C20B7F918309342A8BF13461BB23B82B7F91C20B7F918309342B8BF13461BB2BB82B7F91E20B7F91A309342A8BF13461BB27B82B7F91E20B7F994
:406640001A309342B8BF13461BB2FB8297F821307A6807F11000926CB968FEF767FB00BF2837BD4680BD00BF80B58AB000AFF860B9607A60FB707B68B3F94C309BB2013B1C
:406680009BB2FB84B7F926305B10BB84FB8C03F001037B84FB78FF2B03D17B6893F84E300BE07B6893F84E309AB2FB789BB212FB03F39BB21B0A9BB2DBB287F82130FB681F
:4066C000B3F900309AB2BB8CD31A9BB21BB23B83FB68B3F904309AB2BB8C13449AB27B8C13449BB21BB2BB83FB68B3F902307B83FB68B3F90630FB83B7F91C20B7F9183051
:406700009342A8BF13461BB23B82B7F91C20B7F918309342B8BF13461BB2BB82B7F91E20B7F91A309342A8BF13461BB27B82B7F91E20B7F91A309342B8BF13461BB2FB8289
:4067400097F821307A6807F11000926CB968FEF7EDFA00BF2837BD4680BD00BF80B59AB002AFF8607A603B600B46FB7297F86830FF2B03D13B6893F84E300CE03B6893F891
:406780004E309AB297F868309BB212FB03F39BB21B0A9BB2DBB287F85630FB68B3F904309AB2FB68B3F900309BB2D31A9BB21BB2A7F84430FB68B3F906309AB2FB68B3F972
:4067C00002309BB2D31A9BB21BB2A7F84630FB681B7E002B25D0FB68B3F902301A46FB68B3F906301946FB7A0B449A420CDAB7F946309BB25B429BB21BB2A7F84030B7F92E
:406800004430A7F8423031E0B7F94630A7F84030B7F944309BB25B429BB21BB2A7F8423024E0FB68B3F900301A46FB68B3F904301946FB7A0B449A420CDAB7F94630A7F8C4
:406840004030B7F944309BB25B429BB21BB2A7F842300BE0B7F946309BB25B429BB21BB2A7F84030B7F94430A7F84230B7F940301B011BB2A7F84030B7F942301B011BB2F3
:40688000A7F842303B68B3F84C30A7F85E30B7F85E305B009BB2A7F85430B7F954309B001846FEF7F9F838650023A7F85C30B7F95E30002B51D00023BB820023FB8207F148
:4068C000400207F1140107F11803184600F00CFBB7F95E30B7F95E2002FB03F3FB640023A7F85C3032E0B7F95C309B003A6D1344B7F920201A80B7F95C309B003A6D13448F
:40690000B7F922205A80B7F92030B7F9202002FB03F2B7F92230B7F9221001FB03F31344BB64BA6CFB6C9A4204D3B7F85C30A7F85E3012E007F11803184600F061FBB7F956
:406940005C309BB201339BB2A7F85C30B7F95C20B7F95430013B9A42C5DB0023A7F85A300023A7F85830B7F95E30002B1ED0B7F95E3003F18043013B9B003A6D1344B3F917
:406980000030DA0F13445B10A7F85A30B7F95E3003F18043013B9B003A6D1344B3F90230DA0F13445B10A7F8583034E0FB681B7E002B14D0FB68B3F902301A46FB68B3F98A
:4069C00006301946FB7A0B449A4208DB3B6DB3F902309BB2013B9BB21AB23B6D5A80FB681B7E83F00103DBB2002B14D0FB68B3F900301A46FB68B3F904301946FB7A0B44C1
:406A00009A4208DB3B6DB3F900309BB2013B9BB21AB23B6D1A800023A7F85C302CE0B7F95C309B003A6D1344B7F95C209200396D0A44B2F9002091B2B7F85A208A1A92B22F
:406A400012B21A80B7F95C309B003A6D1344B7F95C209200396D0A44B2F9022091B2B7F858208A1A92B212B25A80B7F95C309BB201339BB2A7F85C30B7F95C20B7F95E30D5
:406A80009A42CCDBFB68B3F90030BB87FB68B3F90230FB87012387F85730FB681B7E002B00F09A8189E00023A7F85C3074E0BB8F1BB29AB2B7F95C309B00396D0B44B3F9CD
:406AC00000309BB213449BB21BB2BB86FB8F1BB29AB2B7F95C309B00396D0B44B3F902309BB213449BB21BB2FB86B7F934309AB2FB68B3F908309BB213449AB2BB8F1BB22D
:406B00009BB2D31A9BB2013B9BB21BB23B87B7F936307B8797F856303A6807F13400926C7968FEF703F9B7F95C30002B2DD0B7F95C309B003A6D1344B3F90020B7F95C30AA
:406B400003F18043013B9B00396D0B44B3F900309A421AD097F8573083F00103DBB2002B13D0B7F93400B7F936309AB2FB68B3F912309BB2D31A9BB219B23B6897F8562037
:406B800000929B6C7A68FEF739F8B7F95C309BB201339BB2A7F85C30B7F95C20B7F95E309A4284DB002387F85730FB68B3F90830BB87FB68B3F90A30FB87F86800F088FA0B
:406BC0000346002B7FF46FAF0023A7F85C3072E0BB8F1BB29AB2B7F95C309B00396D0B44B3F900309BB213449BB21BB2BB86FB8F1BB29AB2B7F95C309B00396D0B44B3F9CB
:406C000002309BB213449BB21BB2FB86B7F934309AB2FB68B3F908309BB213449AB2BB8F1BB29BB2D31A9BB21BB23B87B7F936307B8797F856303A6807F13400926C796845
:406C4000FEF774F8B7F95C30002B2DD0B7F95C309B003A6D1344B3F90020B7F95C3003F18043013B9B00396D0B44B3F900309A421AD097F8573083F00103DBB2002B13D025
:406C8000B7F93400B7F936309AB2FB68B3F912309BB2D31A9BB219B23B6897F8562000929B6C7A68FDF7AAFFB7F95C309BB201339BB2A7F85C30B7F95C20B7F95E309A42B0
:406CC00086DB0DE10023A7F85C3074E0BB8F1BB29AB2B7F95C309B00396D0B44B3F900309BB213449BB21BB2BB86FB8F1BB29AB2B7F95C309B00396D0B44B3F902309BB2FF
:406D000013449BB21BB2FB86B7F934303B87B7F936309AB2FB68B3F90A309BB213449AB2FB8F1BB29BB2D31A9BB2013B9BB21BB27B8797F856303A6807F13400926C7968F8
:406D4000FDF7F4FFB7F95C30002B2DD0B7F95C309B003A6D1344B3F90220B7F95C3003F18043013B9B00396D0B44B3F902309A421AD097F8573083F00103DBB2002B13D09A
:406D8000B7F934309AB2FB68B3F90E309BB2D31A9BB218B2B7F936103B6897F8562000929B6C7A68FDF72AFFB7F95C309BB201339BB2A7F85C30B7F95C20B7F95E309A4224
:406DC00084DB002387F85730FB68B3F90830BB87FB68B3F90A30FB87F86800F097F90346002B7FF46FAF0023A7F85C3072E0BB8F1BB29AB2B7F95C309B00396D0B44B3F957
:406E000000309BB213449BB21BB2BB86FB8F1BB29AB2B7F95C309B00396D0B44B3F902309BB213449BB21BB2FB86B7F934303B87B7F936309AB2FB68B3F90A309BB2134472
:406E40009AB2FB8F1BB29BB2D31A9BB21BB27B8797F856303A6807F13400926C7968FDF765FFB7F95C30002B2DD0B7F95C309B003A6D1344B3F90220B7F95C3003F1804305
:406E8000013B9B00396D0B44B3F902309A421AD097F8573083F00103DBB2002B13D0B7F934309AB2FB68B3F90E309BB2D31A9BB218B2B7F936103B6897F8562000929B6C05
:406EC0007A68FDF79BFEB7F95C309BB201339BB2A7F85C30B7F95C20B7F95E309A4286DB00BF6037BD4680BD80B485B000AFF860B9607A60BB68B3F90020FB681A80BB683F
:406F0000B3F90220FB685A807B68B3F90020FB689A807B68B3F90220FB68DA80FB68B3F904301A46FB68B3F90030D31A002BB8BF5B421AB2FB689A81FB68B3F90020FB68C2
:406F4000B3F904309A4201DA012201E04FF0FF32FB68DA81FB68B3F906301A46FB68B3F90230D31A002BB8BF5B421AB2FB681A82FB68B3F90220FB68B3F906309A4201DA3E
:406F8000012201E04FF0FF32FB685A82FB68B3F90C20FB68B3F910309A4207DDFB68B3F90C30DA0F13445B101BB207E0FB68B3F910305B42DA0F13445B101BB2FA6893824F
:406FC000FB680022DA82FB68B3F90C20FB68B3F910309A42CCBF01230023DAB2FB681A76FB68B3F90020FB681A81FB68B3F90220FB685A8100BF1437BD465DF8047B7047C5
:4070000080B483B000AF78607B68B3F908207B68B3F904309A4209D17B68B3F90A207B68B3F906309A4201D100234BE07B68B3F914207B68DA827B68B3F916301A467B689E
:40704000B3F90C305B429A4219DD7B68B3F914309AB27B68B3F910309BB2D31A9BB21AB27B689A827B68B3F908309AB27B68B3F90E309BB213449BB21AB27B681A817B687B
:40708000B3F916207B68B3F910309A4219DA7B68B3F914309AB27B68B3F90C309BB213449BB21AB27B689A827B68B3F90A309AB27B68B3F912309BB213449BB21AB27B6824
:4070C0005A81012318460C37BD465DF8047B704780B584B000AF78607B685B89FB817868FFF78EFF034683F00103DBB2002B01D0002307E07B68B3F90A30B7F90E209A42F6
:40710000EDD0012318461037BD4680BD80B584B000AF78607B681B89FB817868FFF770FF034683F00103DBB2002B01D0002307E07B68B3F90830B7F90E209A42EDD001239C
:4071400018461037BD4680BD80B487B000AFF860B9601346FB71BB7B9AB2FB799BB212FB03F39AB2BB7A99B2FB79C3F1FF039BB211FB03F39BB213449BB21B0A9BB2DBB25F
:40718000BB757B7B9AB2FB799BB212FB03F39AB27B7A99B2FB79C3F1FF039BB211FB03F39BB213449BB21B0A9BB2DBB27B753B7B9AB2FB799BB212FB03F39AB23B7A99B2A2
:4071C000FB79C3F1FF039BB211FB03F39BB213449BB21B0A9BB2DBB23B75FF23FB757B6918461C37BD465DF8047B704780B582B000AF7860396008223968786819F0FAF993
:4072000000BF0837BD4680BD80B483B000AF78607B68B3F904309AB27B68B3F900309BB2D31A9BB201339BB21BB218460C37BD465DF8047B704700BF80B483B000AF7860A3
