:020000041001E9
:4000000000780408EB0201100D00000051030110510301105103011051030110000000000000000000000000000000004D0301104D030110000000004D0301104D03011019
:400040004D0301104D0301104D0301104D0301104D0301104D0301104D0301104D0301104D0301104D0301104D0301104D0301104D0301104D0301104D0301104D03011070
:400080004D0301104D0301104D0301104D0301104D0301104D0301104D0301104D0301104D0301104D0301104D0301104D0301104D0301104D0301104D0301104D03011030
:4000C0004D0301104D0301104D0301104D0301104D0301104D0301104D0301104D0301104D0301104D0301104D0301104D0301104D0301104D0301104D0301104D030110F0
:400100004D0301104D0301104D0301104D0301104D0301104D0301104D0301104D0301104D0301104D0301104D0301104D0301104D0301104D0301104D0301104D030110AF
:400140004D0301104D0301104D0301104D0301104D0301104D0301104D0301104D0301104D0301104D0301104D0301104D0301104D0301104D0301104D0301104D0301106F
:400180004D0301104D0301104D0301104D0301104D0301104D0301104D0301104D0301104D0301104D0301104D0301104D0301104D0301104D0301104D0301104D0301102F
:4001C0004D0301104D0301104D0301104D0301104D0301104D0301104D0301104D0301104D0301104D0301104D0301104D0301104D0301104D0301104D0301104D030110EF
:400200004D0301104D0301104D0301104D0301104D0301104D0301104D0301104D0301104D0301104D0301104D0301104D0301104D0301104D0301104D0301104D030110AE
:400240004D0301104D0301104D0301104D0301104D0301104D0301104D0301104D0301104D0301104D0301104D0301104D0301104D0301104D0301104D0301104D0301106E
:400280004D0301104D0301104D03011010B5054C237833B9044B13B10448AFF300800123237010BD8C4C020800000000E4920210084B10B51BB108490848AFF30080084818
:4002C000036803B910BD074B002BFBD0BDE81040184700BF00000000904C0208E492021070430208000000007047FFF7FDFF72B6104C114DAC4209DA21686268A368043B8B
:40030000A2BFC858D050FAE70C34F3E70B490C4A00209142BCBF41F8040BFAE709480A490860BFF34F8F0BF003FB0BF053F90AF0E3FFFEE7E8920210009302108C4C020830
:40034000807303080040020808ED00E0FEE7FEE700B504207146084202D0EFF3098001E0EFF3088004300CF0B3FBFEE780B582B000AF78607B68002B02D107F0C3FE786012
:400380007B68002B01D1002301E07B681B6B18460837BD4680BD00BF80B582B000AF78607B68002B02D107F0ADFE78607B68002B01D1002301E07B685B6B18460837BD46DE
:4003C00080BD00BF80B582B000AF78607B68002B02D107F097FE78607B68002B01D1002301E07B689B6B18460837BD4680BD00BF80B500AF002000F0B1F800BF80BD00BF0D
:4004000090B589B000AF78607B68DB684B4A13604A4B1B68DB68002B00F08980474B1B68184600F067FD454B1B6893F84C3003F00403DBB2002B7CD1404B1B6807F10C0216
:400440001146184607F0EAFF0346FB773B4B1B68184600F04FFD3A4B00221A60374B1B68BA7E1A77354B1B681B7F012B08D1334B1B68DC6808F01EF80346C4F8603110E01F
:400480002E4B1B681B78042B0BD1B7F91830002B07D02A4B1B68DC6808F00CF80346C4F86031264B1B681B78012B08D1234B1B6807F10C021146184600F076F828E01F4BD2
:4004C0001B681B78022B08D11C4B1B6807F10C021146184600F0B4F81AE0184B1B681B78042B08D1154B1B6807F10C021146184600F0B2F80CE0114B1B681B78032B07D188
:400500000E4B1B6807F10C021146184600F0B0F80A4B1B68184600F0EDFCFB7F002B8BD1064B00221A60064B00221A6002E000BF00E000BF2437BD4690BD00BFA84C0208FA
:40054000AC4C020880B400AF034B1B681846BD465DF8047B704700BFA84C020880B584B000AF78607B68002B07D07A6892F84C3043F0020382F84C3012E0002007F036FFF3
:40058000F8600AE0FA6892F84C3043F0020382F84C30F86807F02AFFF860FB68002BF1D100BF1037BD4680BD80B582B000AF786039607B681B6D002B1AD07B68B3F924201B
:4005C0003B68B3F900309A4207D17B68B3F926203B68B3F902309A420AD07B68186D3B68B3F900103B68B3F902301A4601F000FC3B68B3F900207B681A843B68B3F90220C6
:400600007B685A847B681B7F012B05D17B681C33184600F073F804E07B681C33184600F0F9FA7B68B3F920207B689A847B68B3F922207B68DA8400BF0837BD4680BD00BF59
:4006400080B483B000AF7860396000BF0C37BD465DF8047B704700BF80B483B000AF7860396000BF0C37BD465DF8047B704700BF80B582B000AF786039607B689A6D3B68BA
:400680009B689B001344B3F900207B681A847B689A6D3B689B689B001344B3F902207B685A847B68B3F924207B68B3F920309A4211D17B68B3F926207B68B3F922309A42E5
:4006C00009D13B689B7B012B05D17B681C33184600F014F804E07B681C33184600F09AFA7B68B3F920207B689A847B68B3F922207B68DA8400BF0837BD4680BD80B588B054
:4007000000AF78607B689B697C4A13607B6893F8303003F00803DBB2002B40F05D82784B1B68DB683B610023FB77744B1B68002B2BD13869FFF746FE03461946786800F009
:4007400027FC02466D4B1A606C4B1B68002B0AD13869FFF721FE03461946786800F018FC0246664B1A60654B1B68002B0AD13869FFF7FCFD03461946786800F009FC024659
:400780005E4B1A600123FB773EE07B6893F8243003F00203DBB2002B36D1584B1B681021184601F08FFE034683F00103DBB2002B2AD03869FFF706FE03461946786800F031
:4007C000E7FB02464D4B1A604C4B1B68002B0AD13869FFF7E1FD03461946786800F0D8FB0246464B1A60454B1B68002B0AD13869FFF7BCFD03461946786800F0C9FB02469D
:400800003E4B1A600123FB77FB7F002B0CD07B68DB69002B08D07B6800229A827B680022DA82786800F092FD7B689A69334B1B689A4200F09C807B68B3F904207B681A8193
:400840007B68B3F906207B685A817B689B69002B1CD07B689B69FB60FB68DB69284A12680A21F8689847786800F0B2FE0346002B40F0B48100220221F86801F0CBFB786833
:4008800000F0A6FE0346002B40F0AA811B4B1A687B689A61194B1A687B68DA61174B1B68002B64D007F006FE02467B689A627A6892F830306FF3000382F830307A6892F82E
:4008C00024306FF3000382F824307A6892F824306FF3410382F824307B6800221A827B6800225A827B6800229A817B680022DA81024B1B68BB6100237B6111E0AC4C02085D
:40090000A84C0208BB6993F82C3003F02003DBB2002B01D0BB697B61B86901F061FCB861BB69002BEED17B69002B02D0786901F035FAAC4B1B68DB69AA4A1068AA4A1268FF
:4009400008219847786800F043FE0346002B40F04D81A44B1B6800220021184601F05AFB786800F035FE0346002B40F041817B68B3F904309AB27B68B3F908309BB2D31A1A
:400980009BB21AB27B689A817B68B3F906309AB27B68B3F90A309BB2D31A9BB21AB27B68DA817B68B3F914301A4613469B001344DB101AB27B689A827B68B3F916301A464C
:4009C00013469B001344DB101AB27B68DA827B68B3F91430002B09DA7B68B3F914309BB201339BB21AB27B689A820DE07B68B3F91430002B08DD7B68B3F914309BB2013B3D
:400A00009BB21AB27B689A827B68B3F91630002B09DA7B68B3F916309BB201339BB21AB27B68DA820DE07B68B3F91630002B08DD7B68B3F916309BB2013B9BB21AB27B68E1
:400A4000DA827B68B3F914309AB27B68B3F90C309B00DB109BB213449BB21AB27B689A827B68B3F916309AB27B68B3F90E309B00DB109BB213449BB21AB27B68DA82594BDA
:400A80001B68002B00F0C380564B1B68DB69554A1068554A126809219847786800F098FD0346002B40F0A6804E4B1B6800220121184601F0AFFA786800F08AFD0346002B62
:400AC00040F09A80786800F0B7FA786800F080FD0346002B40F092807B6893F8243003F00203DBB2002B3AD17B6893F8303003F00103DBB2002B32D17B689B6A184607F0EE
:400B0000F3FC0246384B1B68DB8A9A4227D9354B1B68DB69334A1068334A12680C219847786800F055FD0346002B69D12D4B1B6800220421184601F06DFA786800F048FD1B
:400B40000346002B5ED17A6892F8303043F0010382F8303007F0AEFC02467B68DA627B6893F8243003F00203DBB2002B4FD17B6893F8303003F00103DBB2002B47D07B68E4
:400B8000DB6A184607F0B0FC0246174B1B681B8B9A423CD9134B1B68DB69124A1068124A12680D219847786800F012FD0346002B2AD10C4B1B6800220521184601F02AFA6C
:400BC000786800F005FD0346002B1FD107F072FC02467B68DA621AE000BF18E000BF16E000BF14E0AC4C0208A84C020800BF0EE000BF0CE000BF0AE000BF08E000BF06E08D
:400C000000BF04E000BF02E000BF00E000BF2037BD4680BD80B584B000AF78607B6893F8303003F00803DBB2002B12D07B6800229A617B680022DA617B6800229A627B6801
:400C40000022DA627A6892F830306FF3C30382F830307B689B69A54A1360A44B1B68002B00F01481A14B1B681021184601F02AFC0346002B49D09D4B1B68DB699B4A10682F
:400C80009B4A12680B219847786800F0A1FC0346002B40F010817B6893F8243003F00203DBB2002B23D17B6893F8303003F00103DBB2002B0DD18D4B1B6800220321184668
:400CC00001F0A8F9786800F083FC0346002B40F0F480864B1B6800220621184601F09AF9786800F075FC0346002B40F0E8807F4B1B6800220721184601F08CF9786800F0F4
:400D000067FC0346002B52D0ECE0784B1B68DB69764A1068764A12680B219847786800F057FC0346002B40F0CC807B6893F8303003F00103DBB2002B15D17B6893F82430AF
:400D400003F00203DBB2002B0DD1684B1B6800220321184601F05EF9786800F039FC0346002B40F0B0807B6893F8243003F00203DBB2002B0DD15D4B1B68002206211846C8
:400D800001F048F9786800F023FC0346002B40F09C80564B1B6800220721184601F03AF9786800F015FC0346002B40F09080786800F00EFC0346002B40F08B800023FB72B4
:400DC0007B681A6A494B1B689A4223D0FB7A83F00103DBB2002B1DD07B681B6A00220D21184601F017F9786800F0F2FB0346002B71D17B689B6900220C21184601F00AF903
:400E0000786800F0E5FB0346002B66D1374B1A687B681A62786800F0DBFB0346002B5ED1324B1B68FB6003E0F86801F0D9F9F860F86801F005FB0346002B02D0FB68002BCD
:400E4000F2D1FB68002B18D0F86801F0E3FA0346002B12D07B6893F8243003F00203DBB2002B0AD000220A21F86801F0D3F8786800F0AEFB0346002B33D17B6800229A610F
:400E80007B6800229A627B680022DA627B68DB69002B27D07B6893F8303003F00203DBB2002B1FD1786800F051FA786800F090FB0346002B16E000BF14E000BF12E000BF36
:400EC00010E000BF0EE000BF0CE000BF0AE000BF08E000BF06E000BF04E000BF02E000BF00E000BF1037BD4680BD00BFAC4C0208A84C020880B483B000AF78607B6893F871
:400F00004C3003F00203DBB2002B39D07B6800225A637B6800229A637B680022DA637A6892F840306FF3000382F840307A6892F840306FF3410382F840307A6892F84C30F7
:400F40006FF3000382F84C307B6800225A647B6800229A647B6800229A857B680022DA857B6800221A867B6800225A867A6892F84C306FF3410382F84C30044B00221A60CF
:400F800000BF0C37BD465DF8047B7047AC4C020880B586B000AF7860396000237B613B6803F110027B6804331946104607F0BEFC0346002B3AD03B680433184608F020F826
:400FC00038610EE039697868FFF7E2FF78617B69002B0AD13B6804333969184608F038F838613B69002BEDD100E000BF7B69002B1CD1386801F0D2F90346002B16D03B6832
:40100000FB6009E0F86801F0B3F90346002B07D1F86801F0E5F8F860FB68002BF2D100E000BFFB68002B01D13B687B617B6918461837BD4680BD00BF80B58AB000AF786048
:401040007B689B697B62002387F8233003E0786A01F0C6F87862786A01F0F2F90346002B02D07B6A002BF2D17B6A002B00F06281786A01F0A9F9034683F00103DBB2002BC2
:4010800040F05A81786A01F0B5F903467B777B68B3F910309AB27B68B3F90C309BB213449BB21AB27B681A827B68B3F912309AB27B68B3F90E309BB213449BB21AB27B68BD
:4010C0005A827B6893F8243003F00103DBB2002B29D17B7F03F00103002B0AD07B68B3F91030002BB8BF5B42974A1268127D93420FDA7B7F03F00203002B14D07B68B3F96D
:401100001230002BB8BF5B428F4A1268127D934209DB7A6892F8243043F0010382F82430012387F823307B6893F8243003F00103DBB2002B00F005817B68B3F90C30002BFB
:4011400005D17B68B3F90E30002B00F0FA807E4B1B68DB68184607F065F803467B837B6A1B8A3B837B6A5B8AFB82786A01F038F80346184601F0AEF80346BB82786A01F086
:401180002FF80346184601F0B3F803467B82786A01F060F803463B84786A01F07BF80346FB837B7F032B28D197F82330002B0FD07B68B3F910309AB23B8C13449BB23B84ED
:4011C0007B68B3F912309AB2FB8B13449BB2FB837B68B3F90C309AB23B8C13449BB219B27B68B3F90E309AB2FB8B13449BB21BB21A46786A00F0FCFD3AE07B7F03F0010397
:40120000002B18D097F82330002B07D07B68B3F910309AB23B8C13449BB23B847B68B3F90C309AB23B8C13449BB21BB21946786A00F06AFE1CE07B7F03F00203002B17D08A
:4012400097F82330002B07D07B68B3F912309AB2FB8B13449BB2FB837B68B3F90E309AB2FB8B13449BB21BB21946786A00F062FE7B6AB3F91030B7F918209A4237D17B6AA2
:40128000B3F91230B7F916209A4230D1786A00F0A7FF0346184601F01DF803463B82786A00F09EFF0346184601F022F80346FB81B7F91020B7F914309A423FD1B7F90E20CE
:4012C000B7F912309A4239D11F4B1B68DB68184606F0A8FF0346BB811B4B1B68D868BA897B8BD31A9BB2194606F0ACFF26E07A6892F8243043F0020382F8243097F823300C
:40130000002B1ED07B6ADB690F4A12680E21786A9847786800F05CF90346002B10D100220821786A00F076FE786800F051F90346002B06E000BF04E000BF02E000BF00E046
:4013400000BF2837BD4680BDA84C020880B58AB000AF78607B6893F8243003F00203DBB2002B00F023817B68DB697B6203E0786A00F036FF7862786A01F062F80346002BAC
:4013800002D07B6A002BF2D17B6A002B00F01081786A01F03FF8034683F00103DBB2002B1FD07A6892F824306FF3410382F824307B6ADB69844A12680F21786A98470022CE
:4013C0000921786A00F026FE786800F001F90346002B40F0EF8000220921786A00F01AFEEFE0786A01F006F8034687F823307B68B3F914301A46744B1B685B7DC3F1640397
:4014000003FB02F3714A82FB03125211DB17D31A1AB27B689A827B68B3F916301A466A4B1B685B7DC3F1640303FB02F3674A82FB03125211DB17D31A1AB27B68DA827B6899
:40144000B3F91430002B05D17B68B3F91630002B00F08D8007F114031946786A00F0EAFE786A00F0F7FE03469AB27B68B3F914309BB213449BB23B84786A00F00BFF034652
:401480009AB27B68B3F916309BB213449BB2FB8397F82330032B08D1B7F91E20B7F920301946786A00F0A4FC18E097F8233003F00103002B06D0B7F920301946786A00F0F1
:4014C00023FD0BE097F8233003F00203002B05D0B7F91E301946786A00F02CFD07F10C031946786A00F0A6FEB7F91420B7F90C309A4204D07B68B3F91430002B5CD1B7F978
:401500001620B7F90E309A4204D07B68B3F91630002B51D17A6892F824306FF3410382F824307B6800229A817B680022DA817B6800229A827B680022DA827B6ADB69224AEA
:4015400012680F21786A9847786800F041F80346002B33D100220921786A00F05BFD786800F036F80346002B26D000BF29E07A6892F824306FF3410382F824307B6ADB697C
:40158000114A12680F21786A9847786800F020F80346002B14D100220921786A00F03AFD786800F015F80346002B0AE000BF08E000BF06E000BF04E000BF02E000BF00E065
:4015C00000BF2837BD4680BDA84C02081F85EB5180B483B000AF78607B6893F8303003F00203DBB2002B02D0094B00221A607B6893F8303003F00203DBB2002B14BF01230C
:401600000023DBB218460C37BD465DF8047B7047AC4C020880B582B000AF786039600822396878680EF02EF900BF0837BD4680BD80B483B000AF78607B68B3F904309AB237
:401640007B68B3F900309BB2D31A9BB201339BB21BB218460C37BD465DF8047B704700BF80B483B000AF78607B68B3F906309AB27B68B3F902309BB2D31A9BB201339BB220
:401680001BB218460C37BD465DF8047B704700BF80B500AF114B1B78002B1DD107F0A4FD07F046FF06F03CFF01F0BAFE01F0F8F84FF4B2710A4807F01DFB5C21094807F068
:4016C00019FBFEF795FE05F02DF9012005F060F8024B01221A7000E000BF80BDB04C0208907203088072030890B587B000AF7860396000237B617B68002B40F0B68006F0DA
:4017000001FD38613B69002B01D1002364E23B692433184607F00EFB78617B69002B01D1002359E27B6900221A607B6904334021184607F0DFFA7B69874ADA617B69874AC8
:401740001A627B6900229A617B6900221A827B6900225A82002006F0E1FC03469BB2013B9BB21AB27B699A82002006F0F9FC03469BB2013B9BB21AB27B69DA827B6900224E
:401780001A867B69002283F83C207B6900221A877B6900225A877B6900225A637A6992F83D306FF3000382F83D3008F02FF8F860FB68002B04D0FB681A687B699A6202E0B5
:4017C0007B69674A9A627A6992F82C306FF3000382F82C307A6992F82C306FF3410382F82C307A6992F82C306FF3820382F82C307A6992F82C306FF3C30382F82C307A69DF
:4018000092F82C306FF3041382F82C307A6992F82C306FF3451382F82C307B69002283F82E207A6992F82C306FF3861382F82C307B69FF2283F82F207A6992F82C306FF3B7
:40184000C71382F82C307A6992F82D306FF3830382F82D307A6992F82D306FF3061382F82D307B6900225A62D0E07B680433184607F060FA78617B69002B01D10023ABE16F
:401880007B697A681A607B6904334021184607F031FA7B69304ADA617B69304A1A627B6900229A617A6992F82D306FF3830382F82D307B68B3F912207B695A827B68B3F9DF
:4018C00012309BB264339BB21AB27B69DA82786900F0CCFD0346012B0ED17B68B3F914207B699A827B68B3F914309BB2963B9BB21AB27B691A820DE07B68B3F910207B699E
:401900001A827B68B3F910309BB296339BB21AB27B699A827B6900221A867B69002283F83C207B6900221A877B6900225A877B6900225A637A6992F83D306FF3000382F880
:401940003D3007F063FFB860BB68002B0AD0BB689A687B699A6208E05526011039250110847103087B699E4A9A627A6992F82C3043F0010382F82C307A6992F82C306FF3B0
:40198000410382F82C307A6992F82D3043F0030382F82D307A6992F82C306FF3820382F82C307A6992F82C306FF3C30382F82C307A6992F82C306FF3041382F82C307A69EB
:4019C00092F82C306FF3451382F82C307B69002283F82E207B69FF2283F82F207A6992F82C306FF3861382F82C307A6992F82C306FF3C71382F82C307A6992F82D306FF332
:401A0000061382F82D307B6900225A623B68002B00F0D5807B6903F110023B68103319461046FFF7F7FD3B68B3F930207B691A863B6893F83C207B6983F83C203B68B3F9BB
:401A400038207B691A873B68B3F93A207B695A873B685A6B7B695A633B6893F83D30C3F30003D9B27A6992F83D3061F3000382F83D303B689A697B699A613B6893F82C300C
:401A8000C3F30003D9B27A6992F82C3061F3000382F82C303B6893F82C30C3F34003D9B27A6992F82C3061F3410382F82C303B6893F82D30C3F30103D9B27A6992F82D300D
:401AC00061F3010382F82D303B6893F82C30C3F38003D9B27A6992F82C3061F3820382F82C303B6893F82C30C3F3C003D9B27A6992F82C3061F3C30382F82C303B6893F87C
:401B00002C30C3F30013D9B27A6992F82C3061F3041382F82C303B6893F82C30C3F34013D9B27A6992F82C3061F3451382F82C303B6893F82C30C3F3C013D9B27A6992F877
:401B40002C3061F3C71382F82C303B6893F82C30C3F38013D9B27A6992F82C3061F3861382F82C303B6893F82E207B6983F82E203B6893F82F207B6983F82F203B689A6A20
:401B80007B699A62386800F02BFB0346002B11D07B68002B0ED0386800F05CFB03461C46386800F077FB03461A462146786900F01FF904E000220021786900F019F97B68D4
:401BC000002B08D07B68DB697A69012178689847786900F0A9F87B6918461C37BD4690BD2472030880B58CB000AF78603960786800F0BEFB0346002B40F08E80786800F063
:401C0000A1FA7862786A00F0B1FA3862386AFEF7ADFB02467B6A9A420DD0386AFEF7BCFB02467B6A9A4206D0386AFEF7CBFB02467B6A9A4275D17B681B8EFB837B6803F139
:401C4000100207F1140311461846FFF7E3FCB7F914309AB2FB8BD31A9BB21BB2BB82B7F916309AB2FB8BD31A9BB21BB2FB82B7F918309AB2FB8B13449BB21BB23B83B7F9BA
:401C80001A309AB2FB8B13449BB21BB27B8307F1140207F10C033968184606F0B9FD034687F82F3097F82F3083F00103DBB2002B34D1786800F094FAB8621DE0BB6A03F102
:401CC000100207F10C0107F10C03184606F0A0FD034687F82F3097F82F3083F00103DBB2002B0DD1B86A00F043FB0346002B17D1B86A00F075FAB862BB6A002BDED100E08D
:401D000000BF97F82F30002B0BD007F10C031946386A00F0CDFD04E000BF02E000BF00E000BF3037BD4680BD80B586B000AF78607B681B8EFB827B6803F1100207F10C03B9
:401D400011461846FFF766FCB7F90C309AB2FB8AD31A9BB21BB2BB81B7F90E309AB2FB8AD31A9BB21BB2FB81B7F910309AB2FB8A13449BB21BB23B82B7F912309AB2FB8A62
:401D800013449BB21BB27B8207F10C0319467868FFF728FF00BF1837BD4680BD80B584B000AF7860786800F01BFAF860FB680433184607F025F902467B689A4214D0F8687F
:401DC000FFF7B2FFFB68181DFB68191D01237A6807F0C0F8FB68DB697A680121F8689847F868FFF7A1FF00E000BF1037BD4680BD80B586B000AF78600B467B8013463B80FE
:401E00007B681B687B617B69B3F910309AB27B8813449BB27B807B69B3F912309AB23B8813449BB23B807A887B68B3F910309BB2D31A9BB21BB23B823A887B68B3F91230ED
:401E40009BB2D31A9BB21BB27B82B7F91030002B03D1B7F91230002B51D07868FFF764FF07F108031946786800F0E4F97B68B3F910309AB2B7F910309BB213449BB21AB2D4
:401E80007B681A827B68B3F912309AB2B7F912309BB213449BB21AB27B685A827B68B3F914309AB2B7F910309BB213449BB21AB27B689A827B68B3F916309AB2B7F912303A
:401EC0009BB213449BB21AB27B68DA82B7F91030B7F912201946786800F0FEFB7B68DB6907F108020221786898477B69DB697A680121786998477868FFF716FF00E000BF6B
:401F00001837BD4680BD00BF80B582B000AF78600B467B80786800F0BDF903461A46B7F9023019467868FFF763FF00BF0837BD4680BD00BF80B582B000AF78600B467B803A
:401F4000786800F087F903461946B7F902301A467868FFF74DFF00BF0837BD4680BD00BF80B582B000AF786039607B683A689A62786800F02BFC786800F004F800BF08373F
:401F8000BD4680BD80B582B000AF78607868FFF7CBFE7B68DB6900220421786898477868FFF7C2FE00BF0837BD4680BD80B584B000AF7860002006F011F9F86023E0FB6885
:401FC0002433184607F01CF8B86015E0BB689A6A7B689A4202D07B68002B02D1B868FFF7D1FFB968786800F0C5FBFB682433B968184607F02DF8B860BB68002BE6D1F86812
:4020000006F0ECF8F860FB68002BD8D100BF1037BD4680BD80B586B000AFF8600B467A60FB72FB68002B01D1012309E0FB689869FA7A7B68F96800F007F80346FB75FB7D3E
:4020400018461837BD4680BD80B58AB000AFF860B9603B601346FB71BB683B6100233B750023BB612B4B1B68002B02D0294B1B68BB61284A07F110031360274B1B687B62E8
:40208000254A3B681360FEF75DFA38623B6A002B09D03B6A9B68002B05D03B6A9B683A6AF97910469847FB68002B04D0FA79FB681146B8689847184A7B6A1360154B1B6846
:4020C0009B68144A13603B7D002B01D000231DE0BB68002B19D0BB6893F82C3023F07F03DBB2002B11D0BB681B68002B0DD0BB681B68F9793A681846FFF78CFF0346FB77C7
:40210000FB7F012B01D0002300E0012318462837BD4680BDB44C0208B84C020880B582B000AF78607B6800221A867B68DB6900220621786898477868FFF7F6FD00BF083763
:40214000BD4680BD80B584B000AF78607B68FB60FB68BB60B86800F043F8F860FB68002BF6D1BB6818461037BD4680BD80B586B000AF78607B681B68002B02D17B687B615E
:4021800003E07868FFF7DEFF7861144806F038FF38611BE03B692433184606F031FFF8600CE0FA687B699A4201D13B6912E03B692433F968184606F04BFFF860FB68002B66
:4021C000EFD13969054806F043FF38613B69002BE0D1002318461837BD4680BD9072030880B483B000AF78607B681B6818460C37BD465DF8047B704780B584B000AF78604F
:4022000039600023FB603B68002B06D17B680433184606F0F5FEF86006E07B6804333968184606F015FFF860FB6818461037BD4680BD00BF80B582B000AF786039607B6857
:40224000103319463868FFF7E5F900BF0837BD4680BD00BF80B584B000AF78607868FFF7BFFFB860BB68002B0BD07B68B3F910309AB2BB68B3F910309BB2D31A9BB2FB8159
:4022800002E07B681B8AFB81B7F90E3018461037BD4680BD80B584B000AF78607868FFF79FFFB860BB68002B0BD07B68B3F912309AB2BB68B3F912309BB2D31A9BB2FB818F
:4022C00002E07B685B8AFB81B7F90E3018461037BD4680BD80B582B000AF78607B6810331846FFF7A5F9034618460837BD4680BD80B582B000AF78607B6810331846FFF751
:40230000AFF9034618460837BD4680BD80B485B000AF78607B689B6AFB60FB68002B19D17B681B68BB6012E0BB689B6A002B0BD0BB689B6A1B7803F00103DBB2002B03D145
:40234000BB689B6AFB6005E0BB681B68BB60BB68002BE9D1FB68002B01D1044BFB60FB6818461437BD465DF8047B7047E470030880B483B000AF78607B6893F82C3003F07E
:402380001003DBB2002B14BF01230023DBB218460C37BD465DF8047B704700BF80B483B000AF78607B6893F82C3003F00103DBB2002B14BF01230023DBB218460C37BD460B
:4023C0005DF8047B704700BF80B483B000AF78607B6893F82C3003F00203DBB2002B14BF01230023DBB218460C37BD465DF8047B704700BF80B483B000AF78607B6893F83A
:402400002D30C3F30103DBB218460C37BD465DF8047B704780B483B000AF78607B6893F82C3003F00403DBB2002B14BF01230023DBB218460C37BD465DF8047B704700BFCA
:4024400080B483B000AF78607B6893F82C3003F00803DBB2002B14BF01230023DBB218460C37BD465DF8047B704700BF80B483B000AF7860002318460C37BD465DF8047BD0
:40248000704700BF80B584B000AF78607B68FB600FE0FB6893F82C3003F04003DBB2002B03D0FB6893F82F3007E0F868FFF798FEF860FB68002BECD1FF2318461037BD46F1
:4024C00080BD00BF80B483B000AF78600B46FB707B6893F82E20FB781340DBB2002B14BF01230023DBB218460C37BD465DF8047B704700BF80B485B000AF786039600023BB
:40250000FB7308E0FA7B7B6853F82230002B06D0FB7B0133FB73FB7B062BF3D900E000BFFA7B7B68396843F82210012318461437BD465DF8047B704790B58BB000AFF860DD
:40254000B9601346FB71FB79022B6AD1FB6810331946B86806F048FA034683F00103DBB2002B01D0002370E0F868FFF7CFFE78627B6A9B7BFA2B01D8002366E07B6A9B8920
:402580007B84B7F9223047F61842934201D100235BE007F114031946F868FFF74BFEB7F914309AB27B8C13449BB21BB2BB82B7F918309AB27B8CD31A9BB21BB23B8307F174
:4025C00014031946B86806F00FFA034683F00103DBB2002B01D0002337E007F114031946F868FFF727FEB7F916309AB27B8C13449BB21BB2FB82B7F91A309AB27B8CD31A69
:402600009BB21BB27B8307F114031946B86806F0EBF9034683F00103DBB2002B14D0002313E0FB79002B0FD1F868FFF76FFEF861FB6803F11004F868FFF724FF0346FA697D
:40264000B968204601F056FD012318462C37BD4690BD00BF80B586B000AFF8600B467A60FB72FB7A072B05D11A497868FFF742FF03462AE00123FB75FB7A012B09D1012116
:40268000F868FFF71FFF0346002B1DD00023FB751AE0FB7A062B11D1F868FFF737FE38613B69B3F91C20FB68B3F930309A420BDD3B69B3F91C20FB681A8605E0FB7A042B35
:4026C00002D1F868FFF72AFDFB7D18461837BD4680BD00BFDC01021080B584B000AF78600B467B8013463B807B680433184606F087FCF86036E0FB68B3F910309AB27B882A
:4027000013449BB21AB2FB681A82FB68B3F912309AB23B8813449BB21AB2FB685A82FB68B3F914309AB27B8813449BB21AB2FB689A82FB68B3F916309AB23B8813449BB282
:402740001AB2FB68DA82B7F90020B7F902301946F868FFF7C1FF7B680433F968184606F077FCF860FB68002BC5D100BF1037BD4680BD00BF80B584B000AF786039603B68B8
:402780000433184606F03CFCF86018E0FB689A6A7B689A4202D07B68002B05D1F86800F015F8F868FFF7EEFBF9687868FFF7E2FF3B680433F968184606F04AFCF860FB68E6
:4027C000002BE3D100BF1037BD4680BD80B584B000AF786000217868FFF70EFDF8601AE0FB689B6A002B06D1F868FFF7EFFFF868FFF7C8FB0AE0FB689B6A1B7803F00103CD
:40280000DBB2002B02D0F868FFF7E0FFF9687868FFF7F2FCF860FB68002BE1D100BF1037BD4680BD80B582B000AF786039600822396878680DF026F800BF0837BD4680BD4B
:4028400080B483B000AF78607B68B3F904309AB27B68B3F900309BB2D31A9BB201339BB21BB218460C37BD465DF8047B704700BF80B483B000AF78607B68B3F906309AB2DA
:402880007B68B3F902309BB2D31A9BB201339BB21BB218460C37BD465DF8047B704700BF80B400AF00BFBD465DF8047B704700BF80B588B000AF786039607B68002B02D137
:4028C00005F020FC78607B68002B00F09B803B68002B07D17A68B2F85C316FF30903A2F85C3192E00023BB820023FB82786805F015FC03469BB2013B9BB21BB23B837868A0
:4029000005F02EFC03469BB2013B9BB21BB27B8307F1140207F10C033968184605F078FF03467B777B7F002B6FD07B681B69002B06D07B681B697A6807F10C011046984784
:402940000023FB8311E0FB8B0733DB007A6813441A1D07F10C031146184606F045F80346002B51D1FB8B0133FB83FB8B7A68B2F85C21C2F3090292B29342E4DB7B68B3F848
:402980005C31C3F309039BB21F2B11DC7B68B3F85C31C3F309039BB20733DB007A681344043307F10C0211461846FFF73BFF17E07A68B2F85C316FF30903A2F85C317B6822
:4029C000B3F85C31C3F309039BB20733DB007A681344043307F1140211461846FFF722FF7B68B3F85C31C3F309039BB20133C3F3090399B27A68B2F85C3161F30903A2F8B3
:402A00005C3102E000BF00E000BF2037BD4680BD80B400AF034B1B681846BD465DF8047B704700BFC04C0208B0B58AB000AF786005F040FDF8617B68DB686D4A136000F0CC
:402A4000DBF800F07DF96A4B1B68B3F85C31C3F309039BB2002B00F0C480654B1B68184605F03AFC0346002B00F08D80604B1B68184605F0CBFBB86100F06AFC00BFBB6979
:402A80009B69C3F30003DBB2002BF8D1BB699B687B61BB699A68BB691B689A4202D1BB695B6801E0BB691B683B61514B1B68184605F034FB0346FB810023FB8459E04C4B76
:402AC0001A68FB8C134493F83C31002B4ED1B7F90E20474B1968FB8C0733DB000B44B3F9063003FB02F2424B1968FB8C0733DB000B44B3F9043013449B003B623C4B1A6813
:402B0000FB8C0733DB00134404331846FFF798FE03469B00BB60364B1A68FB8C0733DB001344DB88BB8415E07A693B6AD0183A693B6A1344BA6819460CF0A4FEB7F90E30D9
:402B40009B003A6A13443B62B7F924309BB201339BB2BB84264B1A68FB8C0733DB001344B3F90A30B7F924209A42DDDDFB8C0133FB84FB8C1E4A1268B2F85C21C2F3090231
:402B800092B293429BDB1A4B1B683C334FF48072002118460CF081FE154B1B6803F59E732022002118460CF078FE114B1A68B2F85C316FF30903A2F85C310D4B1B689B6958
:402BC000002B0ED00A4B1B689C69094B1B681D46F86905F089FC0146064B1B681A462846A04700F0D9FE00BF2837BD46B0BD00BFC04C0208BC4C0208B0B584B000AF002363
:402C0000BB608AE04D4B1A68BB68134403F59E731B78002B7DD10023FB606EE0474B1A68FB68134403F59E731B78002B5FD1BA68FB689A425BD0414B1A68BB680733DB0003
:402C40001344181D3D4B1A68FB680733DB0013440433194605F09AFE034683F00103DBB2002B46D1354B1A68BB680733DB001344191D324B1A68FB680733DB0013441A1D71
:402C80003B46184605F016FE3B46184605F09EFD04462A4B1A68BB680733DB0013440433184605F093FD0546244B1A68FB680733DB0013440433184605F088FD03462B4401
:402CC0009C4217D21D4B1A68BB680733DB00134404333A4611461846FFF7A4FD174B1A68FB68134403F59E7301221A7002E000BF00E000BFFB680133FB60104B1B68B3F882
:402D00005C31C3F309039BB21A46FB689A4285D800E000BFBB680133BB60084B1B68B3F85C31C3F309039BB21A46BB689A423FF669AF00BF1037BD46B0BD00BFC04C0208D6
:402D400080B582B000AF204B00221A6000237B602AE01E4B1A687B68134403F59E731B78002B1ED1194B1A687B680733DB0013440433184600F02CF8144B1B689B69002B64
:402D80000FD0124B1A687B680733DB0013440433184605F01BFD02460B4B1B6813440A4A13607B6801337B60084B1B68B3F85C31C3F309039BB21A467B689A42C9D800BF97
:402DC0000837BD4680BD00BFBC4C0208C04C020890B58DB000AF78607F4B1B68184605F07BFA0346002B27D07B4B1B68184605F00DFA38623B6A00221A82774B1B681846A1
:402E000005F08CF903469BB2013B9BB21AB23B6A9A823B6A00225A826F4B1B68184605F09FF903469BB2013B9BB21AB23B6ADA82786800F0D3F8CBE0674B1B68184605F0E7
:402E4000E5F9F8617868FFF7FBFC03467B837868FFF70EFD03463B837B68B3F906405E4B1B68184605F07CF903469C420CDB5A4B1B68184605F074F903469BB2013B9BB241
:402E8000FB82B7F9163002E07B68B3F90630FB82FB69DA68B7F91A30B2FBF3F3FB62B7F91820FB6A9A4202DAB7F91830FB624A4B1B681B69002B34D00023BB8100233B8287
:402EC0000023FB81FB6A7B857B8D013B9BB21BB27B82414B1B681B693F4A1268104607F10C021146984707F10C031846FFF7C0FC03461A46FB6A9A420ADDB7F92A309BB20C
:402F0000013B9BB27B85B7F92A30002BDCDC00E000BFB7F92A30002B59DDB7F912300133FB620023FB847B685B883B852CE07B68B3F90020FB691A827B68B3F90420FB6994
:402F40009A82FB693A8D5A82FB6A9AB23B8D13449BB2013B9BB21AB2FB69DA82FB69B3F91630B7F916209A4202DAFB69FA8ADA82FB69DB8AFB84786800F030F8FB6A9AB2D3
:402F80003B8D13449BB23B85B7F92820FB6A13445A1EB7F916309A42C9DDB7F91620B7F926309A4214D07B68B3F90020FB691A827B68B3F90420FB699A82FB693A8D5A82AC
:402FC000FB69FA8ADA82786800F008F800E000BF3437BD4690BD00BFC04C020880B586B000AF78602E4B1B68184605F00FF978612B4B1B68184605F057F9034683F0010310
:40300000DBB2002B07D000BF7B699B69C3F30003DBB2002BF8D17B6903F1100207F108037968184605F0F4FB1D4B1B681846FDF79DF9024607F108031146184600F032F823
:40304000386107F108031946386900F07FF8144B1B681846FDF7A0F9024607F108031946104600F073F80E4B1B681846FDF7AAF9024607F108031946104600F067F8084BB2
:403080001B68184605F028F9034683F00103DBB2002B01D000F05CF900BF1837BD4680BDC04C020880B586B000AF7860396000237B613B6810331946786805F095FC0346A9
:4030C000002B3ED03B6893F82C3003F01003DBB2002B36D13B680433184605F091FF38610EE039697868FFF7DDFF78617B69002B0AD13B6804333969184605F0A9FF3861DD
:403100003B69002BEDD100E000BF7B69002B18D13868FFF7FBF8F860FB689B7BFF2B10D13B681B6A02227968386898470346002B07D03868FFF7A6F90346FF2B01D13B68F2
:403140007B617B6918461837BD4680BD80B586B000AF786039607B68002B05D11C4B1B681846FDF703F978603968786800F032F87B683B617868FFF733F8786121E07B694A
:4031800004333969184605F07FFFF8600AE03968F86800F01FF87B690433F968184605F073FFF860FB68002BF1D17B691B6A01223968786998477B693B617869FFF710F8E6
:4031C00078617B69002BDAD100BF1837BD4680BDC04C020880B58EB000AF786039607B6893F82C3003F01003DBB2002B40F0AC807B681B8E7B8607F1180319467868FFF78C
:4032000019F8B7F918309AB27B8ED31A9BB21BB23B83B7F91A309AB27B8ED31A9BB21BB27B83B7F91C309AB27B8E13449BB21BB2BB83B7F91E309AB27B8E13449BB21BB253
:40324000FB8307F1180207F120033968184605F0DFFA034687F8313097F83130002B74D07B681B6A07F1200100227868984707F1180319467868FEF7DDFF07F1180207F1BF
:4032800028033968184605F0C3FA034687F8313097F83130002B4FD07B680433184605F0C3FE786345E007F108031946786BFEF7C1FF7B6B1B8E7B86B7F908309AB27B8EDA
:4032C000D31A9BB21BB23B81B7F90A309AB27B8ED31A9BB21BB27B81B7F90C309AB27B8E13449BB21BB2BB81B7F90E309AB27B8E13449BB21BB2FB8107F1080207F1280188
:4033000007F11003184605F083FA034687F8313097F83130002B05D007F110031946786BFFF758FF7B680433796B184605F0ACFE78637B6B002BB6D17B681B6A07F1200110
:4033400001227868984700E000BF3837BD4680BD80B582B000AF234B1B68184604F056FF7860204B1B68184604F09EFF0346002B07D000BF7B689B69C3F30003DBB2002B58
:40338000F8D17A68137E43F001031376FFF740FB38603B68DB68002B08D03B68DB6838687A6802F110017A68926898477B681B68002B12D07B685B68002B0ED07B689A6831
:4033C0007B681B689A4204D17B685A687B689A6003E07B681A687B689A6000BF0837BD4680BD00BFC04C020890B482B000AF0446084611462246FA710246BA710A467A7167
:403400007A7962F30703BA7962F30F23FA7962F3174343F07F4318460837BD4690BC704798B500AFB64A13786FF300031370B44BFF229A73B24BFF221A71B14BFF225A7199
:40344000AF4BFF229A71AE4BFF22DA71AC4BFF221A72AB4BFF225A72A94BFF229A72A84BFF22DA72A64B00229A81A54B00229A84A34B0022DA84A24B00221A84A04B002233
:403480005A849F4B07221A859D4B00221A749C4B00225A749A4B00229A74994BFF22DA74974BFF22DA75964B00229A82944B0F229A75934B80221A76914B80225A76904BDC
:4034C00080229A768E4BFF22DA768D4B01229A778B4B00229A838A4BFF2283F83C20884C302230213020FFF77FFFE062844CD82296215520FFF778FF2063814B814A5A632B
:403500007F4B00221A877E4B02225A877C4BFF2283F845207A4C202220212020FFF764FF2064774B002283F84420754BFF2283F84E20734C202220212020FFF755FFA064A5
:403540006F4B0222A3F84C206D4A92F84F306FF3000382F84F306A496B4800F0DFF96A4B07229A84684B0722DA84674B07221A84654B07225A846449644800F0CFF9634CF4
:40358000F022F021F020FFF72FFFE0625F4CF022F021F020FFF728FF20645C4CF022F021F020FFF721FFA064584CD82296215520FFF71AFF6060554A544B5B6893605249D6
:4035C000534800F0ABF9524C202220212020FFF70BFFE0624E4C202220212020FFF704FF20644B4C202220212020FFF7FDFEA064474BFF221A71464BFF225A71444BFF2265
:403600009A71434BFF22DA71414BC0221A72404BC0225A723E4BC0229A723D4BFF22DA723B4B0A229A813A4C402240214020FFF7DBFE2061364B03229A82354B4C22DA7521
:403640003349344800F06AF9324CE022E021E020FFF7CAFEE0622F4CE022E021E020FFF7C3FE20642B4CC022C021C020FFF7BCFEA064284CC7229A216B20FFF7B5FE6060EB
:40368000244C8B2259212B20FFF7AEFEA060214C42222C211520FFF7A7FE20611A491E4800F03CF91C4A137843F0010313701A4B00229A82184B00229A731749174800F09A
:4036C0002DF9164B00229A84144B0022DA84134B00221A84114B00225A841049104800F01DF90F4B00221A8507490E4800F016F90C4CD022A2217620FFF776FE606013E073
:4037000084710308A8420208E470030824720308A46F0308646E0308B46E030894700308F46F0308046F0308774C5D223A211920FFF75AFEA060744B0A229A81724B252244
:403740009A84714B2522DA846F4B19221A846E4B19225A846C4B0F221A856B4C282219210B20FFF741FE2061674B03229A82664BB222DA75644B80221A76634B80225A76FA
:40378000614B80229A76604BFF22DA765E4B00229A835D4CFF22FF21FF20FFF725FEE062594CFF22FF21FF20FFF71EFE20645649564800F0B3F8554C942262213320FFF7AD
:4037C00013FE6060514C3C2226211020FFF70CFEA0604E4CC622B521A420FFF705FEE0624A4CC622B521A420FFF7FEFD2064474CC622B521A420FFF7F7FDA0644249444888
:4038000000F08CF8424C222211210A20FFF7ECFD60603F4C902262213720FFF7E5FDA0603B4C0D2207210120FFF7DEFD2061384CF422DD21C820FFF7D7FDE062344CF422E5
:40384000DD21C820FFF7D0FD2064314CF422DD21C820FFF7C9FDA0642D492E4800F05EF82C4C272214210220FFF7BEFD6060294C70224C212B20FFF7B7FDA060254CC62265
:40388000B521A420FFF7B0FDE062224CC622B521A420FFF7A9FD20641E4CC622B521A420FFF7A2FDA06418491B4800F037F81A4CD822D821D820FFF797FD6060164CD8221A
:4038C000D821D820FFF790FDA060134C902290219020FFF789FD20610F4C702270217020FFF782FDE0620C4C702270217020FFF77BFD2064084C702270217020FFF774FDB5
:40390000A06400BF98BD00BF046F0308546F030834710308D47103084470030880B582B000AF786039605022396878680BF0AAFF00BF0837BD4680BD80B582B000AF78605B
:40394000134B1B687A689A4202D8124B1B681AE00F4A7B6813600F4B1B68002B08D1786805F062FC02460B4B1A600A4B1B680AE0084B1B687968184605F0CCFC0246054BED
:403980001A60044B1B6818460837BD4680BD00BFC44C02088C72030880B500AF084B1B68002B0AD0064B1B68184605F06FFC044B00221A60034B00221A6000BF80BD00BF1B
:4039C0008C720308C44C020880B487B000AFF860B9601346FB71BB7B9AB2FB799BB212FB03F39AB2BB7A99B2FB79C3F1FF039BB211FB03F39BB213449BB21B0A9BB2DBB2D9
:403A0000BB757B7B9AB2FB799BB212FB03F39AB27B7A99B2FB79C3F1FF039BB211FB03F39BB213449BB21B0A9BB2DBB27B753B7B9AB2FB799BB212FB03F39AB23B7A99B259
:403A4000FB79C3F1FF039BB211FB03F39BB213449BB21B0A9BB2DBB23B75FF23FB757B6918461C37BD465DF8047B704780B483B000AF78607B68B3F904309AB27B68B3F9EC
:403A800000309BB2D31A9BB201339BB21BB218460C37BD465DF8047B704700BFB0B58EB004AFBA607B600346FB810B46BB8197F838300F2B40F2838097F83830FB2B02D918
:403AC000FF2387F83830BB68B3F90030B7F90E209A4276DBBB68B3F90430B7F90E209A426FDCBB68B3F90230B7F90C209A4268DBBB68B3F90630B7F90C209A4261DCFEF7C0
:403B000087FF7862786A04F081FB38623B6A10331846FFF7ABFF0346FB61FA893B6AB3F910309BB2D31A9BB2FB81BA893B6AB3F912309BB2D31A9BB2BB817B6A5B69002B2A
:403B400013D07B6A5C69786A3B6A9968FB691AB2B7F90E5097F8383002937B680193B7F90C3000932B46A0472CE00023FB763B6A9B687B61B7F90C30FA6902FB03F2B7F903
:403B80000E3013449B007A6913447B61FB7E83F00103DBB2002B15D097F83830FF2B03D17B697A681A600DE097F838207B6919687868FFF709FF02467B691A6002E000BF9F
:403BC00000E000BF2837BD46B0BD00BF80B590B002AFF860B9607A60FB70FB780F2B68D9FB78FB2B01D9FF23FB7007F11C03BA68F968184604F00CFE034687F8373097F81A
:403C0000373083F00103DBB2002B54D1FEF700FF3863386B04F0FAFAF862B7F91C309AB2FB6AB3F910309BB2D31A9BB21BB2BB82B7F91E309AB2FB6AB3F912309BB2D31A54
:403C40009BB21BB2FB82B7F920309AB2FB6AB3F910309BB2D31A9BB21BB23B83B7F922309AB2FB6AB3F912309BB2D31A9BB21BB27B83FB6A9B68BB62FB6A10331846FFF78A
:403C8000F5FE03467B62B7F916301A467B6A03FB02F39B00BA6A1344BB62FB6A98687B6A19B207F11402FB7800937B6800F008F802E000BF00E000BF3837BD4680BD00BFE0
:403CC00090B58FB004AFF8607A603B600B467B81FEF79EFE38623B6A5B69002B34D07B681B88BB8428E07B685B88FB8417E03B6A5C69386AB7F92410B7F90A2097F83830E6
:403D000002933B680193B7F9263000930B46F968A047B7F926309BB201339BB2FB847B68B3F90630B7F926209A42E0DDB7F924309BB201339BB2BB847B68B3F90430B7F95A
:403D400024209A42CFDDCAE07B68B3F902301A46B7F90A3003FB02F39B00FA681344FB6097F83830FF2B59D17B681B88BB840CE0B7F924309B00FA6813443A681A60B7F900
:403D800024309BB201339BB2BB847B68B3F90430B7F924209A42EBDD7B68B3F900309B00FA681344FB617B68B3F904301A467B68B3F90030D31A01339BB29B009BB27B83A2
:403DC000B7F90A309B00FA681344FB607B68B3F902309BB201339BB2FB8417E07B68B3F900309B00FA681344B7F91A20F96918460BF048FDB7F90A309B00FA681344FB608F
:403E0000B7F926309BB201339BB2FB847B68B3F90630B7F926209A42E0DD60E000237B7600233B7500237B750023BB75FF23FB7597F838301A4679693868FFF7C5FD0346E2
:403E40003B617B685B88FB8442E07B681B88BB842BE07B7E83F00103DBB2002B1FD0B7F924309B00FA6813441A687B699A420FD0B7F924309B00FA6813441B687B6197F899
:403E800038301A4679693868FFF79EFD03463B61B7F924309B00FA6813443A691A60B7F924309BB201339BB2BB847B68B3F90430B7F924209A42CCDDB7F90A309B00FA6899
:403EC0001344FB60B7F926309BB201339BB2FB847B68B3F90630B7F926209A42B5DD00BF2C37BD4690BD00BF80B485B000AF0346FB710023FB73FB790E2B36D801A252F85D
:403F000023F000BF413F0110413F01106B3F01106B3F0110473F01104D3F0110473F0110533F0110593F01105F3F0110653F0110533F0110593F01105F3F0110653F0110EC
:403F40000023FB7314E02023FB7311E02023FB730EE00123FB730BE00223FB7308E00423FB7305E00823FB7302E00023FB7300BFFB7B18461437BD465DF8047B704700BFD2
:403F800080B485B000AF78600323FB737B68002B01D1FB7B18E07B68BB60BB681B781F2B07D9BB681B785BB2002B02DB0123FB7309E0BB681B785BB2002B02DA0223FB73AE
:403FC00001E00023FB73FB7B18461437BD465DF8047B704780B487B000AFF860B9601346FB71BB7B9AB2FB799BB212FB03F39AB2BB7A99B2FB79C3F1FF039BB211FB03F3C7
:404000009BB213449BB21B0A9BB2DBB2BB757B7B9AB2FB799BB212FB03F39AB27B7A99B2FB79C3F1FF039BB211FB03F39BB213449BB21B0A9BB2DBB27B753B7B9AB2FB79FF
:404040009BB212FB03F39AB23B7A99B2FB79C3F1FF039BB211FB03F39BB213449BB21B0A9BB2DBB23B75FF23FB757B6918461C37BD465DF8047B704780B582B000AF7860E8
:4040800039600822396878680BF0FCFB00BF0837BD4680BD80B483B000AF78607B68B3F904309AB27B68B3F900309BB2D31A9BB201339BB21BB218460C37BD465DF8047B83
:4040C000704700BF80B483B000AF78607B68B3F906309AB27B68B3F902309BB2D31A9BB201339BB21BB218460C37BD465DF8047B704700BF80B584B000AFF860B9607A6064
:40410000FB70F868FFF7DEFF0346002B4EDDF868FFF7C0FF0346002B48DD7B68B3F91C30002B05D0FB787A68B968F86801F0F6FBB968F86804F02AFC034683F00103DBB219
:40414000002B35D17B689B7B102B10D9FB787A68B968F86800F030F87B68B3F90C30002B05D0FB787A68B968F86800F027F97B68B3F91430002B1CD07B689B7D002B18D05A
:404180007B68DB7D0F2B14D9FB787A68B968F86800F0F8FC7B68B3F90C30002B09D0FB787A68B968F86801F09BF802E000BF00E000BF1037BD4680BD80B58EB000AFF86079
:4041C000B9607A60FB707B68B3F90C303B86FEF71FFC0346184603F0E5FF034687F82F307B685B687B627B689B683B62F868FFF769FF0346BB85F868FFF74CFF03467B85E9
:40420000FB78FF2B02D17B689B7B0AE07B689B7B9AB2FB789BB212FB03F39BB21B0A9BB2DBB287F82930B7F92C20B7F92A103B8E184602F06BFA03463B863A8EB7F92C30BD
:40424000D90F0B445B101BB29A4200F3B380FB68B3F900303B83FB68B3F90430BB837A6A3B6A9A4240D1FB68B3F902309AB23B8E13449BB21BB27B83FB68B3F906309AB283
:404280003B8ED31A9BB21BB2FB837B68B3F90C30002B20D097F82F30002B0ED0B7F91A309BB202339BB21BB27B83B7F91E309BB2023B9BB21BB2FB830DE0B7F91A309BB2EB
:4042C00001339BB21BB27B83B7F91E309BB2013B9BB21BB2FB8397F8293007F118007A6AB968FFF773FC66E0FB68B3F902309AB23B8E13449BB2BB86FB68B3F906309AB2DF
:404300003B8ED31A9BB27B867B68B3F90C30002B14D097F82F30002B08D0BB8E02339BB2BB867B8E023B9BB27B8607E0BB8E01339BB2BB867B8E013B9BB27B86B7F9343075
:40434000002B01DA0023BB86BB8EFB862BE0FB8E7B83FB8EFB83FB68B3F906301A46B7F91A30D31A1A4613461B029A1AB7F92C30B2FBF3F387F8283097F828301A46396AFA
:40438000786AFFF727FE03467B6197F8293007F118007A69B968FFF719FCB7F936309BB201339BB2FB86B7F93620B7F932309A42CDDD00E000BF3837BD4680BDB0B59CB0D2
:4043C00002AFF860B9607A60FB707B68B3F90C30A7F86230FEF71CFB0346184603F0E2FE034687F861307B685B687B657B689B683B65FB78FF2B02D17B689B7B0AE07B6839
:404400009B7B9AB2FB789BB212FB03F39BB21B0A9BB2DBB287F86030F868FFF753FE0346A7F85E30F868FFF735FE0346A7F85C30B7F95E20B7F95C10B7F86230184602F007
:4044400065F90346A7F86230FB68B3F900309AB2B7F8623013449AB297F861309BB213449BB21BB2A7F84830FB68B3F902309AB2B7F8623013449AB297F861309BB21344CB
:404480009BB21BB2A7F84A30FB68B3F900309AB2B7F8623013449AB297F861309BB213449BB21BB2A7F84430FB68B3F906309AB2B7F86230D31A9AB297F861309BB2D31A04
:4044C0009BB21BB2A7F84630FB68B3F904309AB2B7F86230D31A9AB297F861309BB2D31A9BB21BB2A7F84030FB68B3F902309AB2B7F8623013449AB297F861309BB21344CC
:404500009BB21BB2A7F84230FB68B3F904309AB2B7F86230D31A9AB297F861309BB2D31A9BB21BB2BB87FB68B3F906309AB2B7F86230D31A9AB297F861309BB2D31A9BB2DF
:404540001BB2FB87B7F9622007F1160107F11803184604F079FAB7F944309AB2B7F918309BB2D31A9BB219B2B7F946309AB2B7F91A309BB213449BB21CB2B7F93C309AB286
:40458000B7F918309BB213449BB21DB2B7F93E309AB2B7F91A309BB213449BB21BB207F1240000932B46224604F0F0F8B7F944309AB2B7F91A309BB2D31A9BB219B2B7F951
:4045C00046309AB2B7F918309BB213449BB21CB2B7F93C309AB2B7F91A309BB213449BB21DB2B7F93E309AB2B7F918309BB213449BB21BB207F11C0000932B46224604F08C
:40460000C5F8B7F948309AB2B7F918309BB2D31A9BB219B2B7F94A309AB2B7F91A309BB2D31A9BB21CB2B7F940309AB2B7F918309BB213449BB21DB2B7F942309AB2B7F9F8
:404640001A309BB2D31A9BB21BB207F12C0000932B46224604F09AF8B7F948309AB2B7F91A309BB2D31A9BB219B2B7F94A309AB2B7F918309BB2D31A9BB21CB2B7F94030E3
:404680009AB2B7F91A309BB213449BB21DB2B7F942309AB2B7F918309BB2D31A9BB21BB207F1340000932B46224604F06FF8ABE1002387F86730002387F86630002387F8A8
:4046C0006530002387F86430B7F926301A46B7F91A301946B7F946300B449A4202D0012387F86530B7F91E301A46B7F918301946B7F946300B449A4202D0012387F86430C6
:40470000B7F92E301A46B7F94A301946B7F91A30CB1A9A4202D0012387F86630B7F936301A46B7F94A301946B7F91830CB1A9A4202D0012387F8673097F86730002B28D0AF
:404740007A6D3B6D9A4202D17B6DFB6419E0FB68B3F906301A46B7F93630D31A1A4613461B029A1AB7F95E30B2FBF3F387F85B3097F85B301A46396D786DFFF72BFC034643
:40478000FB6497F8603007F13400FA6CB968FFF71DFA97F86630002B28D07A6D3B6D9A4202D17B6DFB6419E0FB68B3F906301A46B7F92E30D31A1A4613461B029A1AB7F91B
:4047C0005E30B2FBF3F387F85B3097F85B301A46396D786DFFF7FEFB0346FB6497F8603007F12C00FA6CB968FFF7F0F997F86530002B28D07A6D3B6D9A4202D17B6DFB647D
:4048000019E0FB68B3F906301A46B7F92630D31A1A4613461B029A1AB7F95E30B2FBF3F387F85B3097F85B301A46396D786DFFF7D1FB0346FB6497F8603007F12400FA6C72
:40484000B968FFF7C3F997F86430002B28D07A6D3B6D9A4202D17B6DFB6419E0FB68B3F906301A46B7F91E30D31A1A4613461B029A1AB7F95E30B2FBF3F387F85B3097F81D
:404880005B301A46396D786DFFF7A4FB0346FB6497F8603007F11C00FA6CB968FFF796F9B7F944309AB2B7F918309BB2D31A9BB219B2B7F946309AB2B7F91A309BB213443C
:4048C0009BB21CB2B7F93C309AB2B7F918309BB213449BB21DB2B7F93E309AB2B7F91A309BB213449BB21BB207F1240000932B46224603F04BFFB7F944309AB2B7F91A302C
:404900009BB2D31A9BB219B2B7F946309AB2B7F918309BB213449BB21CB2B7F93C309AB2B7F91A309BB213449BB21DB2B7F93E309AB2B7F918309BB213449BB21BB207F1C2
:404940001C0000932B46224603F020FFB7F948309AB2B7F918309BB2D31A9BB219B2B7F94A309AB2B7F91A309BB2D31A9BB21CB2B7F940309AB2B7F918309BB213449BB2C5
:404980001DB2B7F942309AB2B7F91A309BB2D31A9BB21BB207F12C0000932B46224603F0F5FEB7F948309AB2B7F91A309BB2D31A9BB219B2B7F94A309AB2B7F918309BB27B
:4049C000D31A9BB21CB2B7F940309AB2B7F91A309BB213449BB21DB2B7F942309AB2B7F918309BB2D31A9BB21BB207F1340000932B46224603F0CAFE07F1160207F1180359
:404A00001146184604F050F807F11803184604F035F80346002B7FF44BAE7A6D3B6D9A4202D17B6DFB6419E0FB68B3F906301A46B7F93630D31A1A4613461B029A1AB7F9B3
:404A40005E30B2FBF3F387F85B3097F85B301A46396D786DFFF7BEFA0346FB6497F8603007F13400FA6CB968FFF7B0F8B7F93620B7F92E309A4228D07A6D3B6D9A4202D11A
:404A80007B6DFB6419E0FB68B3F906301A46B7F92E30D31A1A4613461B029A1AB7F95E30B2FBF3F387F85B3097F85B301A46396D786DFFF78FFA0346FB6497F8603007F16E
:404AC0002C00FA6CB968FFF781F87A6D3B6D9A4202D17B6DFB6419E0FB68B3F906301A46B7F92630D31A1A4613461B029A1AB7F95E30B2FBF3F387F85B3097F85B301A469F
:404B0000396D786DFFF766FA0346FB6497F8603007F12400FA6CB968FFF758F8B7F91E20B7F926309A4228D07A6D3B6D9A4202D17B6DFB6419E0FB68B3F906301A46B7F949
:404B40001E30D31A1A4613461B029A1AB7F95E30B2FBF3F387F85B3097F85B301A46396D786DFFF737FA0346FB6497F8603007F11C00FA6CB968FFF729F800BF6837BD468F
:404B8000B0BD00BF80B58CB000AFF860B9607A60FB707B68B3F90C307B85FDF739FF0346184603F0FFFA034687F82930F868FFF771FA0346FB84F868FFF784FA0346BB8463
:404BC0007B689B8A7B84FB78FF2B02D17B68DB7D0AE07B68DB7D9AB2FB789BB212FB03F39BB21B0A9BB2DBB287F821307B689B7D87F820307B681B69FB610023FB85002360
:404C0000BB85B7F922309BB2013B9BB27B84B7F92420B7F926107B8D184601F077FD03467B857A8DB7F922309A420CDA7A8C7B8DD31A9AB297F829309BB2D31A9BB2FB856E
:404C40007B8CBB8506E097F829309AB27B8D13449BB2BB857B68B3F90C30002B40F0CA8097F8203003F00203002B1CD0FB68B3F90030BB82FB68B3F904303B83FB68B3F9FD
:404C80000230FB82FB68B3F902309AB27B8C13449BB21BB27B8397F8213007F11400FA69B968FEF793FF97F8203003F00803002B3AD0FB68B3F904309AB27B8CD31A9BB269
:404CC0001BB2BB82FB68B3F904303B83FB68B3F902309AB297F8203003F00203002B03D07B8C01339BB200E0002313449BB21BB2FB82FB68B3F906309AB297F8203003F06B
:404D00000103002B03D07B8C01339BB200E00023D31A9BB21BB27B8397F8213007F11400FA69B968FEF752FF97F8203003F00403002B3AD0FB68B3F90030BB82FB68B3F992
:404D400000309AB27B8C13449BB21BB23B83FB68B3F902309AB297F8203003F00203002B03D07B8C01339BB200E0002313449BB21BB2FB82FB68B3F906309AB297F8203036
:404D800003F00103002B03D07B8C01339BB200E00023D31A9BB21BB27B8397F8213007F11400FA69B968FEF711FF97F8203003F00103002B00F08F82FB68B3F90030BB827B
:404DC000FB68B3F904303B83FB68B3F906309AB27B8CD31A9BB21BB2FB82FB68B3F906307B8397F8213007F11400FA69B968FEF7EDFE71E2B7F92C309BB201339BB2BB8596
:404E000097F8203003F00203002B09D0FB68B3F902309AB2BB8D13449BB21BB2FB8208E0FB68B3F902309AB27B8D13449BB21BB2FB8297F8203003F00103002B09D0FB682C
:404E4000B3F906309AB2BB8DD31A9BB21BB27B8308E0FB68B3F906309AB27B8DD31A9BB21BB27B8397F8203003F00403002B13D0FB68B3F90030BB82B7F914309AB27B8C87
:404E800013449BB21BB23B8397F8213007F11400FA69B968FEF79AFE97F8203003F00803002B13D0FB68B3F904303B83B7F918309AB27B8CD31A9BB21BB2BB8297F821306B
:404EC00007F11400FA69B968FEF780FEFB68B3F900309AB2BB8D13449AB2FB8DD31A9BB21BB2BB82FB68B3F904309AB2BB8DD31A9AB2FB8D13449BB21BB23B8397F82030C7
:404F000003F00203002B14D0FB68B3F90230FB82FB68B3F902309AB27B8C13449BB21BB27B8397F8213007F11400FA69B968FEF74DFE97F8203003F00103002B13D0FB68B2
:404F4000B3F906307B83B7F91A309AB27B8CD31A9BB21BB2FB8297F8213007F11400FA69B968FEF733FEB7F92E30002B00F0FC8097F8203003F00203002B38D097F820305C
:404F800003F00403002B32D0FB68B3F90030BB82FB68B3F900309AB27B8D13449AB297F829309BB213449BB21BB23B83FB68B3F902309AB27B8D13449AB297F829309BB247
:404FC00013449BB201339BB21BB2FB82FB68B3F902309AB27B8C13449BB21BB27B8397F8213007F11400FA69B968FEF7EFFD97F8203003F00203002B38D097F8203003F012
:405000000803002B32D0FB68B3F904309AB27B8DD31A9AB297F829309BB2D31A9BB21BB2BB82FB68B3F904303B83FB68B3F902309AB27B8D13449AB297F829309BB213442A
:405040009BB201339BB21BB2FB82FB68B3F902309AB27B8C13449BB21BB27B8397F8213007F11400FA69B968FEF7B0FD97F8203003F00103002B38D097F8203003F0040321
:40508000002B32D0FB68B3F90030BB82FB68B3F900309AB27B8D13449AB297F829309BB213449BB21BB23B83FB68B3F906309AB27B8CD31A9BB21BB2FB82FB68B3F906304C
:4050C0009AB27B8DD31A9AB297F829309BB2D31A9BB2013B9BB21BB27B8397F8213007F11400FA69B968FEF771FD97F8203003F00103002B38D097F8203003F00803002B7C
:4051000032D0FB68B3F904309AB27B8DD31A9AB297F829309BB2D31A9BB21BB2BB82FB68B3F904303B83FB68B3F906309AB27B8CD31A9BB21BB2FB82FB68B3F906309AB276
:405140007B8DD31A9AB297F829309BB2D31A9BB2013B9BB21BB27B8397F8213007F11400FA69B968FEF732FD7B68B3F90C30002B40F0B28097F8203003F00603002B25D044
:40518000FB68B3F90030BB82FB68B3F900309AB297F829309BB213449BB21BB23B83FB68B3F90230FB82FB68B3F902309AB297F829309BB213449BB21BB27B8397F82130B5
:4051C00007F11400FA69B968FEF700FD97F8203003F00A03002B25D0FB68B3F904309AB297F829309BB2D31A9BB21BB2BB82FB68B3F904303B83FB68B3F90230FB82FB6804
:40520000B3F902309AB297F829309BB213449BB21BB27B8397F8213007F11400FA69B968FEF7D4FC97F8203003F00503002B25D0FB68B3F90030BB82FB68B3F900309AB26A
:4052400097F829309BB213449BB21BB23B83FB68B3F906309AB297F829309BB2D31A9BB21BB2FB82FB68B3F906307B8397F8213007F11400FA69B968FEF7A8FC97F8203055
:4052800003F00903002B27D0FB68B3F904309AB297F829309BB2D31A9BB21BB2BB82FB68B3F904303B83FB68B3F906309AB297F829309BB2D31A9BB21BB2FB82FB68B3F96B
:4052C00006307B8397F8213007F11400FA69B968FEF77CFC00E000BF3037BD4680BD00BF80B594B000AFF860B9607A60FB707B68B3F90C30A7F84830FDF78AFB03461846B8
:4053000002F050FF034687F847307B689B8AA7F844307B681B69BB637B689B7D87F84330FB78FF2B02D17B68DB7D0AE07B68DB7D9AB2FB789BB212FB03F39BB21B0A9BB2C2
:40534000DBB287F84230B7F944309BB2013B9BB2A7F84430F868FEF79DFE0346A7F84030F868FEF7AFFE0346FB87B7F93E20B7F94010B7F84830184601F0C8F90346A7F860
:405380004830FB68B3F900309AB2B7F8483013449AB297F847309BB213449BB21BB2BB86FB68B3F902309AB2B7F8483013449AB297F847309BB213449BB21BB2FB86FB681C
:4053C000B3F900309AB2B7F8483013449AB297F847309BB213449BB21BB23B86FB68B3F906309AB2B7F84830D31A9AB297F847309BB2D31A9BB21BB27B86FB68B3F90430A7
:405400009AB2B7F84830D31A9AB297F847309BB2D31A9BB21BB2BB85FB68B3F902309AB2B7F8483013449AB297F847309BB213449BB21BB2FB85FB68B3F904309AB2B7F84D
:405440004830D31A9AB297F847309BB2D31A9BB21BB23B85FB68B3F906309AB2B7F84830D31A9AB297F847309BB2D31A9BB21BB27B85B7F9482007F1220107F12403184666
:4054800003F0E2FAB7F84430B7F84820D31A9BB2A7F84E30B7F94E30002B02DA0023A7F84E30B7F94E2007F11A0107F11C03184603F0CAFA26E2B7F91E20B7F91C309A42EC
:4054C0000EDAB7F924309AB2B7F91C309BB2D31A9BB2A7F84C30B7F84C30A7F84A300FE0B7F924309AB2B7F926309BB2D31A9BB2A7F84C30B7F84C30013B9BB2A7F84A30DE
:4055000097F8433003F00103002B6DD097F8433003F00803002B67D0B7F928309AB2B7F924309BB213449AB2B7F84A30D31A9BB21BB23B82B7F928309AB2B7F924309BB2CE
:4055400013449BB21BB2BB82B7F92A309AB2B7F926309BB213449BB21BB27B82B7F92A309AB2B7F926309BB213449BB21BB2FB8297F8423007F11000BA6BB968FEF726FB6A
:40558000B7F928309AB2B7F926309BB213449BB21BB23B82B7F928309AB2B7F926309BB213449BB21BB2BB82B7F92A309AB2B7F924309BB213449AB2B7F84C30D31A9BB212
:4055C0001BB27B82B7F92A309AB2B7F924309BB213449BB21BB2FB8297F8423007F11000BA6BB968FEF7F2FA97F8433003F00103002B6DD097F8433003F00403002B67D05D
:40560000B7F930309AB2B7F926309BB2D31A9BB21BB23B82B7F930309AB2B7F926309BB2D31A9BB21BB2BB82B7F932309AB2B7F924309BB213449AB2B7F84A30D31A9BB24F
:405640001BB27B82B7F932309AB2B7F924309BB213449BB21BB2FB8297F8423007F11000BA6BB968FEF7B2FAB7F930309AB2B7F924309BB2D31A9BB21BB23B82B7F9303052
:405680009AB2B7F924309BB2D31A9AB2B7F84C3013449BB21BB2BB82B7F932309AB2B7F926309BB213449BB21BB27B82B7F932309AB2B7F926309BB213449BB21BB2FB827D
:4056C00097F8423007F11000BA6BB968FEF77EFA97F8433003F00203002B7BD097F8433003F00403002B75D0B7F932301A46B7F926301A44B7F936301946B7F92630CB1ADC
:405700009A4233DDB7F934309AB2B7F924309BB2D31A9BB21BB23B82B7F934309AB2B7F924309BB2D31A9AB2B7F84A3013449BB21BB2BB82B7F936309AB2B7F926309BB292
:40574000D31A9BB21BB27B82B7F936309AB2B7F926309BB2D31A9BB21BB2FB8297F8423007F11000BA6BB968FEF730FAB7F934309AB2B7F926309BB2D31A9BB21BB23B8207
:40578000B7F934309AB2B7F926309BB2D31A9BB21BB2BB82B7F936309AB2B7F924309BB2D31A9BB21BB27B82B7F936309AB2B7F924309BB2D31A9AB2B7F84C3013449BB280
:4057C0001BB2FB8297F8423007F11000BA6BB968FEF7FCF997F8433003F00203002B7BD097F8433003F00803002B75D0B7F92C309AB2B7F926309BB213449BB21BB23B826D
:40580000B7F92C309AB2B7F926309BB213449BB21BB2BB82B7F92E309AB2B7F924309BB2D31A9BB21BB27B82B7F92E309AB2B7F924309BB2D31A9AB2B7F84A3013449BB2AF
:405840001BB2FB8297F8423007F11000BA6BB968FEF7BCF9B7F92A301A46B7F926301A44B7F92E301946B7F92630CB1A9A4233DDB7F92C309AB2B7F924309BB213449AB287
:40588000B7F84C30D31A9BB21BB23B82B7F92C309AB2B7F924309BB213449BB21BB2BB82B7F92E309AB2B7F926309BB2D31A9BB21BB27B82B7F92E309AB2B7F926309BB244
:4058C000D31A9BB21BB2FB8297F8423007F11000BA6BB968FEF77AF907F1220207F124031146184603F0E0F8B7F91E20B7F91C309A4207DA07F11A0207F11C03114618462B
:4059000003F0D2F8B7F92620B7F924309A427FF7D2AD00BF5037BD4680BD00BF80B588B000AFF860B9607A60FB707B689B89FB83F868FEF7AFFB0346BB83F868FEF7C2FBAB
:4059400003467B83FB8BB7F91A20B7F91C10184600F0DCFE0346FB8307F11003F9681846FEF78AFBB7F910309AB2FB8B13449BB21BB23B82B7F914309AB2FB8BD31A9BB271
:405980001BB2BB8207F110031946B86803F02CF80346002B34D107F11003F9681846FEF76BFBB7F912309AB2FB8B13449BB21BB27B82B7F916309AB2FB8BD31A9BB21BB29D
:4059C000FB8207F110031946B86803F00DF80346002B17D17B689B7F012B06D1FB787A68B968F86800F012F80DE07B689B7F002B09D1FB787A68B968F86800F02DFB02E0BD
:405A000000BF00E000BF2037BD4680BD80B5A0B002AFF860B9607A60FB70FCF7F9FF0346184602F0BFFB034687F867307B689B89A7F864307B689B8BA7F86230F868FEF71F
:405A400029FB0346A7F86030F868FEF73BFB0346A7F85E30B7F86430B7F95E20B7F96010184600F053FE0346A7F8643097F867309AB2B7F8643013449BB2A7F86430B7F8A2
:405A800062305B009BB201339BB2A7F85C30B7F96420B7F962301344043323F00303BB65BB6D5B00BB65B7F95C30033323F003037B657B6D9B007B65B7F96420B7F96230DC
:405AC0001344043323F003033B65BA6D7B6D1A443B6D13441846FDF72FFFF864FB6CBB64FA6CBB6D13447B64BA6D7B6D1344FA6C13443B64BA6D0021B86C09F0CEFEB7F92A
:405B0000642007F1360107F13803184602F09CFF17E0B7F93A305B00BA6C1344B7F938201A80B7F938305B00BA6C1344B7F93A201A8007F1360207F138031146184602F06B
:405B4000B3FF07F13803184602F098FF0346002BDFD1FB78FF2B02D17B689B7B0AE07B689B7B9AB2FB789BB212FB03F39BB21B0A9BB2DBB287F83F300023A7F8763020E038
:405B8000B7F976309B007A6C1344B7F95C10B7F976208A1A114697F83F2002FB01F252001202B7F95C10B7F95C0000FB01F1B2FBF1F21A60B7F976309BB201339BB2A7F834
:405BC0007630B7F97620B7F95C309A42D8DBFB68B3F904309AB2B7F86430D31A9AB297F867309BB2D31A9BB21BB23B84FB68B3F906309AB2B7F86430D31A9AB297F8673077
:405C00009BB2D31A9BB21BB27B84FB68B3F904309AB2B7F86430D31A9AB297F867309BB2D31A9BB21BB2BB83FB68B3F902309AB2B7F8643013449AB297F867309BB2134411
:405C40009BB21BB2FB83FB68B3F900309AB2B7F8643013449AB297F867309BB213449BB21BB23B83FB68B3F906309AB2B7F86430D31A9AB297F867309BB2D31A9BB21BB2F2
:405C80007B83FB68B3F900309AB2B7F8643013449AB297F867309BB213449BB21BB2BB82FB68B3F902309AB2B7F8643013449AB297F867309BB213449BB21BB2FB8200235D
:405CC000A7F87630BAE1002387F873300023A7F8743098E00023FB66B7F862305B429BB2A7F870306EE0B7F97620B7F970301344002B12DAB7F86420B7F976305B00B96C58
:405D00000B44B3F900309BB2D31A9AB2B7F87430D31A9BB2A7F86A3023E0B7F97620B7F970301A44B7F964309A4252DCB7F97620B7F9703013445B00BA6C1344B3F9003006
:405D40009AB2B7F976305B00B96C0B44B3F900309BB2D31A9AB2B7F87430D31A9BB2A7F86A30B7F96A20B7F962305B429A420ADAB7F97020B7F962305B429A422BD1012396
:405D800087F8733027E0B7F96A20B7F962309A4205DD7B6C1B68FA6E1344FB660BE0B7F96220B7F96A30D31A9B007A6C13441B68FA6E1344FB66B7F970309BB201339BB209
:405DC000A7F87030B7F97020B7F962309A428ADD02E000BF00E000BFB7F874303A6C1344FA6E120AD2B21A7097F87330002B05D0B7F874300133A7F874300EE0B7F8743040
:405E00000133A7F87430B7F87420B7F96410B7F962300B449A427FF75DAFB7F976305B00BA6C1344B3F900309AB2B7F91C309BB213449BB201339BB21BB23B86B7F91E3045
:405E40009AB2B7F87630D31A9BB21BB27B86B7F976305B00BA6C1344B3F900309AB2B7F920309BB213449BB201339BB21BB2BB85B7F922309AB2B7F8763013449BB21BB290
:405E8000FB85B7F914309AB2B7F976305B00B96C0B44B3F900309BB2D31A9BB2013B9BB21BB23B85B7F916309AB2B7F87630D31A9BB21BB27B85B7F918309AB2B7F976304C
:405EC0005B00B96C0B44B3F900309BB2D31A9BB2013B9BB21BB2BB84B7F91A309AB2B7F8763013449BB21BB2FB840123A7F868308CE0B7F92820B7F914309A4214DAB7F923
:405F00002A20B7F916309A420EDAB7F92800B7F92A10B7F868303A6C13441A787B6800929B69BA68FDF7BAFDB7F92420B7F918309A4214DAB7F92620B7F91A309A420EDD12
:405F4000B7F92400B7F92610B7F868303A6C13441A787B6800929B69BA68FDF79FFDB7F93020B7F91C309A4214DDB7F93220B7F91E309A420EDAB7F93000B7F93210B7F858
:405F800068303A6C13441A787B6800929B69BA68FDF784FDB7F92C20B7F920309A4214DDB7F92E20B7F922309A420EDDB7F92C00B7F92E10B7F868303A6C13441A787B6897
:405FC00000929B69BA68FDF769FDB7F92C309BB201339BB21BB2BB85B7F924309BB2013B9BB21BB2BB84B7F930309BB201339BB21BB23B86B7F928309BB2013B9BB21BB2AB
:406000003B85B7F868300133A7F86830B7F86820B7F874309A42FFF46CAFB7F97630002B05D13B6C7A68B968F86800F017FAB7F976309BB201339BB2A7F87630B7F9762069
:40604000B7F96410B7F962300B449A427FF73BAE00BF7837BD4680BD80B59AB002AFF860B9607A60FB70FCF7D3FC0346184602F099F8034687F857307B689B89A7F8543037
:406080007B689B8BA7F85230F868FEF703F80346A7F85030F868FEF715F80346A7F84E30B7F85430B7F94E20B7F95010184600F02DFB0346A7F8543097F857309BB21A4630
:4060C000520013449AB2B7F8543013449BB2A7F8543097F857309AB2B7F8523013449BB2A7F85230B7F95430043323F00303BB64BB6C5B00BB64B7F85230DBB20333DBB294
:4061000023F0030387F8473097F84720BB6C13441846FDF711FC38643B6CFB633A6CBB6C1344BB63B7F9542007F12E0107F13003184602F089FC17E0B7F932305B00FA6B86
:406140001344B7F930201A80B7F930305B00FA6B1344B7F932201A8007F12E0207F130031146184602F0A0FC07F13003184602F085FC0346002BDFD1FB78FF2B02D17B6862
:406180009B7B0AE07B689B7B9AB2FB789BB212FB03F39BB21B0A9BB2DBB287F837300023A7F85E301BE0B7F95E30BA6B1344B7F95210B7F95E208A1A114697F8372002FB82
:4061C00001F25108B7F95220B1FBF2F2D2B21A70B7F95E309BB201339BB2A7F85E30B7F95E20B7F952309A42DDDBFB68B3F900309AB2B7F8543013449BB21BB23B83FB6816
:40620000B3F906309AB2B7F85430D31A9AB297F857309BB2D31A9BB201339BB21BB27B83FB68B3F904309AB2B7F85430D31A9BB21BB2BB82FB68B3F906309AB2B7F8543011
:40624000D31A9AB297F857309BB2D31A9BB201339BB21BB2FB820023A7F85E30B0E0B7F918309AB2B7F85E30D31A9BB21BB23B85B7F91A309AB2B7F95E305B00F96B0B44C3
:40628000B3F900309BB213449BB21BB27B85B7F914309AB2B7F85E3013449BB21BB2BB84B7F916309AB2B7F95E305B00F96B0B44B3F900309BB213449BB21BB2FB84B7F9C0
:4062C0005E30002B16D0B7F95E3003F10043013B5B00FA6B1344B3F900309AB2B7F95E305B00F96B0B44B3F900309BB2D31A9BB21BB200E00023BB860023A7F85A3052E0D1
:40630000B7F93430002B07D1B7F85A30BA6B13441B7887F85D3015E0B7F85A30BA6B13441B789AB2B7F85A10B7F93430CB1A1946BB6B0B441B789BB213449BB25B089BB24F
:4063400087F85D30B7F92800B7F92A107B6897F85D2000929B69BA68FDF7A0FBB7F92A309BB201339BB21BB27B85B7F92420B7F918309A420BDDB7F92400B7F926107B6827
:4063800097F85D2000929B69BA68FDF787FBB7F926309BB201339BB21BB2FB84B7F85A300133A7F85A30B7F85A20B7F952309A42A6DBB7F95E309BB201339BB2A7F85E30FC
:4063C000B7F95E20B7F954309A427FF748AFB7F918309BB201339BB21BB2BB83B7F91A309AB2B7F8543013449BB21BB2FB83B7F914309BB2013B9BB21BB23B84B7F91E3065
:406400007B840023A7F858301EE0B7F85830BA6B13441B787A6807F11C009269B968FDF7D5FBB7F91E309BB201339BB21BB2FB83B7F922309BB201339BB21BB27B84B7F897
:4064400058300133A7F85830B7F85820B7F952309A42DADB00BF6037BD4680BD80B590B000AFF860B9607A603B60FCF7D1FA0346184601F097FE034687F83D307B689B8988
:406480007B877B689B8B3B87F868FDF703FE0346FB86F868FDF716FE0346BB867B8FB7F93420B7F93610184600F030F903467B8797F83D309AB27B8F13449BB27B87FB68DD
:4064C000B3F904309AB297F83D309BB2D31A9BB201339BB21BB23B85FB68B3F902309AB27B8F13449AB297F83D309BB213449BB21BB27B85B7F92830BB85FB68B3F906305E
:406500009AB27B8FD31A9AB297F83D309BB2D31A9BB21BB2FB85FB68B3F900309AB297F83D309BB213449BB2013B9BB21BB23B84FB68B3F902309AB27B8F13449AB297F8A6
:406540003D309BB213449BB21BB27B84B7F92030BB84FB68B3F906309AB27B8FD31A9AB297F83D309BB2D31A9BB21BB2FB84FB68B3F900309AB27B8F13449AB297F83D30DB
:406580009BB213449BB21BB23B83FB68B3F902309AB297F83D309BB213449BB2013B9BB21BB27B83FB68B3F904309AB27B8FD31A9AB297F83D309BB2D31A9BB21BB2BB8331
:4065C000B7F91A30FB83FB68B3F900309AB27B8F13449AB297F83D309BB213449BB21BB23B82FB68B3F906309AB297F83D309BB2D31A9BB201339BB21BB27B82FB68B3F906
:4066000004309AB27B8FD31A9AB297F83D309BB2D31A9BB21BB2BB82B7F91230FB820123FB8768E0B7F93E303A6813441B7887F8333097F833307A6807F128009269B96811
:40664000FDF7C4FAB7F928309BB201339BB21BB23B85B7F92C309BB201339BB21BB2BB8597F833307A6807F120009269B968FDF7ADFAB7F920309BB2013B9BB21BB23B8419
:40668000B7F924309BB2013B9BB21BB2BB8497F833307A6807F118009269B968FDF796FAB7F91A309BB2013B9BB21BB27B83B7F91E309BB2013B9BB21BB2FB8397F83330C4
:4066C0007A6807F110009269B968FDF77FFAB7F912309BB201339BB21BB27B82B7F916309BB201339BB21BB2FB82B7F93E309BB201339BB2FB87B7F93E20B7F938309A421F
:4067000090DD00BF4037BD4680BD00BF80B584B000AF0346FB800B46BB8013467B80FCF777F90346184601F03DFD0346FB73FB88B7F90420521012B293420ADBB7F90430F4
:406740005B101BB2FB80FB88002B02D0FB88013BFB80FB88B7F90220521012B293420ADBB7F902305B101BB2FB80FB88002B02D0FB88013BFB80FB88002B04D0FB7B9BB2E3
:40678000FA88D31AFB80FB8818461037BD4680BD80B584B000AF0346FB80254B1B68002B07D0002000F048F8214B1B68184602F06DFDFA8813469B001344DB00184602F0C5
:4067C00033FD02461A4B1A60194B1B68002B03D1184B00221A8027E0164AFB8813800023FB811CE0124B1968FA8913469B001344DB000B4424220021184609F04EF80C4BF4
:406800001968FA8913469B001344DB000B4428220021184609F041F8FB890133FB81054B1B88FA899A42DDD31037BD4680BD00BFB8720308C84C020880B584B000AF786025
:40684000284B1B68BB600023FB8141E0FA8913469B001344DB001A46BB6813445A687B689A4202D07B68002B2FD1FA8913469B001344DB001A46BB6813445B68002B0AD018
:40688000FA8913469B001344DB001A46BB681344184600F073F8FA8913469B001344DB001A46BB68134424220021184608F0F5FFFA8913469B001344DB001A46BB681344E5
:4068C00028220021184608F0E8FFFB890133FB81054B1B88FA899A42B8D300BF1037BD4680BD00BFB8720308C84C020890B482B000AF0446084611462246FA710246BA712D
:406900000A467A717A7962F30703BA7962F30F23FA7962F3174343F07F4318460837BD4690BC704780B582B000AF10210E4802F0E1F900F049F878607B68002B10D00B49A2
:40694000786800F059F80A49786800F063F80949786800F06DF80849786800F077F800E000BF0837BD4680BD9C720308696A0110196B0110916C0110B56D011080B582B009
:4069800000AF78607B681B68002B18D07B681B68DB68002B07D07B681B68DB687A6812687968104698477B681B7B012B07D17B685B68184602F06AFC7B6800225A6000BFBA
:4069C0000837BD4680BD00BF80B582B000AF094802F0B0F978607B68002B01D1002305E010220021786808F058FF7B6818460837BD4680BD9C72030880B483B000AF78604E
:406A000039607B683A681A6000BF0C37BD465DF8047B704780B483B000AF786039607B683A685A6000BF0C37BD465DF8047B704780B483B000AF786039607B683A689A60D2
:406A400000BF0C37BD465DF8047B704780B483B000AF786039607B683A68DA6000BF0C37BD465DF8047B704780B586B000AFF860B9607A60B868FDF783FA0346FB75FB7D89
:406A8000002B2CD1BB681B78C3F30403DBB2BB75BB7D032B02D9BB7D0E2B01D9002337E0BB681B68C3F38A2399B27A68136861F394231360BB685B88C3F34A1399B27A6843
:406AC000538861F34F135380BB681B78C3F30403D9B27A68137861F30403137017E0FB7D022B12D17A681368012161F3942313607A685388012161F34F1353807A68137898
:406B00000B2161F30403137001E0002300E0012318461837BD4680BD90B589B000AF786039603B681B7B012B01D10023ACE03B681B7CC3F30403DBB2FB76FB7E042B05D060
:406B4000FB7E052B02D0FB7E062B0FD13B681B7B002B06D13B685B689A683B685A61012392E03B6800225A6101238DE0FB7E072B08D0FB7E082B05D0FB7E092B02D0FB7E6C
:406B80000A2B6BD1FB7E1846FDF7AEF90346BB76BB7E012202FA03F37B613B681B6A002B0CD1082002F040FB02463B681A623B681B6A08220021184608F06FFE3B681B6A04
:406BC0003B617B699B00184602F02EFB02463B691A60786902F028FB02463B695A603B691B68002B3B681B7B012B01D100234BE03B685B689B68FB600023FB6125E03B693C
:406C00001A68FB699B00D418FB699B00FA6813449878FB699B00FA6813445978FB699B00FA6813441B781A46FFF760FE034623603B695A68FB691344FA699200F9680A4406
:406C4000D2781A70FB690133FB61FA697B699A42D5D33B6800225A61012315E0FB7E0B2B08D0FB7E0C2B05D0FB7E0D2B02D0FB7E0E2B04D13B6800225A61012304E03968A9
:406C8000786800F097F8002318462437BD4690BD80B588B002AFF860B96011461A460B46FB801346BB800023FB75BB681B7C03F01F03DBB2042B0DD0BB681B7C03F01F03D9
:406CC000DBB2052B06D0BB681B7C03F01F03DBB2062B12D1BB681B7B012B66D1B7F92000B7F90420B7F906107B6A00930346B86800F088F80346FB7557E0BB681B7C03F01D
:406D00001F03DBB20B2B14D0BB681B7C03F01F03DBB20C2B0DD0BB681B7C03F01F03DBB20D2B06D0BB681B7C03F01F03DBB20E2B0ED1B7F92000B7F90420B7F906107B6AED
:406D400000930346B86800F071F80346FB752CE0BB681B7C03F01F03DBB2072B14D0BB681B7C03F01F03DBB2082B0DD0BB681B7C03F01F03DBB2092B06D0BB681B7C03F008
:406D80001F03DBB20A2B0ED1B7F92000B7F90420B7F906107B6A00930346B86800F0D8F90346FB7501E0002300E0FB7D18461837BD4680BD80B584B000AF786039603B68D6
:406DC0001B6AFB60FB68002B17D0FB681B68002B04D0FB681B68184602F058FAFB685B68002B04D0FB685B68184602F04FFAF86802F04CFA3B6800221A6200BF1037BD460B
:406E000080BD00BF80B485B000AFF860084611461A4603467B810B463B811346FB80002318461437BD465DF8047B704790B595B000AFF860084611461A4603467B810B4635
:406E40003B811346FB80002387F82C30FF2387F82D30BD4A07F1280310681860BB4B07F11804186859689A68DB680FC4FB689B681B6C7B610023A7F84E300EE0B7F94E30D4
:406E80009B001A463B6E13447A691A60B7F94E309BB201339BB2A7F84E30B7F94E20B7F906309A42EADB0023BB64FB681B7CC3F30403DBB21846FDF717F8034687F83730A6
:406EC00097F83730012202FA03F39BB2013BBB860023A7F8463000233B64002387F83F30FB681B7CC3F30403DBB20B3B032B00F2C08001A252F823F0096F01106F6F011050
:406F0000D96F011043700110FB681B69C3F38A239BB2DB10A7F84630FB681B69C3F38A239BB203F00703002B06D0B7F946309BB201339BB2A7F84630B7F94630B7F9082001
:406F400002FB03F3B7F90A20D21012B213441A463B6C13443B647B895BB2DB435BB203F0070387F83F3007F12C03BB6481E0FB681B69C3F38A239BB29B10A7F84630FB68C2
:406F80001B69C3F38A239BB203F00303002B06D0B7F946309BB201339BB2A7F84630B7F94630B7F9082002FB03F3B7F90A20921012B213441A463B6C13443B647B89DB43F3
:406FC000DBB203F00303DBB25B00DBB287F83F3007F12803BB644CE0FB681B69C3F38A239BB25B10A7F84630FB681B69C3F38A239BB203F00103002B06D0B7F946309BB221
:4070000001339BB2A7F84630B7F94630B7F9082002FB03F3B7F90A20521012B213441A463B6C13443B647B8903F00103002B01D1042300E0002387F83F3007F11803BB6433
:4070400017E0FB681B69C3F38A239BB2A7F84630B7F94630B7F9082002FB03F2B7F90A3013441A463B6C13443B64002387F83F3000BF0023BB63FB681B7B002B0ED1FB68C8
:407080005B683B633B6B9A683B6C1344BB63002387F82F300023A7F84E3049E00023BB6300234CE097F82F30BA6B13441B781946BA8E97F93F3002FA03F301EA030297F99C
:4070C0003F3042FA03F387F82E30B7F94E309B0003333A6E1A44FB681B7C03F01F03DBB20E2B05D097F82E30B96C0B441B7801E097F82E30137097F83F2097F83730D31A4D
:40710000DBB287F83F3097F93F30002B09DA97F83730C3F10803DBB287F83F30BB6B0133BB63B7F94E309BB201339BB2A7F84E30B7F94E20B7F906309A42B3DB0123184616
:407140005437BD4690BD00BFE4010210E801021080B58EB000AFF860084611461A4603467B810B463B811346FB80FB681B7CC3F30403DBB21846FCF7B7FE034687F8293073
:4071800097F82930012202FA03F39BB2013BFB840023FB86002387F8353000233B63FB681B7CC3F30403DBB2073B032B00F2BE8001A252F823F000BFC97101102B720110C2
:4071C00091720110F7720110FB681B69C3F38A239BB2DB10FB86FB681B69C3F38A239BB203F00703002B05D0B7F936309BB201339BB2FB86B7F93630B7F9082002FB03F324
:40720000B7F90A20D21012B213441A463B6B13443B633B6B08333B637B895BB2DB435BB203F0070387F8353080E0FB681B69C3F38A239BB29B10FB86FB681B69C3F38A2373
