:020000041000EA
:4000000000400208230100100D00000085010010000000000000000000000000000000000000000000000000000000008101001000000000000000008101001081010010E9
:400040008101001081010010810100108101001081010010810100108101001081010010810100108101001081010010810100108101001081010010810100108101001060
:400080008101001081010010810100108101001081010010810100108101001081010010810100108101001081010010810100108101001081010010810100108101001020
:4000C00010B5064C2378002B07D1054B002B02D0044800E000BF0123237010BD3C060008000000005C2D0010084B10B5002B03D00749084800E000BF07480368002B00D1A1
:4001000010BD064B002BFBD09847F9E700000000400600085C2D0010E8000008000000007047FFF7FDFF72B60F4C104DAC4209DA21686268A368043B02DBC858D050FAE720
:400140000C34F3E70A490B4A0020521A02DD043A8850FCDC084809490860BFF34F8F00F005F900F01DF8FEE7602D0010782D00103C060008140800080000000808ED00E055
:40018000FEE7FEE700B504207146084202D0EFF3098001E0EFF30880043001F039FAFEE710B562B6014800F067F9FEE70000011010B5002001F032F810BDC04670B56249C7
:4001C000E0239B00CB580F2213401A00D0329200525807210A40032A05D0042A06D0002A12D15A4814E05A4A106811E01A00C0329200554952581F210A40112A06D0132A7C
:4002000004D0FA20C00103E0524801E080200002002B36D14C4BB222D2009A5801211140B125ED005A59120F032422405B591B0F1C4207D0444C63591B0F03242340012BDC
:4002400002D102E0012300E00023002B01D0002901D1032A4BD13C4BB022D2009D58AD03AD0B3D495958C904C90C9C58240E01231C40013401F0D4FC6843210001F0D0FCDC
:4002800035E0012B33D1304BC822D2009A5801251540C024E4001A59120F03210A401B591B0F194207D028490B591B0F03210B40012B02D102E0012300E00023002B01D049
:4002C000002D01D1032A12D11F4DC022D200AB587F210B40A958090A1F263140AC58240C3440584301F09CFC210001F099FCE0239B00154AD3581B0903221340D840144C68
:400300006060164B1D692D0AFC32154001351969090E013101F084FCA060290001F080FC0500E06020610E4BC0180E4901F078FC20750D4BE818FA21890001F071FCA061B1
:40034000C003E06170BDC0460000264000127A00C000000800366E0184050000000021403F420F0040420F00E703000010B5284801F050FC274CB022D200A3585B005B08B0
:40038000A350E0218900635830208343635080235B04A350204A214BE250A02292010433E250FF221E4BE25001F022FCC0225200A35801218B43A35000F034FAFFF7FEFE94
:4003C000B0235B055B78002B04D0B0235B055B78DBB200E02123212B03D1124B0022DA605A60114C22008021042000F0BDFC2000103000F051FD0D4B1A685123D35C002B7B
:4004000002D00B4800F0BEFD00F086FB10BDC046A42C00100000264001000200840500008C050000E00023405806000810080008981D00108023024AD3580320184070476B
:400440000000214010B501F074F9084980228C58074B2340074C23438B508823034AD358DB06FAD501F069F910BDC04600002140FCFF00000100FA0570B50500830504D0FD
:40048000E821FF310F4801F095F801F052F90400FFF7D0FF032801D1FFF7D4FF0A4AB0239B00D55080215058084B03400848034353508823044AD358DB06FAD5200001F07F
:4004C0003CF970BDCC1D001000002140FCFF00000300FA05FEE7C046F0B50025002711E0BB00C658F3B2FF22964308E06A008A181478A419527822700135013BDBB2002B3B
:40050000F4D10137052FEBD9F0BDC04610B50A00002101F01AFC10BD10B501F00DFC10BD30B583B0B049A022D2008B58032083438B50AE4A116808688823CB58C31818686D
:40054000AB49084018601368186884241B59C01803681B021B0A80256D042B430360106805680359EB1818680140196013683E229A5C002A08D09C4CE020800022580F21E1
:400580008A430E390A4322503E229A5C002A06D09548E021890042583024A24342503E229B5C002B07D09049E02292008B588020000603438B500021022000F061FE002123
:4005C000032000F05DFE0021042000F059FE0021002000F055FE0021012000F051FE05228449684601F0A8FB6946012000F076FE002802D00320FFF76DFF7F49012000F03A
:40060000DBFE002802D00320FFF764FF764C7B4BE1587B4A0A40E250E1587A4A0A40E250E25880252D062A43E250774A1368802109030B431360A022D200A358802109025A
:400640000B43A350714A1168714B0B40802149000B431360002001F0ADFA6E4BE2582A43E250E158012291430A43E2508621002000F0E6FF5D4B1B683F229A5C022A06D931
:4006800070229A5C02210A406349986842509A6874215B5AD2189168554B0B40A82189010B439360514B1B6873229A5C0321914070229A5C7220185C1400844021430220CE
:4006C00002400A43802109060A438021C900986842509A6852583F229A5C052A06D970229A5C01210A404D49986842509A6874215B5AD21851683E4B0B408021C9000B43CA
:4007000053603A4B1B6873229A5C0320904070229A5C72241C5D1500A5402843012422400243802000060243986842509A6852583F229A5C132A06D970229A5C03210A4026
:400740003749986842509A6874215B5AD218D168274B0B408421C9010B43D360234B1B6873229A5C03200400944070229A5C7221595C15008D402900214302400A43802165
:4007800009060A438021C900986842509A6852583F229A5C382A04D90021CE221201986881509A6874215B5AD2181168104B0B40802189000B4313600C4B1A687323D15CCE
:4007C000703B8B4019007023D35C7220105C83400B43802109060B438021C9009068435093685B5803B030BD0000264010080008FF00FFFFE41D0010102700000405000084
:40080000FEFCFFFFFFFF00FF000E1F4100002740FFFCFFFF0C050000080C0000140C00004C0C000070B58AB09621002000F008FF00F0DEFE002814D100F0CAFEC0235B005C
:400840004C4AD358DB0705D411004B4A8B585B005B088B504749484A8B588020000603438B50012001F03EF9444A516C444B0B40E82189010B435364536C1B0AFF221340B0
:400880003A2B07D13D4A516C3E4B0B40E82189010B435364FFF744FE3B4A3C4B1A6000240CE0620012195300394AD31899891A89588900041043FFF729FE01340A2CF0D9E1
:4008C00000240AE0620012199300314AD3185A6D196DD86CFFF720FE0134122CF2D92D48010030317830FFF7F7FD0F222A4B1A602A4A2B4B1A602B4A1368832149000B4369
:40090000136001AC284D22002B00103343CB43C243CB43C243CB43C22100244800F004F922002B00343343CB43C243CB43C243CB43C221001E4800F0F7F822002B005833B4
:4009400043CB43C243CB43C243CB43C22100194800F0EAF822002B007C3323CB23C223CB23C223CB23C22100134800F0DDF80AB070BDC046000026400C0500000000274069
:40098000FF00FFFFFFC5FFDF0300FA05F0012140E41D0010E41E001000006340070101000002634000793440641F001080023240000332408004324000053240214B984234
:4009C00030D00ED8402831D004D800281FD010282AD031E080282BD080235B00984229D02AE0194B984229D007D8A0231B0698420DD0164B984212D01EE0154B98420AD014
:400A0000144B984209D0144B984215D101E0002016E0124814E0124812E0124810E0A020C0030DE007480BE00F4809E00F4807E00F4805E0034803E00E4801E0A420C0035A
:400A40007047C04606005200010000F0090000A0040000F0050000F0030000F0010052000200520003005200010050000200500005005200FF00520070B5124B1A6831234C
:400A8000D35C002B04D1C421FF310F4800F092FD0C4B1D682C00B423EB582A6A944663441B68002B0BDB094B1868FFF787FF6B6801229A6063689B68002BFBD100E0044820
:400AC00070BDC04610080008A8290010E80700080200500010B50D4B1861002805D002230370FD33437000234380094B1B6850229A5C002A08D051229B5C002B04D04F3A52
:400B00000449002000F0F8FA10BDC046E8070008100800086101000810B502481430FFF7D9FF10BDE807000870B505000C0000285DD000295DD0FF230A689A4303D099214E
:400B40002D4800F037FDFF2322699A4303D09A21294800F02FFDA3685B0D03D09B21264800F028FD63685B0A03D09C21224800F021FDE3695B0F03D09D211F4800F01AFDC5
:400B8000236A5B0F03D09E211B4800F013FD1B4A11688B69EB1ADB0949691B01CB18216829607D211068415C6918E06808607E211068415C6918206908607F211068415C0C
:400BC0006918606908607C211068415C6918A06808606168A961116880228A5CAD18A2692A60E2691A60226A5A60002002E0044800E0034870BDC046E8290010100800087A
:400C000001005A0070B504000D000A4B1A68B423D3581B181B68002B0ADA0B0C03D00649064800F0C7FC2D042D0C6560002000E0034870BD10080008D5020000682A00100B
:400C400001008A0070B505000C000368002B01DA002300E0084B002B0BD1EA60230C03D00649074800F0A6FC2404240CAC60002000E0014870BDC04601008A00BB02000041
:400C8000682A001070B505000C1E03D19921084800F090FC074B1A68B423D3585B191B68002B03DAEB682360002000E0024870BDA82A00101008000801008A0070B504000C
:400CC0000D00234B1A683123D35C834236D9002936D00B68DB0635D13123D35C984204D3C421FF311B4800F065FC194B1B681A6AB0215B5A5C431419174E34602B68DA08EF
:400D00000021686801F021F800212000FFF77AFF3468002D03D111490E4800F04BFC2A0000212000FFF78EFF00280DD10A4B18680021FFF767FF002808D108E0084806E01F
:400D4000074804E0064802E0064800E0054870BD10080008682A0010000800089303000003018A0001018A0010B50400002A17D1002915D1124B1A683123D35C984204D3E9
:400D8000C421FF310F4800F015FC0D4B1B681A6AB0215B5A5C4314190B4B1C6000200EE0002A09D0002909D0074B59609A60191D2000FFF783FF02E0044800E0034810BD37
:400DC00010080008682A00100008000803018A00F0B583B00D001C4B1B68DC68236883422DD947097B01C01A012383401E00002903D100F09EFC019001E000230193124B72
:400E000018680368002B01DA002300E00F4B002B0ED16368BF00DF193B68334203D0B3433B60002400E00A4C0021FFF7EBFE00E0084C002D04D1019800F07FFC00E0064C96
:400E4000200003B0F0BDC0460008000801008A00020188000301880004018A000A4B1B68DA68136883420BD943095901401A0121814052689B009B580B4203D0034802E0F5
:400E8000034800E003487047000800080101880004018A0000018800034B1B68002B01D1014B18607047C0460C080008F0B5474680B404000F0090461E002D4B1B68002B55
:400EC00003D1B5212B4800F075FB294B1B682C2060431C18FF22150035402560330A13406360360CA660244B1A683123D35C9D4204D3C421FF31214800F05CFB1E4B1A68B6
:400F0000B023D35A6B43116A8C466344236166683223D35C9E4204D3E021FF31174800F049FB154B1B681D6A80367601AD196561A668330C04D0FF214900104800F03AFB94
:400F4000330C03D00E490D4800F034FB3604330C1E43AE604346E36127620023A361069B002B02D000229B5EA38104BC9046F0BD0C080008E82A001010080008682A00100F
:400F8000FF010000F0B58FB0041E03D15221294800F010FB6368032B03D95421254800F009FBE36A002B03D15821224800F002FB236B002B03D159211E4800F0FBFA07AAAE
:400FC0001300210061C961C321C921C302AD290023001433C1CBC1C141CB41C10821535E0CAE3380144B1B6836215B5E07998C466344B370089B0D930B9B0A980096A26AA1
:40100000E16AFFF753FF2B69E868002200920021FFF74CFF216B300000F05EFA0023F25E002A05DB1F231A401E3B9340034A13600FB0F0BDE82A00101008000800E100E0AB
:40104000F8B505000F0016001C00002A03D1FD21224800F0AFFA224B1B68002B03D1FE211E4800F0A7FA1E4B1B682C2128004843181879435918012213004D68AB401B041B
:401080004568AA4015000269002A20D08F69002F1FD11268002A01DA002200E0114A002A19D132681204120C134333600369DE6001238B614C6204692B0C03D00A490B48BC
:4010C00000F078FA2A04120CA260002004E0084802E0084800E00748F8BDC046E82A00100C08000801008A00BB020000682A001004028A0007028A0070B504000D00160039
:401100000F4B1B68002B04D1AF2149000D4800F051FA0B4B1B682C2060431C18236A002B04D1B1214900074800F044FAE369B34204D9236AB6009D51002000E0024870BD42
:401140000C080008E82A00100A028A0070B582B0040000230193002804D1D221FF312D4800F028FA2369002B04D1E9214900294800F020FA6369002B04D1D421FF3125482A
:4011800000F018FA236A002B04D1EA214900214800F010FA6269D5682B0C24D01B041360136820691C4B1A68B423D358C3181B68002B18DA01A9FFF765FD00280ED1019818
:4011C00003681E0CFF221340E269934207D29B00226AD358002B02D0984700E0002631002069FFF70FFD2D042D0C0FD063691D601B68636A002B03D098470023636203E073
:40120000A36A002B00D098470023A36163691B6802B070BDE82A00101008000810B50400084B1B68002B04D1B221FF31064800F0C1F9044B1B682C2060431818FFF786FF2A
:4012400010BDC0460C080008E82A001010B50400094B1B689B6CC340DB0703D4BE21074800F0A8F9044B1B681B691034A402E3580F20184010BDC04610080008282B0010E3
:40128000134B1A683C23D35C83421DD9042904D94B1EFF3B9BB2132B18D8FF290CD91F2319400C4A0300C0339B009950D03080000423835000200AE007231940D0308000DE
:4012C000044BC150002002E0034800E002487047100800080000264001004A00F0B50138304B1A683D23D35C98424CD203008133FF339B002C4A9B58002B46DB8A78931E41
:40130000DBB20E2B43D84B78002B42D0122B42D80E783500CC78002C01D0132700E01627AF423AD8002C01D0382700E07027AF4235D30D79022D16D07F252E401B02F8256C
:401340006D012B4033431204F8256D032A401A43E40680231B051C40144303008133FF339B00114A9C50104D8130FF30800044590E4B1C400B791B07C022920513402343A2
:40138000435100200CE00A480AE00A4808E0084806E0074804E0064802E0054800E00448F0BDC0461008000800002640FFFFFFCF01004A0003004A0070B50C00451E134B76
:4013C0001A683D23D35C9D421CD211492B008133FF339B005A588020000602435A5003E0012000F0DBF8013C2B009133FF339B00074A9B58DB0701D4002CF1D1002C03D119
:40140000044802E0044800E0002070BD100800080000264002004A0001004A0070B505000C001A4B1B6828229A5C012A15D1820807211000884327D19200AD1AED00FF208F
:40144000A8401B6820339A181168AC4023004B40184004004C40146016E03A229B5EDBB2994203D176210A4800F0A4F8074B1B681B68072215408022120615438022920174
:4014800094466444A400E55070BDC04610080008682B001070B504000D000B4B9A680B4B9A420CD1002904D13821FF31084800F081F81034054BA400E058E55003E0103432
:4014C000A400044BE05870BD00ED00E000000008682B001000000010F0B5474680B482B0061E01914AD04368032B03D93221264800F060F80023F05E002804DBB178FFF74F
:401500008DFF002400E0214C0023F15E7368002912DB88081E4FC0308000C55903221140C900FC3290468A4095439A01434613408B402B43C35116E089B20F220A40083A29
:4015400092080632920013481018476803221140C900FF252A008A4097439A012B0013408B403B4343600B4B9A680B4B9A4206D10023F05E0199FFF78DFF00E0034C200062
:4015800002B004BC9046F0BD682B00100100560000E100E000ED00E00000000810B5034B1B78584300F0BCF810BDC046D400000801BEFEE770B50D00044C18220100200091
:4015C00000F0CBFBA5610020FFF7F2FF00060008054B802212069A649B6C002B01DB002000E002487047C0460000274003004600054B8022120198585B68FF221A4202D046
:401600008023DB021843704700002640FEE7C04610B50A4B0268DA6142681A6282685A62C2689A620269DA6242691A6382695A63C2699A63FFF7EAFF10BDC04600060008B7
:40164000F0B5474680B4002801D0192300E064238B429B415B42304D2C682268A826A45BA41822680327BA433B401A4322602C682268A45BA2181668284CA0462640166068
:401680002C682668AA229446A25A96193268BA43134333602A6813686546525BD3181A68444614401C60002805D010291BD921291BD8012024E0184B1B6855229A5C914259
:4016C00015D956229A5C914213D957229A5C914211D958229A5C91420FD959229B5C99420DD804200CE000200AE0022008E0002006E0012004E0022002E0032000E00520EB
:40170000054A1268526813680F218B430343136004BC9046F0BDC04610080008FFFCFFFF0230800803D001300238FCD1C046C0467047EFF3108072B6704780F310887047F7
:4017400010B5B0235B059B899BB2002B04D0B0235B059B899BB201E080235B0080225200934215D1184C23681968683A9B58C9180B680F208343963A13430B6021680C68F3
:401780009C23CB58E318196881430A431A6019E00D4C2368196898229B58C918B02040050A4BC2580A4B13400A681343C022920013430B60226811689C23D358CB18054A0C
:4017C00082581A6010BDC0461008000848180000FFFCFFFF4418000030B5B0235B059B899BB2002B04D0B0235B059B899BB201E080235B0080225200934215D1184C236844
:401800001968683A9B58C9180B680F208343953A13430B6021680C689C23CB58E318196881430A431A6019E00D4D2B68196898229B58C918B0246405C12040012258094BB1
:4018400013400A681343C022920013430B602A6811689C23D358CB1822581A6030BDC04610080008FFFCFFFFB0235B059B899BB2002B04D0B0235B059B899BB201E0802375
:401880005B008022520093420DD1104B1B681A6898215B58D21811680D4B0B40C021C9010B43136011E0094B1B68196898229B58C918084BB0225205D258074B13400A6854
:4018C0001343C022920013430B60704710080008FF8FFFFF18180000FFFCFFFF30B5B0235B059B899BB2002B04D0B0235B059B899BB201E080235B008022520093420DD11F
:40190000134B1B681A6898215B58D2181168114B0B408021C9010B43136018E00C4D2B68196898229B58C918B02464050A4822580A4B13400A681343C022920013430B6001
:401940002A6811689C23D358CB1822581A6030BD10080008FF8FFFFF4C180000FFFCFFFF10B5B0235B059B899BB2002B04D0B0235B059B899BB201E080235B0080225200C6
:40198000934217D10020FFF761FCB0235B055B78002B04D0B0235B055B78DBB200E02123222B03D8002803D1013004E0012002E0002000E0012010BDF8B50700012803D958
:4019C0003D493E48FFF7F6FDB0235B055B78002B04D0B0235B055B78DBB200E021239DB2B0235B059B899BB2002B04D0B0235B059E89B6B201E0802676000020FFF726FC4D
:401A0000002814D180235B009E4212D1222D12D82B4B1B685C682B4821582B4B19403B068022520413400B432350002404E0274C02E0264C00E0254C80235B009E4201D10A
:401A4000222D03D880235B009E4232D01C4B1A683123D35C002B04D1C421FF311C48FFF7A9FD174B1B681D6A80235B009E4203D1002F05D0174A06E0002F03D0164A02E02E
:401A8000164A00E0164A01212800FFF7DBF800280FD10B4B1A68B423D3585B191B68002BF7DBEB681B0E1B06A0221206934200D100242000F8BDC0464C0A0000AC2B001044
:401AC0001008000818F00000FFFFFFFE04004200A8290010010100300300000C010000300100000CF8B50500012804D9822109012948FFF75FFDFFF733FF002849D0FFF796
:401B000018FE0700002D11D10021244B244AD150E823DB00B0225205D65CF6B20120FFF74BFF041E19D1FFF70BFE16E0B02252051C4BD0581A4B194958501B49565CF6B22A
:401B40001A481A581F218A4314390A431A500320FFF724FDFFF7C2FE0024002C15D11049124A8B581F20834306401E438E50002D02D1FFF779FE08E00720FFF70FFDFFF7C4
:401B80002BFE0020FFF718FF04003800FFF7D5FD00E0074C2000F8BDAC2B0010307F00000000264010180000410700001CFF000003004200042805D10B4A116804230B43B2
:401BC00013600FE0094B1A681168A023D358CB180006C022920410401860034A136804218B4313607047C04610E000E0100800080749C02252008B589B009B088020C00538
:401C000003438B508B588020000603438B50704700002640014B18607047C04610080008002243088B4274D303098B425FD3030A8B4244D3030B8B4228D3030C8B420DD30C
:401C4000FF22090212BA030C8B4202D31212090265D0030B8B4219D300E0090AC30B8B4201D3CB03C01A5241830B8B4201D38B03C01A5241430B8B4201D34B03C01A52411F
:401C8000030B8B4201D30B03C01A5241C30A8B4201D3CB02C01A5241830A8B4201D38B02C01A5241430A8B4201D34B02C01A5241030A8B4201D30B02C01A5241CDD2C309EF
:401CC0008B4201D3CB01C01A524183098B4201D38B01C01A524143098B4201D34B01C01A524103098B4201D30B01C01A5241C3088B4201D3CB00C01A524183088B4201D348
:401D00008B00C01A524143088B4201D34B00C01A5241411A00D20146524110467047FFE701B5002000F006F802BDC0460029F7D076E770477047C046002310B59A4203D02C
:401D4000CC5CC4540133F9E710BD03008218934202D019700133FAE77047030030B5002A0DD00C7801335D1E013A2C700131002CF5D19A189A4202D01C700133FAE730BD9E
:401D8000F8B5C046F8BC08BC9E467047F8B5C046F8BC08BC9E46704703000000010000000100000000000000050360000400000001000000000000000100000006046000BA
:401DC00008000000C8070008B101001073797374656D5F70736F63365F636D30706C75732E630000320103000000000000203440740080203440740000223440740080222D
:401E000034407400002434407400802434407400002634407400802634407400802834407400002A34407400802A3440740000000028344004200010740000000021344079
:401E4000782000109000000000233440082100109000000000253440982100109000000000273440282200109000000000293440B822001090000000002B34404823001022
:401E80009000000000603440D82300107C00000080603440542400107C00000000613440D02400107C000000806134404C2500107C00000000623440C82500107C000000E9
:401EC00080623440442600107C00000000633440C02600107C000000806334403C2700107C00000000643440B82700107C00000080643440342800107C00000000653440AB
:401F0000B02800107C000000806534402C2900107C0000002010210484A986508CDE8E219025929A94219C089E80A001A220A410AC63AE84B01FB280B402B660BE04D6027B
:401F4000DC04DF04E009E190E301EC102C0268D86C72A860AC300401190100000201344019283440017034400171344004723440027834404D0000000000000000000000F9
:401F80008666600E0000000000000000000000001414141400000200100000000000000000000000000606BA0000000000000000000000000000000003001D1D4F00000013
:401FC0000000000000000000AA66000600000000000000000000000013130303000003007F0000000000000000000000EEEEEE0E000000000000000000000000020202023D
:402000000202020000870048000000000000200018FD050000081BB61AD1042A082010001A000410000020000000040000030200100008002044003F1880074002A2A00032
:4020400000000100430100000026CEDF3FFFFFFF00000000040000000000FF01000000000404040D999900010000C00030000010800020004040105000000000000000003C
:4020800000000000FFFFFFFFFFFFFFFFFFFFFFFFFFFFFFFFFFFFFFFFFF000000FFFFFFFFFFFFFFFFFFFFFFFFFFFFFFFFFFFFFFFFFF0000000000000000000000000000004A
:4020C000000000000000000000000000FFFFFFFFFFFFFFFFFFFFFFFF1111111111111111111111111111111111111111111111111111111111111111111111111111111144
:402100001111111111111111000000000000000000000000FFFFFFFFFFFFFFFFFFFFFFFFFFFFFFFFFFFFFFFFFF000000FFFFFFFFFFFFFFFFFFFFFFFFFFFFFFFFFFFFFFFF40
:40214000FF000000000000000000000000000000000000000000000000000000FFFFFFFFFFFFFFFFFFFFFFFF111111111111111111111111111111111111111111111111D4
:40218000111111111111111111111111111111111111111111111111100000000000000000000000FFFFFFFFFFFFFFFFFFFFFFFFFFFFFFFFFFFFFFFFFF000000FFFFFFFF90
:4021C000FFFFFFFFFFFFFFFFFFFFFFFFFFFFFFFFFF0000000000000000000000000000000000000000000F000000F000FFFFFFFFFFFFFFFFFFFFFFFF111111111111111175
:4022000011111111111111D11111111111111111D11111111111111111111111111111111111111111111111001300000400000000000000FFFFFFFFFFFFFFFFFFFFFFFF6B
:40224000FFFFFFFFFFFFFFFFFF000000FFFFFFFFFFFFFFFFFFFFFFFFFFFFFFFFFFFFFFFFFF0000000000000004000000000000000000000000050000FF000F01FFFFFFFF68
:40228000FFFFFFFFFFFFFFFF111111D1110D11110111111111111DF11111111111111111F111111111101111101111111111111111111111111111118401000000000000FB
:4022C00000000000FF37375455114FFF5123F71FF533FF603012421FFF0000007F0F131F035FFFFFFFFFFFFFFFFFFF44FFFFFFFFFF0000000000000000000000000000005E
:4023000000000000043F37F30F600054FFFFFFFFFFFFFFFFFFFFFFFF112191F1119F711198D7115131613FF11141311141D11143F1413513111B84117B13119B11111B1143
:402340001181D11114A12111000000000000000000000000FFFFFFFFFFFFFFFFFFFFFFFFFFFFFFFFFFFFFFFFFF000000FFFFFFFFFFFFFFFFFFFFFFFFFFFFFFFFFFFFFFFF2B
:40238000FF000000000000000000000000000000000000000000000000000000FFFFFFFFFFFFFFFFFFFFFFFF11111111111111111111111111111111111111111111111192
:4023C00011111111111111111111111111111111111111111111111100000000000000001F1F1F1F1F1F1F1F1F1F1F1F1F1F1F1F1F1F1F1F1F1F1F1F1F1F1F1F1F1F1F1F65
:40240000000000000000000000000000000000000000000000000000FFFFFFFFFFFFFFFFFFFFFFFF11111111111111111111111111111111111111111111111111111111CC
:40244000111111111111111111111111111111111111111100000000000000001F1F1F1F1F1F1F1F1F1F1F1F1F1F1F1F1F1F1F1F1F1F1F1F1F1F1F1F1F1F1F1F0000000028
:402480000000000000000000000000000000000000000000FFFFFFFFFFFFFFFFFFFFFFFF111111111111111111111111111111111111111111111111111111111111111108
:4024C0001111111111111111111111111111111100000000000000001F1F1F1F1F1F1F1F1F1F1F1F1F1F1F1F1F1F1F1F1F1F1F1F1F1F1F1F1F1F1F1F0000000000000000EC
:4025000000000000000000000000000000003000FFFFFFFFFFFFFFFFFFFFFFFF1111111111111111111111111111111111111111F111111111111111111111111111111133
:4025400011111111111111111111111100000000000000000C1F1F1F1F1F1F1F1F1F1F1F1F1F1F1F1F1F1F1F1F081F1F1F1F1F1F1F1F1F1F000000000000000000000000D9
:40258000000000000000000000000000FFFFFFFFFFFFFFFFFFFFFFFF1F111111111111111111111111111111111111111111111111111111111111F1111111111111111191
:4025C000111111111111111100000000000000001F1F1F1F1F1F1F1F1F1F1F1F1F1F1F1F1F1F1F1F1F1F0C1F1F1F1F1F1F1F1F1F0000000000000000000000000000000086
:402600000F00000F000000F0FFFFFFFFFFFFFFFFFFFFFFFF1D1111111111111111111111111111111111111111111111111111D1111111D111111111111111111111111120
:402640001111111100000000000000001F1F1F1F1F1F1F1F1F1F1F1F1F1F1F1F1F1F1F1F1F1F1F1F1F1F1F1F1F1F1F1F000000000000000000000000000000000000000036
:4026800000000000FFFFFFFFFFFFFFFFFFFFFFFF111111111111111111111111111111111111111111111111111111111111111111111111111111111111111111111111F6
:4026C00000000000000000001F1F1F1F1F1F1F1F1F1F1F1F1F1F1F1F1F1F1F1F1F1F1F1F1F1F1F1F1F1F1F1F000000000000000000000000000000000000000000000000FA
:40270000FFFFFFFFFFFFFFFFFFFFFFFF1111111111111111111111111111111111111111111111111111111111111111111111111111111111111111111111110000000075
:40274000000000001F1F1F1F1F1F1F1F1F1F1F1F1F1F1F1F1F1F1F1F1F1F1F1F1F1F1F1F1F1F1F1F000000000000000000000000000000000000000000000000FFFFFFFF7D
:40278000FFFFFFFFFFFFFFFF1111111111111111111111111111111111111111111111111111111111111111111111111111111111111111111111110000000000000000F1
:4027C0001F1F1F1F1F1F1F1F1F1F1F1F1F1F1F1F1F1F1F1F1F1F1F1F1F1F1F1F1F1F1F1F000000000000000000000000000000000000010000000000FFFFFFFFFFFFFFFF00
:40280000FFFFFFFF11111111111111111111111011111111111111111111111111111111111111111111111111111111111111111111111100000000000000000C1F1F1F04
:402840001F1F1F1F1F1F1F1F1F1F1F1F04001402021F08121F1F1F1F1F1F1F1F000000001F00000000000000000000000F0F00004500030FFFFFFFFFFFFFFFFFFFFFFFFF0F
:40288000111111111111101111111D11D11011E111111111111111111111111111111D011101111111111111111111111111111100000000000000001F1F1F1F1F1F1F1F6A
:4028C0001F1F1F1F1F1F1F1F1F02021F1F1F1F171F1F1F1F1F1F1F1F0000000000000000000000000000000000F5FF0F00F00F0FFFFFFFFFFFFFFFFFFFFFFFFF111F1111DB
:40290000111F1D111111111111DD11111111111111111D1111111111111111D11FD1111111111111111111111111D11100000000000000001F1F1F1F1F1F1F1F1F1F1F1FF7
:402940001F1F1F1F1F1F1F1F1F1F1F1F1F1F1F1F1F1F1F1F000000000000000000000000000000000000000000000000FFFFFFFFFFFFFFFFFFFFFFFF11111111111111116F
:402980001111111111111111111111111111111111111111111111111111111111111111111111111111111147656E6572617465645F536F757263655C50536F43365C705D
:4029C000646C5C647269766572732F7065726970686572616C2F6970632F63795F6970635F6472762E68000047656E6572617465645F536F757263655C50536F43365C70ED
:402A0000646C5C647269766572735C7065726970686572616C5C6770696F5C63795F6770696F2E630000000047656E6572617465645F536F757263655C50536F43365C70EF
:402A4000646C5C647269766572735C7065726970686572616C5C6770696F5C63795F6770696F2E680000000047656E6572617465645F536F757263655C50536F43365C70AA
:402A8000646C5C647269766572735C7065726970686572616C5C6970635C63795F6970635F6472762E68000047656E6572617465645F536F757263655C50536F43365C70A5
:402AC000646C5C647269766572735C7065726970686572616C5C6970635C63795F6970635F6472762E63000047656E6572617465645F536F757263655C50536F43365C706A
:402B0000646C5C647269766572735C7065726970686572616C5C6970635C63795F6970635F706970652E630047656E6572617465645F536F757263655C50536F43365C70C7
:402B4000646C5C647269766572735C7065726970686572616C5C70726F745C63795F70726F742E630000000047656E6572617465645F536F757263655C50536F43365C7082
:402B8000646C5C647269766572735C7065726970686572616C5C737973696E745C63795F737973696E742E630000000047656E6572617465645F536F757263655C50536FBD
:402BC00043365C70646C5C647269766572735C7065726970686572616C5C737973706D5C63795F737973706D2E63000000002040000024400000004000000000000023407A
:402C0000000030400000314000009F40000022400000104002020202020202020210101D800017007500FF030602063604102000000000007FC0000000040000000000000A
:402C40000019324B647D00804000080B100000000000FF012002001F00800004FF081018001000140018001C4044484C50000000081000000800000004000000041000000E
:402C80000012000004210000002100000016000040114002C41300138013A013200000001C00000000002140000025400000014000003440000024400000314000003240E5
:402CC00000001F410000234000001140010101010101010101101010800019005500F0000501053B04101C01010000000FC000000004000001010101011D3A577896000895
:402D00002000101208000000001F00000010000F002000023F06080E00080009000A000B24282C3034000000100000009000000088000000080000008000000004F00000E8
:402D400000F00000400200002005A000D00100018001A0012000000010000000000000000000001000000008C0000000802D0010C0000008400500003C060008D801000073
:402D80000048E80100127A0000093D0000093D0000093D0004000000A00F00000000D007E9000010C10000100000000010B50004400B27D0144B1A68146AB023D15ACA00FE
:402DC000531AE3181B68002BF4DA3E220F4B1A600F4A104B1A60104B0621A322D20099500E4A98509B58084B1A68106AB023D15ACA00531AC31800225A60084B064AD3584F
:402E0000002BFADA10BDC04610080008040126401E1F000008012640000026401C05000010B54378FF2B20D100F02AFA04000F4B1A683123D35C042B04D8C421FF310C487C
:402E400000F00EFA094B1A68116AB023D35A9B00CB18DB685A68116801230B4313601368DB07FCD4200000F0F3F910BD10080008A8290010F0B585B001900291544B1A6812
:402E80003123D35C002B04D1C421FF31514800F0E7F94F4B1B681E6AB4229A58971950229B5C002B77D000F0E3F9050003283CD1474B1A683123D35C062B04D8C421FF3157
:402EC000444800F0CDF9424B1968B023CB5A5A00D21853000A6A94466344B4228A58D3181B68002B23DB002000F0D2F93A4B98421FD03A4B1A6900230021012000F0D8F958
:402F0000002803D0364C17E0013400E00024002000F0BEF9304B984202D0324B9C42F3D9304B9C4207D92E4C06E0002404E02C4C02E02B4C00E00024002C46D100F0A0F98D
:402F40000390294B294AD358002B13DA234A0121300000F0A5F900280ED10298FFF726FF019B002B0AD03B68002BFCDB00F060F9040004E01A4C02E0194C00E01C4C032DEF
:402F800005D10121002000F05BF90028F9D1039800F05EF919E000F073F905000F4A0121300000F07DF9002809D1019B002B08D03B68002BFCDB00F03BF9040002E0084CD2
:402FC00000E00B4C280000F043F9200005B0F0BD10080008A829001001018800E807000805005200EF4902001C0500000000264001005000F0B54F464646C0B4824B1A6850
:403000005468B0235B055B78002B04D0B0235B055B78DBB200E02123212B67D1B023D15ACB005B1A116A8C46634419680029F5DADD6802212943D960B023D15ACB005B1A9E
:40304000116A8C466344D968C9073ED5D9680904090C8C4684271168D559A84641440968090A0904FF26360431400D0088261168894691598846C14449460968090A0906FB
:40308000294365462943D9601168D359C9180A685E4B98461A4090252D012A430A605A4B99461A6813689C46925962441368414619400B002B4313604B461A681568D159CC
:4030C00069180B689359EB181B684F4B1A68B021555AEB005B1B156AAC46634400255D60156A515ACA00531AEB185B68484A116904230B431361012801D030BF00E020BFAF
:40310000414B1A68B023D15ACB005B1A116A8C46634419680029F3DAB02149054978002904D0B02149054978C9B200E02121212932D1D968C90722D51068842152588018CA
:403140000468324A1440DB681B0C1B02FF2109020B40234303602C4B19688823C8580B689C46604403681A400D6AB023CC5AE1000B1BEB18DB681B0E1B021A430260224B9D
:403180001A68106AB023D15ACA00531AC318DA6802218A43DA6028E086235B00E358002B23D11C4807681C4BA321C9005E581B4A904615681A4A0260062058503E21424681
:4031C00011600631174A9950164B134AD358002BFADA154A86235B00E2500E4B1F60A323DB000D4AD6500D4B1D60074B1A68106AB023D15ACA00531AC31800225A600CBC93
:4032000090469946F0BDC04610080008FF00FFFF00ED00E00801264000002640040126401E1F00001C050000AAAAAAAA0000000001B40248844601BC604700BF790A001077
:4032400001B40248844601BC604700BFD10D001001B40248844601BC604700BF3B17001001B40248844601BC604700BFB515001001B40248844601BC604700BF350400102B
:4032800001B40248844601BC604700BF3317001001B40248844601BC604700BF5D0E001001B40248844601BC604700BF450C001001B40248844601BC604700BF41100010C7
:4032C00000000000000000000000000000000000000000000000000000000000000000000000000000000000000000000000000000000000000000000000000000000000CE
:40330000000000000000000000000000000000000000000000000000000000000000000000000000000000000000000000000000000000000000000000000000000000008D
:40334000000000000000000000000000000000000000000000000000000000000000000000000000000000000000000000000000000000000000000000000000000000004D
:40338000000000000000000000000000000000000000000000000000000000000000000000000000000000000000000000000000000000000000000000000000000000000D
:4033C00000000000000000000000000000000000000000000000000000000000000000000000000000000000000000000000000000000000000000000000000000000000CD
:020000041001E9
:4000000000780408EB0201100D00000051030110510301105103011051030110000000000000000000000000000000004D0301104D030110000000004D0301104D03011019
:400040004D0301104D0301104D0301104D0301104D0301104D0301104D0301104D0301104D0301104D0301104D0301104D0301104D0301104D0301104D0301104D03011070
:400080004D0301104D0301104D0301104D0301104D0301104D0301104D0301104D0301104D0301104D0301104D0301104D0301104D0301104D0301104D0301104D03011030
:4000C0004D0301104D0301104D0301104D0301104D0301104D0301104D0301104D0301104D0301104D0301104D0301104D0301104D0301104D0301104D0301104D030110F0
:400100004D0301104D0301104D0301104D0301104D0301104D0301104D0301104D0301104D0301104D0301104D0301104D0301104D0301104D0301104D0301104D030110AF
:400140004D0301104D0301104D0301104D0301104D0301104D0301104D0301104D0301104D0301104D0301104D0301104D0301104D0301104D0301104D0301104D0301106F
:400180004D0301104D0301104D0301104D0301104D0301104D0301104D0301104D0301104D0301104D0301104D0301104D0301104D0301104D0301104D0301104D0301102F
:4001C0004D0301104D0301104D0301104D0301104D0301104D0301104D0301104D0301104D0301104D0301104D0301104D0301104D0301104D0301104D0301104D030110EF
:400200004D0301104D0301104D0301104D0301104D0301104D0301104D0301104D0301104D0301104D0301104D0301104D0301104D0301104D0301104D0301104D030110AE
:400240004D0301104D0301104D0301104D0301104D0301104D0301104D0301104D0301104D0301104D0301104D0301104D0301104D0301104D0301104D0301104D0301106E
:400280004D0301104D0301104D03011010B5054C237833B9044B13B10448AFF300800123237010BD844C02080000000044E80210084B10B51BB108490848AFF3008008486A
:4002C000036803B910BD074B002BFBD0BDE81040184700BF00000000884C020844E8021064430208000000007047FFF7FDFF72B6104C114DAC4209DA21686268A368043BE9
:40030000A2BFC858D050FAE70C34F3E70B490C4A00209142BCBF41F8040BFAE709480A490860BFF34F8F15F073FE15F0C3FC14F0DBFEFEE748E8021060E80210844C0208D2
:40034000F47B03080040020808ED00E0FEE7FEE700B504207146084202D0EFF3098001E0EFF30880043016F023FFFEE780B582B000AF78607B68002B02D10BF0ABFA786030
:400380007B68002B01D1002301E07B681B6B18460837BD4680BD00BF80B582B000AF78607B68002B02D10BF095FA78607B68002B01D1002301E07B685B6B18460837BD46F6
:4003C00080BD00BF80B582B000AF78607B68002B02D10BF07FFA78607B68002B01D1002301E07B689B6B18460837BD4680BD00BF80B500AF002000F0B1F800BF80BD00BF25
:4004000090B589B000AF78607B68DB684B4A13604A4B1B68DB68002B00F08980474B1B68184600F08DFD454B1B6893F84C3003F00403DBB2002B7CD1404B1B6807F10C02F0
:40044000114618460BF0D2FB0346FB773B4B1B68184600F075FD3A4B00221A60374B1B68BA7E1A77354B1B681B7F012B08D1334B1B68DC680BF006FC0346C4F8603110E022
:400480002E4B1B681B78042B0BD1B7F91830002B07D02A4B1B68DC680BF0F4FB0346C4F86031264B1B681B78012B08D1234B1B6807F10C021146184600F09CF828E01F4BBE
:4004C0001B681B78022B08D11C4B1B6807F10C021146184600F0DAF81AE0184B1B681B78042B08D1154B1B6807F10C021146184600F0D8F80CE0114B1B681B78032B07D13C
:400500000E4B1B6807F10C021146184600F0D6F80A4B1B68184600F013FDFB7F002B8BD1064B00221A60064B00221A6002E000BF00E000BF2437BD4690BD00BFA04C0208B5
:40054000A44C020880B400AF034B1B681846BD465DF8047B704700BFA04C020880B584B000AF78607B68002B07D07A6892F84C3043F0020382F84C3012E000200BF01EFB1B
:40058000F8600AE0FA6892F84C3043F0020382F84C30F8680BF012FBF860FB68002BF1D100BF1037BD4680BD80B483B000AF786039607B681B78012B0CD07B681B78032B64
:4005C00008D03B684FF6FF721A803B684FF6FF725A8009E07B68B3F920203B681A807B68B3F922203B685A8000BF0C37BD465DF8047B704780B582B000AF786039607B68C0
:400600001B6D002B1AD07B68B3F924203B68B3F900309A4207D17B68B3F926203B68B3F902309A420AD07B68186D3B68B3F900103B68B3F902301A4601F000FC3B68B3F927
:4006400000207B681A843B68B3F902207B685A847B681B7F012B05D17B681C33184600F073F804E07B681C33184600F0F9FA7B68B3F920207B689A847B68B3F922207B6862
:40068000DA8400BF0837BD4680BD00BF80B483B000AF7860396000BF0C37BD465DF8047B704700BF80B483B000AF7860396000BF0C37BD465DF8047B704700BF80B582B0CC
:4006C00000AF786039607B689A6D3B689B689B001344B3F900207B681A847B689A6D3B689B689B001344B3F902207B685A847B68B3F924207B68B3F920309A4211D17B68A7
:40070000B3F926207B68B3F922309A4209D13B689B7B012B05D17B681C33184600F014F804E07B681C33184600F09AFA7B68B3F920207B689A847B68B3F922207B68DA840F
:4007400000BF0837BD4680BD80B588B000AF78607B689B697C4A13607B6893F8303003F00803DBB2002B40F05D82784B1B68DB683B610023FB77744B1B68002B2BD13869D0
:40078000FFF720FE03461946786800F027FC02466D4B1A606C4B1B68002B0AD13869FFF7FBFD03461946786800F018FC0246664B1A60654B1B68002B0AD13869FFF7D6FD9F
:4007C00003461946786800F009FC02465E4B1A600123FB773EE07B6893F8243003F00203DBB2002B36D1584B1B681021184602F079FC034683F00103DBB2002B2AD03869B5
:40080000FFF7E0FD03461946786800F0E7FB02464D4B1A604C4B1B68002B0AD13869FFF7BBFD03461946786800F0D8FB0246464B1A60454B1B68002B0AD13869FFF796FDE1
:4008400003461946786800F0C9FB02463E4B1A600123FB77FB7F002B0CD07B68DB69002B08D07B6800229A827B680022DA82786800F092FD7B689A69334B1B689A4200F01C
:400880009C807B68B3F904207B681A817B68B3F906207B685A817B689B69002B1CD07B689B69FB60FB68DB69284A12680A21F8689847786800F0B2FE0346002B40F0B481E2
:4008C00000220221F86802F083F9786800F0A6FE0346002B40F0AA811B4B1A687B689A61194B1A687B68DA61174B1B68002B64D00BF0C8F902467B689A627A6892F83030E5
:400900006FF3000382F830307A6892F824306FF3000382F824307A6892F824306FF3410382F824307B6800221A827B6800225A827B6800229A817B680022DA81024B1B687F
:40094000BB6100237B6111E0A44C0208A04C0208BB6993F82C3003F02003DBB2002B01D0BB697B61B86902F04BFAB861BB69002BEED17B69002B02D0786901F035FAAC4B79
:400980001B68DB69AA4A1068AA4A126808219847786800F043FE0346002B40F04D81A44B1B6800220021184602F012F9786800F035FE0346002B40F041817B68B3F90430CF
:4009C0009AB27B68B3F908309BB2D31A9BB21AB27B689A817B68B3F906309AB27B68B3F90A309BB2D31A9BB21AB27B68DA817B68B3F914301A4613469B001344DB101AB2F3
:400A00007B689A827B68B3F916301A4613469B001344DB101AB27B68DA827B68B3F91430002B09DA7B68B3F914309BB201339BB21AB27B689A820DE07B68B3F91430002B09
:400A400008DD7B68B3F914309BB2013B9BB21AB27B689A827B68B3F91630002B09DA7B68B3F916309BB201339BB21AB27B68DA820DE07B68B3F91630002B08DD7B68B3F92B
:400A800016309BB2013B9BB21AB27B68DA827B68B3F914309AB27B68B3F90C309B00DB109BB213449BB21AB27B689A827B68B3F916309AB27B68B3F90E309B00DB109BB222
:400AC00013449BB21AB27B68DA82594B1B68002B00F0C380564B1B68DB69554A1068554A126809219847786800F098FD0346002B40F0A6804E4B1B6800220121184602F042
:400B000067F8786800F08AFD0346002B40F09A80786800F0B7FA786800F080FD0346002B40F092807B6893F8243003F00203DBB2002B3AD17B6893F8303003F00103DBB2EE
:400B4000002B32D17B689B6A18460BF0B5F80246384B1B68DB8A9A4227D9354B1B68DB69334A1068334A12680C219847786800F055FD0346002B69D12D4B1B680022042179
:400B8000184602F025F8786800F048FD0346002B5ED17A6892F8303043F0010382F830300BF070F802467B68DA627B6893F8243003F00203DBB2002B4FD17B6893F8303009
:400BC00003F00103DBB2002B47D07B68DB6A18460BF072F80246174B1B681B8B9A423CD9134B1B68DB69124A1068124A12680D219847786800F012FD0346002B2AD10C4BFF
:400C00001B6800220521184601F0E2FF786800F005FD0346002B1FD10BF034F802467B68DA621AE000BF18E000BF16E000BF14E0A44C0208A04C020800BF0EE000BF0CE094
:400C400000BF0AE000BF08E000BF06E000BF04E000BF02E000BF00E000BF2037BD4680BD80B584B000AF78607B6893F8303003F00803DBB2002B12D07B6800229A617B680D
:400C80000022DA617B6800229A627B680022DA627A6892F830306FF3C30382F830307B689B69A54A1360A44B1B68002B00F01481A14B1B681021184602F014FA0346002BEA
:400CC00049D09D4B1B68DB699B4A10689B4A12680B219847786800F0A1FC0346002B40F010817B6893F8243003F00203DBB2002B23D17B6893F8303003F00103DBB2002BE0
:400D00000DD18D4B1B6800220321184601F060FF786800F083FC0346002B40F0F480864B1B6800220621184601F052FF786800F075FC0346002B40F0E8807F4B1B68002226
:400D40000721184601F044FF786800F067FC0346002B52D0ECE0784B1B68DB69764A1068764A12680B219847786800F057FC0346002B40F0CC807B6893F8303003F0010345
:400D8000DBB2002B15D17B6893F8243003F00203DBB2002B0DD1684B1B6800220321184601F016FF786800F039FC0346002B40F0B0807B6893F8243003F00203DBB2002B1A
:400DC0000DD15D4B1B6800220621184601F000FF786800F023FC0346002B40F09C80564B1B6800220721184601F0F2FE786800F015FC0346002B40F09080786800F00EFC88
:400E00000346002B40F08B800023FB727B681A6A494B1B689A4223D0FB7A83F00103DBB2002B1DD07B681B6A00220D21184601F0CFFE786800F0F2FB0346002B71D17B686B
:400E40009B6900220C21184601F0C2FE786800F0E5FB0346002B66D1374B1A687B681A62786800F0DBFB0346002B5ED1324B1B68FB6003E0F86801F0C3FFF860F86802F00E
:400E8000EFF80346002B02D0FB68002BF2D1FB68002B18D0F86802F0CDF80346002B12D07B6893F8243003F00203DBB2002B0AD000220A21F86801F08BFE786800F0AEFBE5
:400EC0000346002B33D17B6800229A617B6800229A627B680022DA627B68DB69002B27D07B6893F8303003F00203DBB2002B1FD1786800F051FA786800F090FB0346002B97
:400F000016E000BF14E000BF12E000BF10E000BF0EE000BF0CE000BF0AE000BF08E000BF06E000BF04E000BF02E000BF00E000BF1037BD4680BD00BFA44C0208A04C020883
:400F400080B483B000AF78607B6893F84C3003F00203DBB2002B39D07B6800225A637B6800229A637B680022DA637A6892F840306FF3000382F840307A6892F840306FF371
:400F8000410382F840307A6892F84C306FF3000382F84C307B6800225A647B6800229A647B6800229A857B680022DA857B6800221A867B6800225A867A6892F84C306FF39E
:400FC000410382F84C30044B00221A6000BF0C37BD465DF8047B7047A44C020880B586B000AF7860396000237B613B6803F110027B680433194610460BF056F90346002B82
:401000003AD03B68043318460BF0D8FC38610EE039697868FFF7E2FF78617B69002B0AD13B680433396918460BF0F0FC38613B69002BEDD100E000BF7B69002B1CD13868DA
:4010400001F0BCFF0346002B16D03B68FB6009E0F86801F09DFF0346002B07D1F86801F0CFFEF860FB68002BF2D100E000BFFB68002B01D13B687B617B6918461837BD4671
:4010800080BD00BF80B58AB000AF78607B689B697B62002387F8233003E0786A01F0B0FE7862786A01F0DCFF0346002B02D07B6A002BF2D17B6A002B00F06281786A01F0CA
:4010C00093FF034683F00103DBB2002B40F05A81786A01F09FFF03467B777B68B3F910309AB27B68B3F90C309BB213449BB21AB27B681A827B68B3F912309AB27B68B3F961
:401100000E309BB213449BB21AB27B685A827B6893F8243003F00103DBB2002B29D17B7F03F00103002B0AD07B68B3F91030002BB8BF5B42974A1268127D93420FDA7B7FE4
:4011400003F00203002B14D07B68B3F91230002BB8BF5B428F4A1268127D934209DB7A6892F8243043F0010382F82430012387F823307B6893F8243003F00103DBB2002B91
:4011800000F005817B68B3F90C30002B05D17B68B3F90E30002B00F0FA807E4B1B68DB6818460AF027FC03467B837B6A1B8A3B837B6A5B8AFB82786A01F022FE0346184611
:4011C00001F098FE0346BB82786A01F019FE0346184601F09DFE03467B82786A01F04AFE03463B84786A01F065FE0346FB837B7F032B28D197F82330002B0FD07B68B3F9C3
:4012000010309AB23B8C13449BB23B847B68B3F912309AB2FB8B13449BB2FB837B68B3F90C309AB23B8C13449BB219B27B68B3F90E309AB2FB8B13449BB21BB21A46786A94
:4012400000F0FCFD3AE07B7F03F00103002B18D097F82330002B07D07B68B3F910309AB23B8C13449BB23B847B68B3F90C309AB23B8C13449BB21BB21946786A00F06AFE56
:401280001CE07B7F03F00203002B17D097F82330002B07D07B68B3F912309AB2FB8B13449BB2FB837B68B3F90E309AB2FB8B13449BB21BB21946786A00F062FE7B6AB3F953
:4012C0001030B7F918209A4237D17B6AB3F91230B7F916209A4230D1786A01F091FD0346184601F007FE03463B82786A01F088FD0346184601F00CFE0346FB81B7F91020A9
:40130000B7F914309A423FD1B7F90E20B7F912309A4239D11F4B1B68DB6818460AF06AFB0346BB811B4B1B68D868BA897B8BD31A9BB219460AF06EFB26E07A6892F8243071
:4013400043F0020382F8243097F82330002B1ED07B6ADB690F4A12680E21786A9847786800F05CF90346002B10D100220821786A01F02EFC786800F051F90346002B06E04A
:4013800000BF04E000BF02E000BF00E000BF2837BD4680BDA04C020880B58AB000AF78607B6893F8243003F00203DBB2002B00F023817B68DB697B6203E0786A01F020FD23
:4013C0007862786A01F04CFE0346002B02D07B6A002BF2D17B6A002B00F01081786A01F029FE034683F00103DBB2002B1FD07A6892F824306FF3410382F824307B6ADB698E
:40140000844A12680F21786A984700220921786A01F0DEFB786800F001F90346002B40F0EF8000220921786A01F0D2FBEFE0786A01F0F0FD034687F823307B68B3F9143035
:401440001A46744B1B685B7DC3F1640303FB02F3714A82FB03125211DB17D31A1AB27B689A827B68B3F916301A466A4B1B685B7DC3F1640303FB02F3674A82FB0312521191
:40148000DB17D31A1AB27B68DA827B68B3F91430002B05D17B68B3F91630002B00F08D8007F114031946786A01F0D4FC786A01F0E1FC03469AB27B68B3F914309BB21344A4
:4014C0009BB23B84786A01F0F5FC03469AB27B68B3F916309BB213449BB2FB8397F82330032B08D1B7F91E20B7F920301946786A00F0A4FC18E097F8233003F00103002B9F
:4015000006D0B7F920301946786A00F023FD0BE097F8233003F00203002B05D0B7F91E301946786A00F02CFD07F10C031946786A01F090FCB7F91420B7F90C309A4204D022
:401540007B68B3F91430002B5CD1B7F91620B7F90E309A4204D07B68B3F91630002B51D17A6892F824306FF3410382F824307B6800229A817B680022DA817B6800229A82C5
:401580007B680022DA827B6ADB69224A12680F21786A9847786800F041F80346002B33D100220921786A01F013FB786800F036F80346002B26D000BF29E07A6892F824302C
:4015C0006FF3410382F824307B6ADB69114A12680F21786A9847786800F020F80346002B14D100220921786A01F0F2FA786800F015F80346002B0AE000BF08E000BF06E0B5
:4016000000BF04E000BF02E000BF00E000BF2837BD4680BDA04C02081F85EB5180B483B000AF78607B6893F8303003F00203DBB2002B02D0094B00221A607B6893F8303097
:4016400003F00203DBB2002B14BF01230023DBB218460C37BD465DF8047B7047A44C020880B582B000AF7860396008223968786818F032F900BF0837BD4680BD80B483B0E0
:4016800000AF78607B68B3F904309AB27B68B3F900309BB2D31A9BB201339BB21BB218460C37BD465DF8047B704700BF80B483B000AF78607B68B3F906309AB27B68B3F984
:4016C00002309BB2D31A9BB201339BB21BB218460C37BD465DF8047B704700BF80B500AF114B1B78002B1DD10BF05CFA0BF0FEFB0AF0FEFA02F0C8FC01F006FF4FF4B271C0
:401700000A480AF0B5FF5C2109480AF0B1FFFEF76FFE08F0B1FC012008F0E4FB024B01221A7000E000BF80BDA84C0208DC720308CC72030890B587B000AF786039600023FD
:401740007B617B68002B40F0B6800AF0C3F838613B69002B01D1002364E23B69243318460AF0A6FF78617B69002B01D1002359E27B6900221A607B690433402118460AF05D
:4017800077FF7B69874ADA617B69874A1A627B6900229A617B6900221A827B6900225A8200200AF0A3F803469BB2013B9BB21AB27B699A8200200AF0BBF803469BB2013BCE
:4017C0009BB21AB27B69DA827B6900221A867B69002283F83C207B6900221A877B6900225A877B6900225A637A6992F83D306FF3000382F83D3011F013FEF860FB68002B9E
:4018000004D0FB681A687B699A6202E07B69674A9A627A6992F82C306FF3000382F82C307A6992F82C306FF3410382F82C307A6992F82C306FF3820382F82C307A6992F860
:401840002C306FF3C30382F82C307A6992F82C306FF3041382F82C307A6992F82C306FF3451382F82C307B69002283F82E207A6992F82C306FF3861382F82C307B69FF222F
:4018800083F82F207A6992F82C306FF3C71382F82C307A6992F82D306FF3830382F82D307A6992F82D306FF3061382F82D307B6900225A62D0E07B68043318460AF0F8FE04
:4018C00078617B69002B01D10023ABE17B697A681A607B690433402118460AF0C9FE7B69304ADA617B69304A1A627B6900229A617A6992F82D306FF3830382F82D307B68C4
:40190000B3F912207B695A827B68B3F912309BB264339BB21AB27B69DA82786901F0B6FB0346012B0ED17B68B3F914207B699A827B68B3F914309BB2963B9BB21AB27B6973
:401940001A820DE07B68B3F910207B691A827B68B3F910309BB296339BB21AB27B699A827B6900221A867B69002283F83C207B6900221A877B6900225A877B6900225A63CD
:401980007A6992F83D306FF3000382F83D3011F047FDB860BB68002B0AD0BB689A687B699A6208E0BD320110A1310110D07103087B699E4A9A627A6992F82C3043F0010398
:4019C00082F82C307A6992F82C306FF3410382F82C307A6992F82D3043F0030382F82D307A6992F82C306FF3820382F82C307A6992F82C306FF3C30382F82C307A6992F838
:401A00002C306FF3041382F82C307A6992F82C306FF3451382F82C307B69002283F82E207B69FF2283F82F207A6992F82C306FF3861382F82C307A6992F82C306FF3C71365
:401A400082F82C307A6992F82D306FF3061382F82D307B6900225A623B68002B00F0D5807B6903F110023B68103319461046FFF7F7FD3B68B3F930207B691A863B6893F8DF
:401A80003C207B6983F83C203B68B3F938207B691A873B68B3F93A207B695A873B685A6B7B695A633B6893F83D30C3F30003D9B27A6992F83D3061F3000382F83D303B68D2
:401AC0009A697B699A613B6893F82C30C3F30003D9B27A6992F82C3061F3000382F82C303B6893F82C30C3F34003D9B27A6992F82C3061F3410382F82C303B6893F82D3070
:401B0000C3F30103D9B27A6992F82D3061F3010382F82D303B6893F82C30C3F38003D9B27A6992F82C3061F3820382F82C303B6893F82C30C3F3C003D9B27A6992F82C304A
:401B400061F3C30382F82C303B6893F82C30C3F30013D9B27A6992F82C3061F3041382F82C303B6893F82C30C3F34013D9B27A6992F82C3061F3451382F82C303B6893F8F6
:401B80002C30C3F3C013D9B27A6992F82C3061F3C71382F82C303B6893F82C30C3F38013D9B27A6992F82C3061F3861382F82C303B6893F82E207B6983F82E203B6893F8A7
:401BC0002F207B6983F82F203B689A6A7B699A62386801F015F90346002B11D07B68002B0ED0386801F046F903461C46386801F061F903461A462146786900F01FF904E03E
:401C000000220021786900F019F97B68002B08D07B68DB697A69012178689847786900F0A9F87B6918461C37BD4690BD7072030880B58CB000AF78603960786801F0A8F966
:401C40000346002B40F08E80786801F08BF87862786A01F09BF83862386AFEF787FB02467B6A9A420DD0386AFEF796FB02467B6A9A4206D0386AFEF7A5FB02467B6A9A423E
:401C800075D17B681B8EFB837B6803F1100207F1140311461846FFF7E3FCB7F914309AB2FB8BD31A9BB21BB2BB82B7F916309AB2FB8BD31A9BB21BB2FB82B7F918309AB2B8
:401CC000FB8B13449BB21BB23B83B7F91A309AB2FB8B13449BB21BB27B8307F1140207F10C03396818460AF051FA034687F82F3097F82F3083F00103DBB2002B34D1786872
:401D000001F07EF8B8621DE0BB6A03F1100207F10C0107F10C0318460AF038FA034687F82F3097F82F3083F00103DBB2002B0DD1B86A01F02DF90346002B17D1B86A01F09A
:401D40005FF8B862BB6A002BDED100E000BF97F82F30002B0BD007F10C031946386A01F0DBFB04E000BF02E000BF00E000BF3037BD4680BD80B586B000AF78607B681B8E89
:401D8000FB827B6803F1100207F10C0311461846FFF766FCB7F90C309AB2FB8AD31A9BB21BB2BB81B7F90E309AB2FB8AD31A9BB21BB2FB81B7F910309AB2FB8A13449BB202
:401DC0001BB23B82B7F912309AB2FB8A13449BB21BB27B8207F10C0319467868FFF728FF00BF1837BD4680BD80B584B000AF7860786801F005F8F860FB68043318460AF06F
:401E0000DDFD02467B689A4214D0F868FFF7B2FFFB68181DFB68191D01237A680AF078FDFB68DB697A680121F8689847F868FFF7A1FF00E000BF1037BD4680BD80B586B0BF
:401E400000AF78600B467B8013463B807B681B687B617B69B3F910309AB27B8813449BB27B807B69B3F912309AB23B8813449BB23B807A887B68B3F910309BB2D31A9BB2E3
:401E80001BB23B823A887B68B3F912309BB2D31A9BB21BB27B82B7F91030002B03D1B7F91230002B51D07868FFF764FF07F108031946786800F0CEFF7B68B3F910309AB234
:401EC000B7F910309BB213449BB21AB27B681A827B68B3F912309AB2B7F912309BB213449BB21AB27B685A827B68B3F914309AB2B7F910309BB213449BB21AB27B689A8260
:401F00007B68B3F916309AB2B7F912309BB213449BB21AB27B68DA82B7F91030B7F912201946786801F00CFA7B68DB6907F108020221786898477B69DB697A680121786972
:401F400098477868FFF716FF00E000BF1837BD4680BD00BF80B582B000AF78600B467B80786800F0A7FF03461A46B7F9023019467868FFF763FF00BF0837BD4680BD00BFDB
:401F800080B582B000AF78600B467B80786800F071FF03461946B7F902301A467868FFF74DFF00BF0837BD4680BD00BF80B586B000AF78600B467B8013463B80786800F07C
:401FC00099FF03461A46B7F90230934208D1786800F09EFF03461A46B7F9003093426DD07868FFF7C7FE07F108031946786800F031FF7B68B3F912309AB23B8813449BB287
:40200000013B9BB21AB27B68DA82786801F03EF80346012B0CD17B68B3F914309AB27B88D31A9BB201339BB21AB27B681A820BE07B68B3F910309AB27B8813449BB2013BA2
:402040009BB21AB27B689A827B68DB6907F10802022178689847786800F0D2FE38613B69002B05D03B69DB697A680121386998477B68043318460AF0A1FC78610CE07B693C
:40208000DB6900220321786998477B680433796918460AF0BBFC78617B69002BEFD17868FFF768FE7B6893F83D3003F00103DBB2002B04D0786800F08FFC00E000BF183740
:4020C000BD4680BD80B582B000AF78600B467B80786800F00FFF03461946B7F902301A467868FFF763FF00BF0837BD4680BD00BF90B589B000AFF860B96011461A460B46C3
:40210000FB711346BB80F86800F0B4FE0346FB83F86800F0CFFE0346BB83BB68002B03D1F86800F06DFEB860FB79142B00F2F98101A252F823F000BF8D210110E32101108B
:40214000ED2101101D2201103D2201105D220110A3220110D9220110092301104F23011065230110A1230110CD230110DD23011013240110392401104F2401108B240110D4
:40218000B7240110C7240110FD240110B86800F0B1FE0346DA0F13445B101BB29CB2F86800F0A8FE0346DA0F13445B101BB29BB2E31A9BB2FB83B86800F0AAFE0346DA0F81
:4021C00013445B101BB29CB2F86800F0A1FE0346DA0F13445B101BB29BB2E31A9BB2BB839FE10023FB830023BB839AE1B86800F081FE0346DA0F13445B101BB29CB2F86882
:4022000000F078FE0346DA0F13445B101BB29BB2E31A9BB2FB830023BB8382E1B86800F069FE03469CB2F86800F064FE03469BB2E31A9BB2FB830023BB8372E10023FB832B
:40224000B86800F065FE03469CB2F86800F060FE03469BB2E31A9BB2BB8362E1B86800F049FE0346DA0F13445B101BB29CB2F86800F040FE0346DA0F13445B101BB29BB243
:40228000E31A9BB2FB83B86800F042FE03469CB2F86800F03DFE03469BB2E31A9BB2BB833FE1B86800F026FE03469CB2F86800F021FE03469BB2E31A9BB2FB83B86800F0FE
:4022C00027FE03469CB2F86800F022FE03469BB2E31A9BB2BB8324E10023FB83B86800F017FE0346DA0F13445B101BB29CB2F86800F00EFE0346DA0F13445B101BB29BB250
:40230000E31A9BB2BB830CE1B86800F0F3FD03469CB2F86800F0EEFD03469BB2E31A9BB2FB83B86800F0F4FD0346DA0F13445B101BB29CB2F86800F0EBFD0346DA0F134427
:402340005B101BB29BB2E31A9BB2BB83E9E00023FB83F86800F0DCFD03469BB25B429BB2BB83DEE0B86800F0C5FD0346DA0F13445B101BB29CB2F86800F0BCFD0346DA0F25
:4023800013445B101BB29BB2E31A9BB2FB83F86800F0BEFD03469BB25B429BB2BB83C0E0B86800F0A7FD03469CB2F86800F0A2FD03469BB2E31A9BB2FB83F86800F0A8FD83
:4023C00003469BB25B429BB2BB83AAE00023FB83B86800F09DFD0346BB83A2E0B86800F089FD0346DA0F13445B101BB29CB2F86800F080FD0346DA0F13445B101BB29BB2C1
:40240000E31A9BB2FB83B86800F082FD0346BB8387E0B86800F06EFD03469CB2F86800F069FD03469BB2E31A9BB2FB83B86800F06FFD0346BB8374E0F86800F05BFD0346E9
:402440009BB25B429BB2FB830023BB8369E0F86800F050FD03469BB25B429BB2FB83B86800F056FD0346DA0F13445B101BB29CB2F86800F04DFD0346DA0F13445B101BB295
:402480009BB2E31A9BB2BB834BE0F86800F032FD03469BB25B429BB2FB83B86800F038FD03469CB2F86800F033FD03469BB2E31A9BB2BB8335E0B86800F01CFD0346FB8320
:4024C0000023BB832DE0B86800F014FD0346FB83B86800F01DFD0346DA0F13445B101BB29CB2F86800F014FD0346DA0F13445B101BB29BB2E31A9BB2BB8312E0B86800F054
:40250000F9FC0346FB83B86800F002FD03469CB2F86800F0FDFC03469BB2E31A9BB2BB8300BFF86800F06CFCB861BB681B8AFB82BB685B8ABB82BB691B8A7B82BB695B8AE9
:402540003B82BA88FB8A13449AB2FB8B13449BB2FB833A8EBB8A13449AB2BB8B13449BB2BB83FA8B7B8AD31A9BB2FB83BA8B3B8AD31A9BB2BB83B7F91C20B7F91E301946A7
:40258000F868FFF75BFCFB68FA7983F83C20FB68BA881A87FB683A8E5A87FB68BA685A63FA6892F83D306FF3410382F83D3000BF2437BD4690BD00BF80B58AB000AFF860A8
:4025C000B96011461A460B46FB711346BB80F86800F050FC0346FB84F86800F06BFC0346BB84F86800F086FC0346DA0F13445B107B84F86800F08CFC0346DA0F13445B1086
:402600003B84BB68002B03D1F86800F0F9FBB860FB79142B00F2958101A252F823F000BF75260110AB260110BD260110E1260110FD26011019270110472701106D270110A0
:4026400091270110BF270110D1270110F5270110112801102D2801105B2801108128011093280110B7280110D3280110EF2801101D290110B86800F03DFC0346DA0F13444D
:402680005B101BB29AB27B8CD31A9BB2FB84B86800F03EFC0346DA0F13445B101BB29AB23B8CD31A9BB2BB844BE17B8C5B429BB2FB843B8C5B429BB2BB8442E1B86800F080
:4026C00019FC0346DA0F13445B101BB29AB27B8CD31A9BB2FB843B8C5B429BB2BB8430E1B86800F007FC03469AB27B8CD31A9BB2FB843B8C5B429BB2BB8422E17B8C5B42F8
:402700009BB2FB84B86800F003FC03469AB23B8CD31A9BB2BB8414E1B86800F0EBFB0346DA0F13445B101BB29AB27B8CD31A9BB2FB84B86800F0ECFB03469AB23B8CD31AF1
:402740009BB2BB84FDE0B86800F0D4FB03469AB27B8CD31A9BB2FB84B86800F0D9FB03469AB23B8CD31A9BB2BB84EAE07B8C5B429BB2FB84B86800F0CBFB0346DA0F13446A
:402780005B101BB29AB23B8CD31A9BB2BB84D8E0B86800F0AFFB03469AB27B8CD31A9BB2FB84B86800F0B4FB0346DA0F13445B101BB29AB23B8CD31A9BB2BB84C1E07B8CDA
:4027C0005B429BB2FB843B8C5B429BB2BB84B8E0B86800F08FFB0346DA0F13445B101BB29AB27B8CD31A9BB2FB843B8C5B429BB2BB84A6E0B86800F07DFB03469AB27B8CE7
:40280000D31A9BB2FB843B8C5B429BB2BB8498E07B8C5B429BB2FB84B86800F079FB03469AB23B8CD31A9BB2BB848AE0B86800F061FB0346DA0F13445B101BB29AB27B8CC4
:40284000D31A9BB2FB84B86800F062FB03469AB23B8CD31A9BB2BB8473E0B86800F04AFB03469AB27B8CD31A9BB2FB84B86800F04FFB03469AB23B8CD31A9BB2BB8460E0F1
:402880007B8C5B429BB2FB843B8C5B429BB2BB8457E07B8C5B429BB2FB84B86800F038FB0346DA0F13445B101BB29AB23B8CD31A9BB2BB8445E07B8C5B429BB2FB84B868CC
:4028C00000F026FB03469AB23B8CD31A9BB2BB8437E0B86800F00EFB03469AB27B8CD31A9BB2FB843B8C5B429BB2BB8429E0B86800F000FB03469AB27B8CD31A9BB2FB8414
:40290000B86800F005FB0346DA0F13445B101BB29AB23B8CD31A9BB2BB8412E0B86800F0E9FA03469AB27B8CD31A9BB2FB84B86800F0EEFA03469AB23B8CD31A9BB2BB8433
:4029400000BFF86800F05CFAF861BB681B8A7B83BB685B8A3B83FB691B8AFB82FB695B8ABB82BA887B8B13449AB2FB8C13449BB2FB843A8E3B8B13449AB2BB8C13449BB250
:40298000BB84FA8CFB8AD31A9BB2FB84BA8CBB8AD31A9BB2BB84B7F92420B7F926301946F868FFF74BFAFB68FA7983F83C20FB68BA881A87FB683A8E5A87FB68BA685A63DB
:4029C000FA6892F83D3043F0020382F83D3000BF2837BD4680BD00BF80B584B002AF78607B6893F83D3003F00203DBB2002B10D07B68596B7B6893F83C207B68B3F93800AD
:402A00007B68B3F93A30009303467868FFF7D4FD0FE07B68596B7B6893F83C207B68B3F938007B68B3F93A30009303467868FFF75FFB00BF0837BD4680BD00BF80B483B08A
:402A400000AF78600B46FB70FB7803F00103D9B27A6892F83D3061F3000382F83D3000BF0C37BD465DF8047B704700BF80B582B000AF786039607B683A689A62786800F0E0
:402A8000D9FC786800F004F800BF0837BD4680BD80B582B000AF78607868FFF76BF97B68DB6900220421786898477868FFF762F900BF0837BD4680BD80B584B000AF786083
:402AC000002008F073FFF86023E0FB682433184609F074FFB86015E0BB689A6A7B689A4202D07B68002B02D1B868FFF7D1FFB968786800F073FCFB682433B968184609F04F
:402B000085FFB860BB68002BE6D1F86808F04EFFF860FB68002BD8D100BF1037BD4680BD80B483B000AF78600B46FB70FB7803F00103D9B27A6892F82C3061F3000382F842
:402B40002C3000BF0C37BD465DF8047B704700BF80B582B000AF78600B46FB70FB78002B03D001217868FFF7DBFFFB7803F00103D9B27A6892F82C3061F3410382F82C3092
:402B800000BF0837BD4680BD80B483B000AF78600B46FB707B6893F82E20FB781343DAB27B6883F82E2000BF0C37BD465DF8047B704700BF80B483B000AF786039607B68B7
:402BC0003A689A6100BF0C37BD465DF8047B704780B586B000AFF8600B467A60FB72FB68002B01D1012309E0FB689869FA7A7B68F96800F007F80346FB75FB7D1846183748
:402C0000BD4680BD80B58AB000AFF860B9603B601346FB71BB683B6100233B750023BB612B4B1B68002B02D0294B1B68BB61284A07F110031360274B1B687B62254A3B68B7
:402C40001360FDF77FFC38623B6A002B09D03B6A9B68002B05D03B6A9B683A6AF97910469847FB68002B04D0FA79FB681146B8689847184A7B6A1360154B1B689B68144A08
:402C800013603B7D002B01D000231DE0BB68002B19D0BB6893F82C3023F07F03DBB2002B11D0BB681B68002B0DD0BB681B68F9793A681846FFF78CFF0346FB77FB7F012BB6
:402CC00001D0002300E0012318462837BD4680BDAC4C0208B04C020880B483B000AF786039607B683A68DA6100BF0C37BD465DF8047B704780B483B000AF786039607B6896
:402D00003A681A6200BF0C37BD465DF8047B704780B582B000AF78600B467B807B685B6A7A881146184609F0D3FF02467B685A627B685B6A18460837BD4680BD80B582B0AE
:402D400000AF78607B6800221A867B68DB6900220621786898477868FFF70CF800BF0837BD4680BD80B584B000AF78607B68FB60FB68BB60B86800F043F8F860FB68002B03
:402D8000F6D1BB6818461037BD4680BD80B586B000AF78607B681B68002B02D17B687B6103E07868FFF7DEFF7861144809F006FE38611BE03B692433184609F0FFFDF8602D
:402DC0000CE0FA687B699A4201D13B6912E03B692433F968184609F019FEF860FB68002BEFD13969054809F011FE38613B69002BE0D1002318461837BD4680BDDC72030874
:402E000080B483B000AF78607B681B6818460C37BD465DF8047B704780B584B000AF786039600023FB603B68002B06D17B680433184609F0C3FDF86006E07B680433396839
:402E4000184609F0E3FDF860FB6818461037BD4680BD00BF80B582B000AF786039607B68103319463868FEF7FBFB00BF0837BD4680BD00BF80B584B000AF78607868FFF762
:402E8000BFFFB860BB68002B0BD07B68B3F910309AB2BB68B3F910309BB2D31A9BB2FB8102E07B681B8AFB81B7F90E3018461037BD4680BD80B584B000AF78607868FFF767
:402EC0009FFFB860BB68002B0BD07B68B3F912309AB2BB68B3F912309BB2D31A9BB2FB8102E07B685B8AFB81B7F90E3018461037BD4680BD80B582B000AF78607B681033B5
:402F00001846FEF7BBFB034618460837BD4680BD80B582B000AF78607B6810331846FEF7C5FB034618460837BD4680BD80B485B000AF78607B689B6AFB60FB68002B19D16A
:402F40007B681B68BB6012E0BB689B6A002B0BD0BB689B6A1B7803F00103DBB2002B03D1BB689B6AFB6005E0BB681B68BB60BB68002BE9D1FB68002B01D1044BFB60FB68D4
:402F800018461437BD465DF8047B70473071030880B483B000AF78607B6893F82C3003F01003DBB2002B14BF01230023DBB218460C37BD465DF8047B704700BF80B483B0BC
:402FC00000AF78607B6893F82C3003F00103DBB2002B14BF01230023DBB218460C37BD465DF8047B704700BF80B483B000AF78607B6893F82C3003F00203DBB2002B14BF01
:4030000001230023DBB218460C37BD465DF8047B704700BF80B483B000AF78607B6893F82D30C3F30103DBB218460C37BD465DF8047B704780B483B000AF78607B6893F843
:403040002C3003F00403DBB2002B14BF01230023DBB218460C37BD465DF8047B704700BF80B483B000AF78607B6893F82C3003F00803DBB2002B14BF01230023DBB218463A
:403080000C37BD465DF8047B704700BF80B483B000AF7860002318460C37BD465DF8047B704700BF80B584B000AF78607B68FB600FE0FB6893F82C3003F04003DBB2002B2C
:4030C00003D0FB6893F82F3007E0F868FFF798FEF860FB68002BECD1FF2318461037BD4680BD00BF80B483B000AF78600B46FB707B6893F82E20FB781340DBB2002B14BFBD
:4031000001230023DBB218460C37BD465DF8047B704700BF80B483B000AF78607B68DB6918460C37BD465DF8047B704780B483B000AF78607B681B6A18460C37BD465DF83A
:40314000047B704780B483B000AF78607B685B6A18460C37BD465DF8047B704780B485B000AF786039600023FB7308E0FA7B7B6853F82230002B06D0FB7B0133FB73FB7BCE
:40318000062BF3D900E000BFFA7B7B68396843F82210012318461437BD465DF8047B704790B58BB000AFF860B9601346FB71FB79022B6AD1FB6810331946B86809F0D2F889
:4031C000034683F00103DBB2002B01D0002370E0F868FFF7ABFE78627B6A9B7BFA2B01D8002366E07B6A9B897B84B7F9223047F61842934201D100235BE007F114031946C4
:40320000F868FFF727FEB7F914309AB27B8C13449BB21BB2BB82B7F918309AB27B8CD31A9BB21BB23B8307F114031946B86809F099F8034683F00103DBB2002B01D000238A
:4032400037E007F114031946F868FFF703FEB7F916309AB27B8C13449BB21BB2FB82B7F91A309AB27B8CD31A9BB21BB27B8307F114031946B86809F075F8034683F0010335
:40328000DBB2002B14D0002313E0FB79002B0FD1F868FFF74BFEF861FB6803F11004F868FFF700FF0346FA69B968204603F060FD012318462C37BD4690BD00BF80B586B043
:4032C00000AFF8600B467A60FB72FB7A072B05D11A497868FFF742FF03462AE00123FB75FB7A012B09D10121F868FFF7FBFE0346002B1DD00023FB751AE0FB7A062B11D1EF
:40330000F868FFF713FE38613B69B3F91C20FB68B3F930309A420BDD3B69B3F91C20FB681A8605E0FB7A042B02D1F868FFF706FDFB7D18461837BD4680BD00BF60AC021048
:4033400080B584B000AF78600B467B8013463B807B680433184609F031FBF86036E0FB68B3F910309AB27B8813449BB21AB2FB681A82FB68B3F912309AB23B8813449BB2E1
:403380001AB2FB685A82FB68B3F914309AB27B8813449BB21AB2FB689A82FB68B3F916309AB23B8813449BB21AB2FB68DA82B7F90020B7F902301946F868FFF7C1FF7B68D4
:4033C0000433F968184609F021FBF860FB68002BC5D100BF1037BD4680BD00BF80B584B000AF786039603B680433184609F0E6FAF86018E0FB689A6A7B689A4202D07B687C
:40340000002B05D1F86800F015F8F868FFF740FBF9687868FFF7E2FF3B680433F968184609F0F4FAF860FB68002BE3D100BF1037BD4680BD80B584B000AF78600021786834
:40344000FFF7EAFCF8601AE0FB689B6A002B06D1F868FFF7EFFFF868FFF71AFB0AE0FB689B6A1B7803F00103DBB2002B02D0F868FFF7E0FFF9687868FFF7CEFCF860FB68AE
:40348000002BE1D100BF1037BD4680BD80B582B000AF7860396008223968786816F01CFA00BF0837BD4680BD80B483B000AF78607B68B3F904309AB27B68B3F900309BB254
:4034C000D31A9BB201339BB21BB218460C37BD465DF8047B704700BF80B483B000AF78607B68B3F906309AB27B68B3F902309BB2D31A9BB201339BB21BB218460C37BD461D
:403500005DF8047B704700BF80B400AF00BFBD465DF8047B704700BF80B588B000AF786039607B68002B02D108F0D4F978607B68002B00F09B803B68002B07D17A68B2F8FC
:403540005C316FF30903A2F85C3192E00023BB820023FB82786808F0C9F903469BB2013B9BB21BB23B83786808F0E2F903469BB2013B9BB21BB27B8307F1140207F10C03C1
:403580003968184608F002FE03467B777B7F002B6FD07B681B69002B06D07B681B697A6807F10C01104698470023FB8311E0FB8B0733DB007A6813441A1D07F10C0311468F
:4035C000184608F0CFFE0346002B51D1FB8B0133FB83FB8B7A68B2F85C21C2F3090292B29342E4DB7B68B3F85C31C3F309039BB21F2B11DC7B68B3F85C31C3F309039BB228
:403600000733DB007A681344043307F10C0211461846FFF73BFF17E07A68B2F85C316FF30903A2F85C317B68B3F85C31C3F309039BB20733DB007A681344043307F11402B8
:4036400011461846FFF722FF7B68B3F85C31C3F309039BB20133C3F3090399B27A68B2F85C3161F30903A2F85C3102E000BF00E000BF2037BD4680BD80B400AF034B1B68E8
:403680001846BD465DF8047B704700BFB84C0208B0B58AB000AF786008F0F4FAF8617B68DB686D4A136000F0DBF800F07DF96A4B1B68B3F85C31C3F309039BB2002B00F0D9
:4036C000C480654B1B68184608F0EEF90346002B00F08D80604B1B68184608F07FF9B86100F06AFC00BFBB699B69C3F30003DBB2002BF8D1BB699B687B61BB699A68BB69CC
:403700001B689A4202D1BB695B6801E0BB691B683B61514B1B68184608F0E8F80346FB810023FB8459E04C4B1A68FB8C134493F83C31002B4ED1B7F90E20474B1968FB8CA6
:403740000733DB000B44B3F9063003FB02F2424B1968FB8C0733DB000B44B3F9043013449B003B623C4B1A68FB8C0733DB00134404331846FFF798FE03469B00BB60364B0C
:403780001A68FB8C0733DB001344DB88BB8415E07A693B6AD0183A693B6A1344BA68194616F09AF8B7F90E309B003A6A13443B62B7F924309BB201339BB2BB84264B1A68B0
:4037C000FB8C0733DB001344B3F90A30B7F924209A42DDDDFB8C0133FB84FB8C1E4A1268B2F85C21C2F3090292B293429BDB1A4B1B683C334FF480720021184616F077F8CD
:40380000154B1B6803F59E7320220021184616F06EF8114B1A68B2F85C316FF30903A2F85C310D4B1B689B69002B0ED00A4B1B689C69094B1B681D46F86908F03DFA0146EF
:40384000064B1B681A462846A04700F0D9FE00BF2837BD46B0BD00BFB84C0208B44C0208B0B584B000AF0023BB608AE04D4B1A68BB68134403F59E731B78002B7DD10023D7
:40388000FB606EE0474B1A68FB68134403F59E731B78002B5FD1BA68FB689A425BD0414B1A68BB680733DB001344181D3D4B1A68FB680733DB0013440433194608F024FDB4
:4038C000034683F00103DBB2002B46D1354B1A68BB680733DB001344191D324B1A68FB680733DB0013441A1D3B46184608F0A0FC3B46184608F028FC04462A4B1A68BB689B
:403900000733DB0013440433184608F01DFC0546244B1A68FB680733DB0013440433184608F012FC03462B449C4217D21D4B1A68BB680733DB00134404333A46114618466B
:40394000FFF7A4FD174B1A68FB68134403F59E7301221A7002E000BF00E000BFFB680133FB60104B1B68B3F85C31C3F309039BB21A46FB689A4285D800E000BFBB68013313
:40398000BB60084B1B68B3F85C31C3F309039BB21A46BB689A423FF669AF00BF1037BD46B0BD00BFB84C020880B582B000AF204B00221A6000237B602AE01E4B1A687B68ED
:4039C000134403F59E731B78002B1ED1194B1A687B680733DB0013440433184600F02CF8144B1B689B69002B0FD0124B1A687B680733DB0013440433184608F0A5FB024649
:403A00000B4B1B6813440A4A13607B6801337B60084B1B68B3F85C31C3F309039BB21A467B689A42C9D800BF0837BD4680BD00BFB44C0208B84C020890B58DB000AF7860A2
:403A40007F4B1B68184608F02FF80346002B27D07B4B1B68184607F0C1FF38623B6A00221A82774B1B68184607F040FF03469BB2013B9BB21AB23B6A9A823B6A00225A828E
:403A80006F4B1B68184607F053FF03469BB2013B9BB21AB23B6ADA82786800F0D3F8CBE0674B1B68184607F099FFF8617868FFF7FBFC03467B837868FFF70EFD03463B8379
:403AC0007B68B3F906405E4B1B68184607F030FF03469C420CDB5A4B1B68184607F028FF03469BB2013B9BB2FB82B7F9163002E07B68B3F90630FB82FB69DA68B7F91A3039
:403B0000B2FBF3F3FB62B7F91820FB6A9A4202DAB7F91830FB624A4B1B681B69002B34D00023BB8100233B820023FB81FB6A7B857B8D013B9BB21BB27B82414B1B681B693F
:403B40003F4A1268104607F10C021146984707F10C031846FFF7C0FC03461A46FB6A9A420ADDB7F92A309BB2013B9BB27B85B7F92A30002BDCDC00E000BFB7F92A30002B27
:403B800059DDB7F912300133FB620023FB847B685B883B852CE07B68B3F90020FB691A827B68B3F90420FB699A82FB693A8D5A82FB6A9AB23B8D13449BB2013B9BB21AB2BD
:403BC000FB69DA82FB69B3F91630B7F916209A4202DAFB69FA8ADA82FB69DB8AFB84786800F030F8FB6A9AB23B8D13449BB23B85B7F92820FB6A13445A1EB7F916309A42B2
:403C0000C9DDB7F91620B7F926309A4214D07B68B3F90020FB691A827B68B3F90420FB699A82FB693A8D5A82FB69FA8ADA82786800F008F800E000BF3437BD4690BD00BF1C
:403C4000B84C020880B586B000AF78602E4B1B68184607F0C3FE78612B4B1B68184607F00BFF034683F00103DBB2002B07D000BF7B699B69C3F30003DBB2002BF8D17B69ED
:403C800003F1100207F108037968184608F07EFA1D4B1B681846FCF769FB024607F108031146184600F032F8386107F108031946386900F07FF8144B1B681846FCF76CFBF5
:403CC000024607F108031946104600F073F80E4B1B681846FCF776FB024607F108031946104600F067F8084B1B68184607F0DCFE034683F00103DBB2002B01D000F05CF9E9
:403D000000BF1837BD4680BDB84C020880B586B000AF7860396000237B613B6810331946786808F01FFB0346002B3ED03B6893F82C3003F01003DBB2002B36D13B680433BB
:403D4000184608F03BFE38610EE039697868FFF7DDFF78617B69002B0AD13B6804333969184608F053FE38613B69002BEDD100E000BF7B69002B18D13868FFF7D7F8F86079
:403D8000FB689B7BFF2B10D13B681B6A02227968386898470346002B07D03868FFF782F90346FF2B01D13B687B617B6918461837BD4680BD80B586B000AF786039607B6874
:403DC000002B05D11C4B1B681846FCF7CFFA78603968786800F032F87B683B617868FFF70FF8786121E07B6904333969184608F029FEF8600AE03968F86800F01FF87B69AD
