:020000041000EA
:4000000000400208230100100D00000085010010000000000000000000000000000000000000000000000000000000008101001000000000000000008101001081010010E9
:400040008101001081010010810100108101001081010010810100108101001081010010810100108101001081010010810100108101001081010010810100108101001060
:400080008101001081010010810100108101001081010010810100108101001081010010810100108101001081010010810100108101001081010010810100108101001020
:4000C00010B5064C2378002B07D1054B002B02D0044800E000BF0123237010BD3005000800000000B4250010084B10B5002B03D00749084800E000BF07480368002B00D15E
:4001000010BD064B002BFBD09847F9E70000000034050008B4250010E8000008000000007047FFF7FDFF72B60F4C104DAC4209DA21686268A368043B02DBC858D050FAE7DD
:400140000C34F3E70A490B4A0020521A02DD043A8850FCDC084809490860BFF34F8F00F0E3F800F01DF8FEE7B8250010D025001030050008080700080000000808ED00E0F2
:40018000FEE7FEE700B504207146084202D0EFF3098001E0EFF30880043001F039F8FEE710B562B6014800F03FF9FEE70000011010B5002000F0AAFE10BD0000F8B5E0239A
:4001C000504C9B00E2580F231340D022990092000919885807224C4D0240032A05D0042A05D0002A0FD0494811E028680FE0C022920089581F220A40112A01D0132A04D1D9
:400200008020000203E0424801E0FA20C001002B27D1B223B1210322DB00C900E658635867581B0F3F0F1340174205D0354F7958090F0A40012A01D1F20701D4032B3AD1F4
:40024000B023344ADB00E658A158E758C904C90C01F056FAB603F901B60BC90F7043013127E0012B27D1C823C0210322DB00C900E658635867583F0F174205D0214F795893
:40028000090F0A40012A01D1F20703D49B009B0F032B10D1C0227F23D200A758A1583B401F27A658090A3940584301F029FA310C394001F025FAE0239B00E3589B069B0F89
:4002C000D840154B68601C691969240A090E013101F016FAE1B2A860013101F011FA0F4BE860286104000E49C01801F009FAFA210C4B28758900E01801F002FAA861C003DB
:40030000E861F8BD00002640C000000800366E0100127A0084050000000021403F420F0040420F00E703000010B5254801F0E2F9B022E0213020234CD200A35889005B002A
:400340005B08A35063588343635080235B04A3501D4A1E4BE250A02204339201E250FF221B4BE25001F0B4F9C02201215200A3588B43A35000F0F6F8FFF720FFB0235B05AF
:400380005A78002A02D05B78212B03D10022114BDA605A60104C80212200042000F04AFC2000103000F0C0FC0C4B1B6851331B78002B02D00A4800F0F3FC00F08FFB10BD1F
:4003C000FC2400100000264001000200840500008C050000E00023404C0500080407000854180010024BD86F032318407047C0460400214010B500F08CFF074A074BD16FC8
:400400000B4007490B43D367102306490A681A42FCD000F082FF10BD04002140FCFF00000100FA058800214070B50F4C060000F070FFE36F0500DB439B0701D1FFF7DAFF59
:40044000B0230A4A9B00D650E26F094B09491340094A1343E36710230A681A42FCD0280000F05BFF70BDC0460400214000002140FCFF0000880021400300FA05174B70B5B2
:400480001B681C003F342478844224D9032922D8002902D1072A0CD91DE0012902D10F2A07D918E0022902D1032A02D913E0002A11D11D0003269C6870331B7871352D78B8
:4004C0001A40C0233140A9409B00C018800011430151002000E0024870BDC0460407000801004A00F0B5032835D8002802D107290CD930E0012802D10F2907D92BE00228AB
:4005000002D1032902D926E0002924D1134B1B681D001C0073352F78032570342678013424789A68A4462C00BC402700340072331B7831409C4023003B4380273F063B431A
:40054000194363462840984080230843DB00D050D358002000E00248F0BDC0460407000801004A00F0B596218DB0002000F068FE00F03EFE002801D100F02CFE012001F066
:4005800029F8E821E24FE34B7A6C89011A400A437A647A6C0093120AD2B23A2A04D17B6CDD4A13400B437B64A0220321DB4CD200A358DB4E8B43A3503368009D1A001800AF
:4005C00088321968126808308A1811682940802511601A68C16F6D0451180A681202120A2A430A601968C26F00988A1811683E33014011601A78002A07D0E0210F2089009B
:40060000625882430E38024362501A78002A05D0E021302089006258824362501B78002B06D0E02280219200A35809060B43A3500021022000F082FC0021032000F07EFCEF
:400640000021042000F07AFC0021080000F076FC0021012000F072FCB24D0522290003A801F0DAF803A9012000F090FC0195002800D0FEE7AC49012000F0E0FC051E00D056
:40068000FEE7AA4BAA4AE1580A40E250E158A94A0A408021E250E25809060A438021E250A54A090313680B431360A0228021D200A35809020B43A3503A68A04B13408022D0
:4006C000520013433B6000F0E5FF802101279C4A0906A35828000B43A350A3588621BB433B43A35000F0ACFD3A0029000220FFF7C5FE336800999A6874331B880432D21839
:40070000136828000B40A82189010B4313603900FFF7E8FE2A0039000520FFF7AFFE336838001A0076329B6812880624D2181168844B0B4084490B4313602900FFF7D2FE21
:40074000022229001320FFF799FE336800999A6874331B880832D218136828000B408421C9010B4313600221FFF7BCFE2A0029003820FFF783FE336800991A0074329B68BE
:4007800012882800D21813680B40802189000B4313602900FFF7A6FE6C4A6D4B1A6021006943019B013505335F187A793879CE5C12027B780243B8781B02334300041900E9
:4007C0000300F8780B4300061843002101F02DF80B2DE4D1002401352B006343019A013447329E5CD3185A78987812023243000411000200D8780A430006597A10431A7A7B
:40080000090211430F00997ADA7A090439435E7912060A43197936020E439979090431430E00D9790906314300F0F6FF132CD3D10022484C11002600FF25403623002C33BC
:40084000D05803002840AB439C464B0009184800013001333018F31800900098984206D0581E00781F78604407700233F5E70432142AE3D18321384B053A1A60374A384B14
:40088000384C1A60384A490013680B431360230003AA083323CB23C223CB23C223CB23C203A9324800F022F9230003AA2C3323CB23C223CB23C223CB23C203A92C4800F0C6
:4008C00015F92422002103A800F0AFFF602303A92848069300F00AF9230003AA503323CB23C223CB23C223CB23C203A9224800F0FDF8230003AA743313CB13C213CB13C26B
:4009000013CB13C203A91D4800F0F0F80DB0F0BD00002740FF00FFFFFFC5FFDF0000264004070008881800101027000004050000FEFCFFFFFFFF00FF000E1F41FFFCFFFFE6
:400940000C050000FF0000FF004202000300FA05F001214088190010000063400701010000026340081A0010007934408002324000033240800332408004324000053240E4
:40098000044B1B681A00B03212881B6A5043C0187047C04604070008034B1B68B4331B68C0180068C00F7047040700081E4A0300904238D010D840282ED005D8002831D062
:4009C00010282DD119482EE0802827D08021100049008B4227D023E0154A904214D008D8A022120690421DD0124AA020934211D016E0114A904209D0104A904208D0104A38
:400A000090420DD10F480EE0A42003E00E480AE00E4808E0C00306E00D4804E00D4802E00D4800E0002070470600520001005000010000F0090000A0040000F0050000F04B
:400A4000030000F00100520002005200030052000200500005005200FF00520010B50020FFF78EFFFFF798FF00280CD1074B1868FFF79CFF0122064B1B685B689A609A687A
:400A8000002AFCD100E0034810BDC046DC06000804070008020050000D4B10B51861002805D002230370FD33437000234380094B1B681A0050321278002A08D051331B78E8
:400AC000002B04D002220449002000F0C9F910BDDC060008040700085101000810B502481430FFF7D9FF10BDDC06000830B5002830D000292ED0184BCD681B689A695C69A1
:400B0000821AD209120112190C6804601C007D342478241825601C007E3424780D69241825601C007F3424784D69241825601C007C3424788D68241825604C688033846111
:400B40001B7818188B690360CB69002013600B6A536000E0014830BD0407000801005A00064B1B68B4331B68C3181B68002B03DA89B24160002000E0014870470407000855
:400B800001008A000368002B01DB034803E089B2C26081600020704701008A00064B1B68B4331B68C3181B68002B03DAC36800200B6000E0014870470407000801008A0092
:400BC000F8B5184B0D001B681A0031321278824224D9002922D01F240A6814401ED11900B0310E88104F70431E6AD2088619210068683E6000F019FE21003000FFF7B0FF4B
:400C000021002A003868FFF7BDFF011E04D13868FFF7A6FF031E02D0044B00E0044B1800F8BDC04604070008F406000801018A0003018A0010B5002A0DD1002914D10B4B44
:400C40001A681300B0331B885843136AC018084B1860080009E0002906D0054B5960191D9A60FFF7ADFF00E0024810BD04070008F406000803018A00194BF7B51A68019313
:400C8000D76804003B680E00834223D90025A94202D100F03EFB0500019B18680368002B01DB104C10E063095A01A41A0122A24079689B00CB18196811420DD00024914302
:400CC00019600021FFF74CFF002E07D1280000F024FB03E0044C01E0044CF2E72000FEBDF40600080301880004018A00020188000A4B1B68DA68136883420DD943099900F7
:400D00005B01C31A0120984052688B581840431E9841034BC01800E002487047F40600080001880004018A00024B1A68002A00D11860704700070008F0B52C246043154C30
:400D40001F0024681E0A2018FF2427403440124E1B0C356807602E6A44608360B0352D886F43BF190761270080377F01F71964010A4D476134191F043B4364192360002351
:400D80008361059BC2610162002B01D01B888381F0BDC046000700080407000808100000F0B5038985B002AD2B80144B02681B68066ADB8E476A9B18AB7043680095826A09
:400DC000C16A040003930369C068FFF7B5FF00213B000A0000913000FFF7AEFF216B280000F09CF90023EA5E002A05DB1F231A401E3B9340024A136005B0F0BD040700087C
:400E000000E100E0F7B52C25124C6843276801933C182669002E08D04D4379198869002805D13568002D02DA03E00B4811E00B480FE06768012425004B689D4013882D044A
:400E40001D431560F2608C61BC40019BA4B24B62B460FEBD0007000804028A0007028A002C235843064B1B681818C369934204D9036A9200D150002000E002487047C046CF
:400E8000000700080A028A0073B5002642690400D56801962B0CB34221D01B0413601368194B00691B68B4331B68C3181B68B34215DA01A9FFF772FEB0420CD10198E269D3
:400EC00003681E0C0378934205D2226A9B009B58002B00D0984731002069FFF741FEADB2002D0ED063691D6000251B68636AAB4202D09847656203E0A36A002B00D09847FC
:400F0000A56163691B6873BD040700082C2310B55843034B1B681818FFF7B6FF10BDC04600070008044B10301B6880021B69C0580F2318407047C04604070008104B1B6874
:400F40003C331B78834219D904290FD94B1EFF3B132B13D81F2319400A4B8000C018C02304229B00C1504033C25005E00723D0301940044B8000C150002000E0024870470C
:400F8000040700080000264001004A00F0B5254B421E1B683D331B789A421AD2224B8000C018224BC258002A0CDB8A78941E0E2C0FD84D786C1E112C0BD8CC780E78002C13
:400FC0002AD101E01A482BE07027152E01D9B74201D2184824E00F79022F11D0F8212D0249012940F82512046D032A407F251143354029438025E4062D052C402143C150A7
:40100000C0223F07920517403A00C4580A4921400A43C250002003E03827122ED9D9D6E7F0BDC0460407000800002640FC05000003004A0001004A00FFFFFFCF70B5124B0D
:40104000421E1B680D003D331B789A4218D2802101260E4B0E4A8000C418A35809060B43A3500C4BE358334206D1002D0AD0012000F0A6F8013DF4E70020002D03D101E0E8
:40108000054800E0054870BD0407000800002640FC0500003C06000001004A0002004A00134B30B51D6807222B0028331B78012B13D183081C00944319D19C00021BD20029
:4010C00091402B6820331B191C6861400800FF21914001406140196009E00240802000060243802080012B6809188900CA5030BD04070008064B10309A68064B9A4203D16A
:4011000083009858995002E0034B8000C058704700ED00E00000000800000010F7B5061E019142D00023C05E002804DBB178FFF7B7FF002400E01E4C0023F05E7668B601EA
:40114000002815DB0321FF250140C9008D40C027AC46184B82089200D218BF00D3591D0063469D43FF2333408B402B43D35113E00F2281B20A40083A0F4B92089200D21820
:40118000032319409940FC331D0033408D408B40D769AF433B43D361074B9A68074B9A4204D10199FFF7A6FF00E0014C2000FEBD0100560000E100E000ED00E0000000081B
:4011C00010B5034B1B78584300F09AF810BDC046D400000880220020034B12069A649B6C834200DA0148704700002740030046008022054B120198585B68DBB2002B02D0BF
:401200008023DB021843704700002640FEE7000002680A4B10B51A6042685A6082689A60C268DA6002691A6142695A6182699A61C269DA61FFF7EAFF10BDC04610050008C0
:40124000F0B51924002800D14B342A4B03261A688C42A4411300A8331F8813686442FD182B68B34323432B601368234DFF183B682B403B601300AA331B8815685F193D6824
:40128000B5432C433C6014681B4D1B191C6825401D60002808D00023102924D921338B429B415B4201331EE0130055331C780300A14218D9130056331C780123A14212D960
:4012C000130057331C780223A1420CD9130058331C783300A14206D9130059331B788B42404105231B1A0F2152681068884303431360F0BD04070008FFFCFFFF000000002D
:401300000230800803D001300238FCD1C046C0467047EFF3108072B6704780F310887047B0235B055A782120002A01D05878C0B27047B0235B059A89002A02D0988980B233
:4013400001E080204000704770B5FFF7F2FF8022194B5200904215D119680F240B00022098330A681B68D3181A68A24302431A600A009C320B6812689A181368A343034309
:40138000136017E0B0241B680C4A6405A5581A009832196812688A18C0211068890029430143116019009C311A680B68D318044AA2581A6070BDC0460407000848180000FE
:4013C0004418000070B5FFF7B4FF8022194B5200904215D119680F240B00032098330A681B68D3181A68A24302431A600A009C320B6812689A181368A3430343136017E078
:401400001B68B0251A00983219681268C1248A18C0216D0564012E598900106831430143116019009C311A680B68D3182A591A6070BDC0460407000810B5FFF77AFF8022A6
:40144000104B52001B6890420CD1190098311A680B68D21811680C4B0B40C021C9010B4313600EE0B021094A49058858190098311A680B68D318C0221968920002430A43BC
:401480001A6010BD04070008FF8FFFFF1818000070B5FFF74EFF8022144B52001B6890420CD1190098311A680B68D2181168104B0B408021C9010B43136015E01A00983244
:4014C00019681268B0258A18C0210A4C6D052E598900106831430143116019009C311A680B68D3182A591A6070BDC04604070008FF8FFFFF4C18000010B50020FFF712FD3D
:401500000400FFF70DFF0123222801D863426341180010BD70B50400FFF702FF85B2FFF708FF06000020FFF7FDFC80235B00002811D19E4211D1222D35D880221D4B1E4930
:401540001B6824065D681D4B6E585204144033401C436C502CE09E4223D0164A1268156A9E4203D1002C05D1154A06E0002C03D1144A02E0144A00E0144A01212800FFF744
:4015800001FB002813D10B4B1B68B4331B68EB181A68002AFCDBEB6800201B0EA02B06D106E0222D03D9034B1B681D6ADAE7084870BDC0460407000818F00000FFFFFFFE59
:4015C000010000300100000C010100300300000C04004200F7B50700FFF7ABFE80235B00984209D0FFF795FEB0230190234D244A5B05002F06D012E0FFF77EFF0028F1D1A4
:40160000204E38E0AF50E8220120D2009C5CFFF781FFE4B2061E20D1FFF796FE11E01A4903205958A9501F21184A9C5C184AE4B2AB588B4314390B43AB50FFF7C1FDFFF7C1
:4016400027FF1F2312491C406A589A4314436C50002F06D1FFF7F0FE3E000198FFF75DFE09E00720FFF7ACFDFFF7ACFE0020FFF751FF0600F1E73000FEBDC046000026409D
:40168000307F00000300420010180000410700001CFF000010B50C4B042803D11A68104318600FE0094A000612681400A034116822688A18C02189040840042110601A6826
:4016C0008A431A6010BDC04610E000E004070008C0228020064952008B58C0059B009B08034380208B508B58000603438B50704700002640014B18607047C0460407000868
:40170000002243088B4274D303098B425FD3030A8B4244D3030B8B4228D3030C8B420DD3FF22090212BA030C8B4202D31212090265D0030B8B4219D300E0090AC30B8B4238
:4017400001D3CB03C01A5241830B8B4201D38B03C01A5241430B8B4201D34B03C01A5241030B8B4201D30B03C01A5241C30A8B4201D3CB02C01A5241830A8B4201D38B02F9
:40178000C01A5241430A8B4201D34B02C01A5241030A8B4201D30B02C01A5241CDD2C3098B4201D3CB01C01A524183098B4201D38B01C01A524143098B4201D34B01C01A6E
:4017C000524103098B4201D30B01C01A5241C3088B4201D3CB00C01A524183088B4201D38B00C01A524143088B4201D34B00C01A5241411A00D20146524110467047FFE7CA
:4018000001B5002000F006F802BDC0460029F7D076E770477047C046002310B59A4203D0CC5CC4540133F9E710BD03008218934202D019700133FAE770470000F8B5C0465A
:40184000F8BC08BC9E467047F8B5C046F8BC08BC9E4670470300000001000000010000000000000005036000040000000100000000000000010000000604600008000000AA
:40188000BC060008B1010010320103000000203440740080203440740000223440740080223440740000243440740080243440740000263440740080263440740080283432
:4018C000407400002A34407400802A3440740000283440A01A00107400000000213440141B00109000000000233440A41B00109000000000253440341C00109000000000D3
:40190000273440C41C00109000000000293440541D001090000000002B3440E41D00109000000000603440741E00107C00000080603440F01E00107C000000006134406C7D
:401940001F00107C00000080613440E81F00107C00000000623440642000107C00000080623440E02000107C000000006334405C2100107C00000080633440D82100107C50
:4019800000000000643440542200107C00000080643440D02200107C000000006534404C2300107C00000080653440C82300107C00000000020134401928344002703440C1
:4019C0000472344002783440201021048401862088A98A508CDE8E219025929A942198639A849C10A408A680B01FB280B402B660BE04D602DC04DF04E009E190E301E820CE
:401A0000EC1068D86C72A825AC300401190100004600000000000000000000006806000E0000000000000000000000001212030000000200000000000000000000000000D9
:401A4000006600BA0000000000000000000000000000000000001D1D4F0000000000000000000000AA66000600000000000000000000000013130303000003007F000000F9
:401A80000000000000000000EEEEEE0E000000000000000000000000020202020202020000002000000000001AD1042A00FD200000081BB600000010088710481A200400DC
:401AC000000004001800050000030200100008001844003F0780204080A22200000040004302000000FDC6E23FFFFFFF00000000040000000000FF01000000000404040D5F
:401B0000999900010000C000300000108000200040401050000000000000000000000000FFFFFFFFFFFFFFFFFFFFFFFFFFFFFFFFFFFFFFFFFF000000FFFFFFFFFFFFFFFF0F
:401B4000FFFFFFFFFFFFFFFFFFFFFFFFFF000000000000000000000000000000000000000000000000000000FFFFFFFFFFFFFFFFFFFFFFFF111111111111111111111111B2
:401B8000111111111111111111111111111111111111111111111111111111111111111111111111000000000000000000000000FFFFFFFFFFFFFFFFFFFFFFFFFFFFFFFFD1
:401BC000FFFFFFFFFF000000FFFFFFFFFFFFFFFFFFFFFFFFFFFFFFFFFFFFFFFFFF000000000000000000000000000000000000000000000000000000FFFFFFFFFFFFFFFF07
:401C0000FFFFFFFF11111111111111111111111111111111111111111111111111111111111111111111111111111111111111111111111110000000000000000000000068
:401C4000FFFFFFFFFFFFFFFFFFFFFFFFFFFFFFFFFFFFFFFFFF000000FFFFFFFFFFFFFFFFFFFFFFFFFFFFFFFFFFFFFFFFFF000000000000000000000000000000000000008E
:401C800000000F0000000000FFFFFFFFFFFFFFFFFFFFFFFF111111111111111111111111111111D11111111111111111111111111111111111111111111111111111111175
:401CC00011111111001100000400000000000000FFFFFFFFFFFFFFFFFFFFFFFFFFFFFFFFFFFFFFFFFF000000FFFFFFFFFFFFFFFFFFFFFFFFFFFFFFFFFFFFFFFFFF000000B5
:401D000000000000000000000000000000000000000504040F000FF1FFFFFFFFFFFFFFFFFFFFFFFF111111D1100D111101111111111111F111111111111111111111D0116D
:401D40001110111110111111111111111111111111111111850800000000000000000000F340F75201114FFF712307FF7F30FF607010521FFF0000003F2013103FFFFFFF52
:401D8000FFFFFFFFFFFFFF43FFFFFFFFFF000000000000000000000000000000000000000F0F77F500F00013FFFFFFFFFFFFFFFFFFFFFFFF1D8191F1129F751198D1217119
:401DC000311137F16197113D113111138141FB11111B84111B11113111111D111111D11121A42111000000000000000000000000FFFFFFFFFFFFFFFFFFFFFFFFFFFFFFFF95
:401E0000FFFFFFFFFF000000FFFFFFFFFFFFFFFFFFFFFFFFFFFFFFFFFFFFFFFFFF000000000000000000000000000000000000000000000000000000FFFFFFFFFFFFFFFFC4
:401E4000FFFFFFFF11111111111111111111111111111111111111111111111111111111111111111111111111111111111111111111111100000000000000001F1F1F1FBA
:401E80001F1F1F1F1F1F1F1F1F1F1F1F1F1F1F1F1F1F1F1F1F1F1F1F1F1F1F1F000000000000000000000000000000000000000000000000FFFFFFFFFFFFFFFFFFFFFFFFCA
:401EC00011111111111111111111111111111111111111111111111111111111111111111111111111111111111111111111111100000000000000001F1F1F1F1F1F1F1FBA
:401F00001F1F1F1F1F1F1F1F1F1F1F1F1F1F1F1F1F1F1F1F1F1F1F1F000000000000000000000000000000000000000000000000FFFFFFFFFFFFFFFFFFFFFFFF1111111181
:401F4000111111111111111111111111111111111111111111111111111111111111111111111111111111111111111100000000000000001F1F1F1F1F1F1F1F1F1F1F1F01
:401F80001F1F1F1F1F1F1F1F1F1F1F1F1F1F1F1F1F1F1F1F000000000000000000000000000000000000000000000000FFFFFFFFFFFFFFFFFFFFFFFF111111111111111139
:401FC000111111111111111111111111111111111111111111111111111111111111111111111111111111110000000000000000081F1F1F1F1F1F1F1F1F1F1F1F1F1F1F60
:402000001F1F021F1F051F1F1F1F1F1F1F1F1F1F000000000000000000000000000000000000F00000000030FFFFFFFFFFFFFFFFFFFFFFFF111111111111D1111111111147
:4020400011F111111111111111111111111111111F1111111111111111111111111111111111111100000000000000001F1F1F1F1F1F1F1F1F1F1F1F1F1F1F1F1F1F1F1FA2
:402080001F1F1F1F1F1F1F1F1F1F1F1F000000000000000000000000000000000000F000F0000000FFFFFFFFFFFFFFFFFFFFFFFF11111111111111111111111111D1111108
:4020C0001111111111111111111111111D1111111111111111111111111111111111111100000000000000001F1F1F1F1F1F1F1F1F1F1F1F1F1F1F1F1F1F1F1F1F1F1F1FCC
:402100001F1F1F1F1F1F1F1F000000000000000000000000000000000000000000000000FFFFFFFFFFFFFFFFFFFFFFFF11111111111111111111111111111111111111115F
:402140001111111111111111111111111111111111111111111111111111111100000000000000001F1F1F1F1F1F1F1F1F1F1F1F1F1F1F1F1F1F1F1F1F1F1F1F1F1F1F1F1F
:402180001F1F1F1F000000000000000000000000000000000000000000000000FFFFFFFFFFFFFFFFFFFFFFFF11111111111111111111111111111111111111111111111117
:4021C00011111111111111111111111111111111111111111111111100000000000000001F1F1F1F1F1F1F1F1F1F1F1F1F1F1F1F1F1F1F1F1F1F1F1F1F1F1F1F1F1F1F1F67
:40220000000000000000000000000000000000000000000000000000FFFFFFFFFFFFFFFFFFFFFFFF11111111111111111111111111111111111111111111111111111111CE
:40224000111111111111111111111111111111111111111100000000000000001F1F1F1F1F1F1F1F1F1F1F1F1F1F1F1F1F1F1F1F1F1F1F1F1F1F1F1F1F1F1F1F000000002A
:402280000000000000000000000000000000010000000000FFFFFFFFFFFFFFFFFFFFFFFF11111111111111111111111011111111111111111111111111111111111111110A
:4022C000111111111111111111111111111111110000000000000000081F1F1F1F1F1F1F1F1F1F1F1F1F1F1F04001402021F10121F1F1F1F1F1F1F1F0000000000000000A0
:4023000000000000000000000F0FFF0F0500010FFFFFFFFFFFFFFFFFFFFFFFFF111111111111D211111D1D11D11011D111111111111111111111111111111D1111011111B0
:4023400011111111111111111111111100000000000000001F1F1F1F1F1F1F1F1F1F1F1F1F1F1F1F021F001F1F1F1F041F1F1F1F1F1F1F1F00000000000000000000000008
:402380000000000002050F0F00100FFFFFFFFFFFFFFFFFFFFFFFFFFF11DF111111111F1111111111111DF111111111111111D111111111111111D1111FD111111111111128
:4023C000111111111111111100000000000000001F1F1F1F1F1F1F1F1F1F1F1F1F1F1F1F1F1F1F1F1F1F1F1F1F1F1F1F1F1F1F1F0000000000000000000000000000000075
:402400000000000000000000FFFFFFFFFFFFFFFFFFFFFFFF1111111111111111111111111111111111111111111111111111111111111111111111111111111111111111BC
:40244000111111110000204000002440000000400000000000002340000030400000314000009F40000022400000104002020202020202020210101D800017007500FF03E2
:402480000602063604102000000000007FC0000000040000000000000019324B647D00804000080B100000000000FF012002001F00800004FF081018001000140018001CBB
:4024C0004044484C50000000081000000800000004000000041000000012000004210000002100000016000040114002C41300138013A013200000001C000000000021406E
:4025000000002540000001400000344000002440000031400000324000001F410000234000001140010101010101010101101010800019005500F0000501053B04101C0198
:40254000010000000FC000000004000001010101011D3A57789600082000101208000000001F00000010000F002000023F06080E00080009000A000B24282C3034000000B7
:40258000100000009000000088000000080000008000000004F0000000F00000400200002005A000D00100018001A001200000001000000000000000000000100000000844
:4025C000C0000000D8250010C00000085004000030050008D80100000048E80100127A0000093D0000093D0000093D0004000000A00F00000000D007E9000010C1000010F9
:402600000000000080B230B5C00020D0104B07211C682300B0331B885943236ACB181A68002AFCDA3E220B4B06251A600A4A0B4B1A60A3220A4BD2009D500A4A9850985811
:40264000206A09180020486099580029FCDA30BD04070008040126401E1F000008012640000026401C05000010B54378FF2B11D100F0BAF90400042000F0A6F9C3685A6886
:40268000012311681943116011681942FCD1200000F0BAF910BDF7B507000020019100F093F93C4B06001B681A005033B43215681B784519002B27D000F05EF90090032879
:4026C0003CD1062000F080F900F0A6F9041E5DD100F062F9304B984258D0304A230021001269012000F050F9041E4FD1002000F053F9294A2A4B904203D09C4246D00134B0
:40270000F4E79C421AD141E000F06EF9234A04000121300000F048F9002808D1002F08D02B68002BFCDB00F067F9050002E01D4D00E01D4D200000F067F928E000F054F94C
:402740001A4B1B4A0400D358002B06DA134A0121300000F029F9002801D0124D0CE00198FFF750FF002F06D02B68002BFCDB00F043F9050000E00C4D009B032BDAD10121D8
:40278000002000F029F90028F9D1D3E7054D2800FEBDC0460407000801018800DC060008F049020005005200010050001C05000000002640F0B5674C85B0236803905B68A1
:4027C000019300F0F9F8212846D1236807251A00B032128855431A6AAA1811680029FCDA0220D1680143D160D168C9072FD5D1681E00029108218C469C44614688361C68D6
:402800003068C96F6118241868460F6824680089240A24060443FF203F020004074027439024D76008684C4A240110402043086030681968091808680240144362460C609D
:402840001968D26F8A18126832688A1812681B6AED1800236B606B680421404A13690B431361039B012B01D030BF00E020BF39490A680C001300B033188807234343126A81
:402880009B181A68002AFCDA00F096F8212830D1236807261A00B032128856431A6AB218D168C9071ED519000831CF6F1968CF193868D568FF22284912022D0A154008409A
:4028C0000400280020433860180088301C68006820181C6A05683419E4682940240C22400A43026002221B6AF618F3689343F36022E0019BFC331B69002B1DD1A323184ABA
:402900001849194E194FDB000D68D45830680F600627D7503E233360154B3E37D750D758002FFCDA019B134AFC331A61A3230C4ADB000D60D4503060064B1A681300B033E8
:40294000198807234B43126A9B1800225A6005B0F0BDC04604070008FF00FFFF00ED00E00000264008012640040126401E1F00001C050000AAAAAAAA01B40248844601BCE2
:40298000604700BFE503001001B40248844601BC604700BF050E001001B40248844601BC604700BFF10C001001B40248844601BC604700BF850B001001B40248844601BC9F
:4029C000604700BF2113001001B40248844601BC604700BF8109001001B40248844601BC604700BF790C001001B40248844601BC604700BF1313001001B40248844601BC7E
:402A0000604700BF5D0A001001B40248844601BC604700BF1B13001001B40248844601BC604700BF99090010000000000000000000000000000000000000000000000000F1
:402A40000000000000000000000000000000000000000000000000000000000000000000000000000000000000000000000000000000000000000000000000000000000056
:402A80000000000000000000000000000000000000000000000000000000000000000000000000000000000000000000000000000000000000000000000000000000000016
:402AC00000000000000000000000000000000000000000000000000000000000000000000000000000000000000000000000000000000000000000000000000000000000D6
:402B00000000000000000000000000000000000000000000000000000000000000000000000000000000000000000000000000000000000000000000000000000000000095
:402B40000000000000000000000000000000000000000000000000000000000000000000000000000000000000000000000000000000000000000000000000000000000055
:402B80000000000000000000000000000000000000000000000000000000000000000000000000000000000000000000000000000000000000000000000000000000000015
:402BC00000000000000000000000000000000000000000000000000000000000000000000000000000000000000000000000000000000000000000000000000000000000D5
:020000041001E9
:4000000000780408EB0201100D00000051030110510301105103011051030110000000000000000000000000000000004D0301104D030110000000004D0301104D03011019
:400040004D0301104D0301104D0301104D0301104D0301104D0301104D0301104D0301104D0301104D0301104D0301104D0301104D0301104D0301104D0301104D03011070
:400080004D0301104D0301104D0301104D0301104D0301104D0301104D0301104D0301104D0301104D0301104D0301104D0301104D0301104D0301104D0301104D03011030
:4000C0004D0301104D0301104D0301104D0301104D0301104D0301104D0301104D0301104D0301104D0301104D0301104D0301104D0301104D0301104D0301104D030110F0
:400100004D0301104D0301104D0301104D0301104D0301104D0301104D0301104D0301104D0301104D0301104D0301104D0301104D0301104D0301104D0301104D030110AF
:400140004D0301104D0301104D0301104D0301104D0301104D0301104D0301104D0301104D0301104D0301104D0301104D0301104D0301104D0301104D0301104D0301106F
:400180004D0301104D0301104D0301104D0301104D0301104D0301104D0301104D0301104D0301104D0301104D0301104D0301104D0301104D0301104D0301104D0301102F
:4001C0004D0301104D0301104D0301104D0301104D0301104D0301104D0301104D0301104D0301104D0301104D0301104D0301104D0301104D0301104D0301104D030110EF
:400200004D0301104D0301104D0301104D0301104D0301104D0301104D0301104D0301104D0301104D0301104D0301104D0301104D0301104D0301104D0301104D030110AE
:400240004D0301104D0301104D0301104D0301104D0301104D0301104D0301104D0301104D0301104D0301104D0301104D0301104D0301104D0301104D0301104D0301106E
:400280004D0301104D0301104D03011010B5054C237833B9044B13B10448AFF300800123237010BD58490208000000005C0F0810084B10B51BB108490848AFF30080084854
:4002C000036803B910BD074B002BFBD0BDE81040184700BF000000005C4902085C0F0810EC430208000000007047FFF7FDFF72B6104C114DAC4209DA21686268A368043B4B
:40030000A2BFC858D050FAE70C34F3E70B490C4A00209142BCBF41F8040BFAE709480A490860BFF34F8F10F0A9FE10F083FE10F0B1FBFEE7600F0810780F081058490208BA
:40034000D07C02080040020808ED00E0FEE7FEE700B504207146084202D0EFF3098001E0EFF30880043011F0A1F9FEE708B1006B704708B50BF038FA00B1006B08BD00BFC3
:4003800010B5044606F052F804632046BDE8104001F0E2BE08B1406B704708B50BF024FA00B1406B08BD00BF08B1806B704708B50BF01AFA00B1806B08BD00BF2DE9F0413C
:4003C000054684B0C46904E04CB3204606F058F80446204606F0D4F80028F5D1FCB1204606F0C8F80746E8B995F82430604E60F3410385F82430E36932680F212046984759
:400400003A460921204605F089FF95F8303003F0020303F0FF02002B76D00023736004B0BDE8F081524E204606F09EF8D6F800C0B5F914E04F4AB5F9161007469CF8150000
:40044000C0F164000EFB00F082FB00E3C017C0EB6310A8829CF81530C3F1640301FB03F382FB0312DB17C3EB6213EB826B69002B51D06946204606F00BF8204606F00EF865
:40048000AB8A034420460FFA83F806F011F8EB8A032F184401B265D0F8075AD4BA075DD402A9204605F0F4FFBDF90020BDF908309A4203D0B5F91430002BB0D1BDF90220EB
:4004C000BDF90A309A4203D0B5F91630002BA6D195F824303268DFF8988000276FF3410385F82430AF81EF81AF82EF82E3690F212046984795F8303003F0020303F0FF02E3
:40050000EBB1C8F804708AE72046092105F006FF04B0BDE8F08195F8242063F3410285F82420E36962460F212046984795F8303003F0020303F0FF02002B7FF46EAF204698
:40054000092105F0EBFE95F830309B073FF565AF65E74146204603F0A7FFA1E7204604F041F89DE70A462046414603F095FD97E7744902081F85EB51F8B590F830301C078C
:400580000BD500225D49826162F3C30380F83030C2618262C2624A60F8BD0446574D80696860002800F0A780102105F0FFFF58B168682A68C3690B21984794F8302091071B
:4005C00041D500236B60F8BD68682A68C3690B21984794F830309F07F3D4DA0744D594F8243003F0020303F0FF023BB90621686805F094FE94F830309807E2D4072100228D
:40060000686805F08BFE94F830309907D9D4206A6B683A4E984238D000220D2105F07EFE94F8303003F0020303F0FF02002BC8D10C21A06905F072FE94F830309B07C0D452
:400640007668266222E094F824309907D6D412F0010207D10321686805F060FE94F830309B07AED40022C1E794F8243003F0020303F0FF02002BC1D10321686805F04EFE2C
:4006800094F830309E079CD4A9E70646304605F077FF074620B1B6B1304605F0F1FEF4E78EB1304605F066FF68B194F824309A0709D53A4630460A2105F030FE94F830300B
:4006C0009B073FF57EAF0023E269A361A362E3623AB194F830309F0703D494F824309E0700D4F8BD2046FFF769FE94F8303098073FF567AFF8BDE269EAE700BF74490208EA
:400700002DE9F04F8FB00B4600F1040A0546079103F1100051460BF071FB002800F08C81079B0433184608930BF0E0FD0190002800F06F81D146019C494604F110000BF045
:400740005DFB002800F05D8123460433184609930BF0CCFD0290002800F04281029C494604F110000BF04AFB002800F031812346043318460A930BF0B9FD0490002800F02C
:400780001681049C494604F110000BF037FB002800F005812346043318460B930BF0A6FD0390002800F0EA80039C494604F110000BF024FB002800F0D98023460433184698
:4007C0000C930BF093FD0590002800F0A580059C494604F110000BF011FB002800F094802346043318460D930BF080FD0690002879D0069C494604F110000BF0FFFA002826
:400800006AD004F1040840460BF070FD8246002851D049460AF110000BF0F0FA002843D00AF1040B58460BF061FD064658B3494606F110000BF0E2FAF0B1371D38460BF091
:4008400055FD044630B978E038460BF057FD0446002872D021462846FFF752FF21460028F2D0059003460393049302930193079318460FB0BDE8F08F314658460BF03EFD53
:4008800006460028D3D1504605F062FE60B1544605E0204605F0F4FD0446002860D0204605F050FE0028F4D0514640460BF026FD82460028ADD1069805F04AFE60B1069CEB
:4008C00005E0204605F0DCFD044600284AD0204605F038FE0028F4D006990D980BF00EFD0690002885D1059805F032FE60B1059C05E0204605F0C4FD0446002834D0204627
:4009000005F020FE0028F4D005990C980BF0F6FC059000287FF45BAF039805F019FE28B3039C204605F00EFE00BB204605F0A8FD04460028F5D1039B96E7304605F008FE48
:40094000002899D03446204605F0FCFD002893D1204605F095FD04460028F4D1304680E750467EE706987CE7059B7CE703990B980BF0C4FC039000287FF416AF049805F00E
:40098000E7FD60B1049C204605F0DCFD38B9204605F076FD04460028F5D1049B65E704990A980BF0ABFC049000287FF4EAAE029805F0CEFD60B1029C204605F0C3FD38B9CF
:4009C000204605F05DFD04460028F5D1029B4DE7029909980BF092FC029000287FF4BEAE019805F0B5FD60B1019C204605F0AAFD38B9204605F044FD04460028F5D1019B8A
:400A000035E7019908980BF079FC019000287FF492AE079C204605F09BFD68B164B1079C204605F08FFD38B9204605F029FD04460028F5D107981CE700230793184618E7D0
:400A40002DE9F04F90F83020964E83697360140785B000F1908032680446D568002B00F0FE8090F82420910740F18880B4F91420B4F91600A788B4F808E0E188658902EB53
:400A80008202D210CEEB07074D1B00EB80003FB22DB2C010002AA781E581A282E082C0F2DA8002D0511E0AB2A2820028C0F2F2801CBF00F1FF3000B202EB670200EB65008C
:400AC000A282E082002B56D0DD693268754F18460921A84794F8303003F0020303F0FF02002B40F0B3807868012105F017FC94F830309D0700F1AA80A76904E087B138463F
:400B000005F0BEFC0746384605F03AFD05460028F4D12FB1384605F021FD002840F0C48094F83030980700F1918094F82420910721D4D80740F15381E06A5A4D0AF04AFFC8
:400B40003268138B984216D968680D21C369984794F8303003F0020303F0FF02002B75D16868052105F0DAFB94F830309B076DD40AF026FFE06205B0BDE8F08F18461021CA
:400B800005F014FD00286AD07368A5699D423FF46DAF6268A260B5B1EB693268414F0A212846984794F8303003F0020303F0FF02002B4BD12846022105F0B0FB94F8303052
:400BC0009B0743D47B68A361E361002B3FF44EAF0AF0F6FE94F8242094F830107368A06202F0FE0200256FF341026FF3000184F8242084F8301025826582A581E581002B6F
:400C00004DD093F82C20184612F0200F18BF1D4605F036FC03460028F3D115B1284603F0D7F97068C36932681E4D0821984794F8303003F0020303F0FF023BB911466868A0
:400C400005F06CFB94F830309F0726D50023736005B0BDE8F08F511C0AB2A28225E72846FFF7A2FB01462046FFF74AFD03467060002800F09280E269002A86D094F824209A
:400C800000239207A382E3827FF57EAF2046FFF795FB79E7013000B20EE76B68E6E61846C0E700BF74490208384605F05DFC638AE189B4F810E00246A089194494F8243092
:400CC000704400B209B2DB072082618212D4D50779D5356800282D7DB8BF4042A84272DB94F8241041F0010184F82410C9077FF517AF0125E16800293FF412AF3168039256
:400D0000C8680AF0AFFD01903846B7F910B0B7F912A005F0B5FB05F0D5FB8146384605F0AFFB05F0D5FB8046384605F0B7FB0290384605F0BDFB039A0299032A00F0AF80BD
:400D4000D30740F19E8015B1228A114409B2A289114409B2384603F0A7FBB7F910205A4550D094F8242042F0020284F82420002D3FF4D6AE3268FD690E213846A84794F809
:400D8000301001F0020101F0FF0200297FF45EAF3846082105F0C2FAC2E62846FFF7FAFA01462046FFF7ACFC0346706000287FF462AF2846FFF7DAFA01462046FFF7A0FC85
:400DC0000346706057E790077FF5AAAE30680029007DB8BF49428142FFF6A2AE80E7A06A384D0AF0F7FD3268D38A98422BD894F8243099073FF5BFAE94F83030DA077FF5D7
:400E0000BAAE99E6B7F912205245AAD1384605F037FB05F057FB0546384605F031FB05F057FBA9457FF47CAE80457FF479AE3368D8680AF017FD019A3368811A89B2D8689B
:400E40000AF016FD6CE668680C21C369984794F8303003F0020303F0FF02002B7FF4F6AE6868042105F05AFA94F830309A073FF5EDAE43F0010384F830300AF0A1FDE0626A
:400E8000B5E793077FF569AF15B1628A104400B2E189014409B2384603F0A4FB5DE735B1B4F810E0628A7144104409B200B2E289B4F80CE00244714412B209B2384603F028
:400EC000EBF84AE77449020808B500200AF04EFD48B190F84C3043F0020380F84C300AF045FD0028F5D108BD2DE9F043C468634EE368346085B0002B43D094F84C309807BE
:400F000000F19A8003F0040303F0FF05002B38D15A4F204669460AF033FD346894F84C30990780464CD49DF80E307560012B237762D02378042B5BD0012B67D0032B15D163
:400F40000299A36D626A33F92100208403EB810304F11C00B3F902306384236A9A4200F08680FFF709FB236A6362346894F84C309A0709D4B8F1000FCBD1C6F80080C6F8A4
:400F8000048005B0BDE8F08394F84020656303F0FE0302F0FE026FF341036FF3410284F84C30A563E5636564A564A585E58525866586756084F84020B8F1000FA9D1DCE711
:400FC00094F84020656303F0FE0302F0FE026FF341036FF3410284F84C30A563E5636564A564A585E5852586658684F840209AE7BDF90C30002BB9D0D4F80C900AF0E0FC87
:401000003C68C9F860012378012B97D1206D48B1626A009B9A4205D0BDF90220BDF9001003F03AF8237F009A2262012B04F11C0097D1FFF705FD96E794F84010002203F08F
:40104000FE0301F0FE0162F3410362F3410184F84C3084F84010DBB26263A263E2636264A264A285E2852286628672604AE79DF80E30012B7FF475AFDBE700BF7449020824
:40108000014B1868704700BF7449020808B560B190F84C3043F0020380F84C3008BD90F84C3043F0020380F84C300AF05FFC0028F5D108BD28B1037803F0FD03012B01D0E8
:4010C0000020704790F84000C0F34000704700BF70B5022A82B004460D4624D08AB9826AAAB104F1100094F82C305B060CD42468002CF8D1FF23294607F07AFB012002B0CB
:4011000070BD012002B070BD94F82F30F3E703683BB19A6A12B11178C907E2D51B68002BF7D1254ADDE700F11006314628460AF09DFE90B3A36A9BB39A7BFA2A2DD9B3F9DC
:401140000C2047F618439A4227D0306871686B4603C3BDF80010BDF8043094B262181B1B69462846ADF80020ADF804300AF07EFE98B1306871686B4603C3BDF80230BDF84E
:4011800006202344121B69462846ADF80230ADF806200AF06BFE0028B1D1002002B070BD22683AB1936A13B11978C807C4D51268002AF7D1004BBFE74C7A02082DE9F04FF9
:4011C000031D8FB0184608938B4691460BF08EF80290002800F012811FFA8BFA1FFA89F84B46C146D046DA469B46029D288A698AAA8AEB8A4044494442444B4428826982A2
:40120000281DAA82EB820A900BF070F80390002800F0EC805B46C346C846D1469A46039D288A698AAA8AEB8A584441445A44434428826982281DAA82EB8209900BF056F884
:401240000490002800F0C580049D288A698AAA8AEB8A584441445A44434428826982281DAA82EB820B900BF041F80590002800F0A8805346CA469946059D288A698AAA8A2E
:40128000EB8A584441445A44434428826982281DAA82EB820C900BF029F80690002800F08580069D288A698AAA8AEB8A584441445A44434428826982281DAA82EB820D904E
:4012C0000BF014F80790002868D0079D288A698AAA8AEB8A584441445A44434428826982281DAA82EB8201900BF000F8009000284DD0009A1346108A518ADB8A1446928AA9
:40130000584441445A444344261D20826182A282E38230460AF0EAFF0446002830D0208A618AA28AE38A584441445A444344271D20826182A282E38238460AF0D7FF0546EC
:40134000B8B1288A698AAA8AEB8A5844434441445A4428826982AA82EB8228464A465146FFF72CFF294638460AF0C8FF05460028E7D1214630460AF0C1FF04460028CED10B
:40138000009901980AF0BAFF00900028B1D107990D980AF0B3FF0790002896D106990C980AF0ACFF069000287FF47BAF05990B980AF0A4FF059000287FF45EAF4B46D146F1
:4013C0009A46049909980AF099FF049000287FF43BAF03990A980AF091FF039000287FF41EAF5346CA46C146D8469B46029908980AF084FF029000287FF4F7AE0FB0BDE8C4
:40140000F08F00BF2DE9F041074684B08846044600E01C462368002BFBD136480AF066FF064600285ED006F1240528460AF05EFF30B950E0014628460AF060FF00284AD0FD
:401440008442F7D13046FEF791FF84420CD03046FEF7A0FF844207D03046FEF7A5FF844202D004B0BDE8F0813A46B7F9303052F8100F51686A4603C2BDF80600BDF800E0B2
:40148000BDF80250BDF804409BB2C3EB0E0EED1A1C446A460344414602A8ADF800E0ADF80250ADF80440ADF806300AF059FC0028D7D03C6834B917E094F82C30DB06D0D433
:4014C00024688CB102A904F1100208460AF048FC0028F1D1C5E7314606480AF00FFF06460028A0D10026ADE702A9304605F0DAF9B7E700BFF87B02082DE9F04F031D8FB06C
:4015000018460A930AF0F2FE0790002800F07485034608E007990A980AF0F0FE03460790002800F069859B6A002B00F010851B78DE07EFD5079B043318460B930AF0D6FE49
:401540000346069040B9E5E706990B980AF0D6FE034606900028DDD09B6A002B00F0A1841B78D907F0D5069B0433184609930AF0BDFE0346059040B9E6E7059909980AF022
:40158000BDFE034605900028DED09B6A002B00F033841B78DF07F0D5059B0433184608930AF0A4FE0346039040B9E6E7039908980AF0A4FE034603900028DED09B6A002BDF
:4015C00000F0C5831B78DC07F0D5039B0433184604930AF08BFE0346019040B9E6E7019904980AF08BFE034601900028DED09B6A002B00F058831B78DA07F0D5019B04331B
:40160000184602930AF072FE804638B9E7E7414602980AF073FE80460028E0D0D8F82830002B00F040811B78D807F0D508F1040A50460AF05BFE074638B9E8E73946504651
:401640000AF05CFE07460028E1D0BB6A002B00F0D8801B78DB07F1D507F1040948460AF045FE054638B9E9E7294648460AF046FE05460028E2D0AB6A002B70D01B78D807EF
:40168000F2D52E1D30460AF031FE044638B9EBE7214630460AF032FE04460028E4D0A36A33B11B78DB07F3D52046FFF725FFEFE7A3462046FFF720FF5BF8100FB4F93030D8
:4016C000DBF804100CAA03C2BDF830E0BDF83200BDF83410BDF836209BB21944C3EB0E0EC01A1344ADF83410ADF830E0ADF83200ADF8363094F82C30D90603D40CA92046FA
:40170000FFF780FEE3690022042120469847DBF80000DBF80410B4F930200CAB03C3BDF830C0BDF832E0BDF83400BDF8361093B21A18C3EB0C0CC3EB0E0E0B44ADF834208A
:40174000ADF830C0ADF832E0ADF8363094F82C30DA069DD40CA92046FFF754FE98E72C462846FFF7C9FE54F8100FB5F9303061680CAA03C2BDF83060BDF83200BDF8341078
:40178000BDF836209BB2F61AC01A19441344ADF83060ADF83200ADF83410ADF8363095F82C30DE0603D40CA92846FFF72BFEEB69002204212846984720686168B5F9303006
:4017C0000CAA03C2BDF83040BDF83200BDF83410BDF836209BB2E41AC01A19441344ADF83040ADF83200ADF83410ADF8363095F82C30DC063FF538AF0CA92846FFF702FEA6
:4018000032E73C463846FFF777FE54F8100FB7F9303061680CAA03C2BDF83050BDF83200BDF83410BDF836209BB21944ED1AC01A1344ADF83410ADF83050ADF83200ADF8D9
:40184000363097F82C30D90603D40CA93846FFF7D9FDFB69002204213846984720686168B7F930300CAA03C2BDF83620BDF83040BDF83200BDF834109BB2E41AC01A1944EC
:401880001344ADF83040ADF83200ADF83410ADF8363097F82C30DA063FF5D0AE0CA93846FFF7B0FDCAE608F1040948460AF01EFD064640B955E1314648460AF01FFD064663
:4018C000002800F04E81B36A002B00F09A811B78DC07F0D506F1040A50460AF007FD054638B9E8E7294650460AF008FD05460028E1D0AB6A002B70D01B78D807F2D52F1DA2
:4019000038460AF0F3FC044638B9EBE7214638460AF0F4FC04460028E4D0A36A33B11B78DB07F3D52046FFF7E7FDEFE7A3462046FFF7E2FD5BF8100FB4F93030DBF8041070
:401940000CAA03C2BDF830E0BDF83200BDF83410BDF836209BB21944C3EB0E0EC01A1344ADF83410ADF830E0ADF83200ADF8363094F82C30D90603D40CA92046FFF742FD29
:40198000E3690022042120469847DBF80000DBF80410B4F930200CAB03C3BDF830C0BDF832E0BDF83400BDF8361093B21A18C3EB0C0CC3EB0E0E0B44ADF83420ADF830C0E7
:4019C000ADF832E0ADF8363094F82C30DA069DD40CA92046FFF716FD98E72F1D38460AF085FC044630B915E0214638460AF086FC044678B1A36A002B5BD01B78DB07F3D568
:401A00002046FFF779FD214638460AF077FC04460028EFD12C460CAA54F8100FB5F93030616803C2BDF83070BDF83200BDF83410BDF836209BB2C01AFF1A19441344ADF848
:401A40003200ADF83070ADF83410ADF8363095F82C30D80603D40CA92846FFF7D3FCEB69002204212846984720686168B5F930300CAA03C2BDF83040BDF83200BDF83410AE
:401A8000BDF836209BB2E41AC01A19441344ADF83040ADF83200ADF83410ADF8363095F82C30DC063FF51EAF0CA92846FFF7AAFC18E7A3462046FFF71FFD5BF8100FB4F958
:401AC0003030DBF804100CAA03C2BDF830E0BDF83200BDF83410BDF836209BB21944C3EB0E0EC01A1344ADF83410ADF830E0ADF83200ADF8363094F82C30D90603D40CA9FC
:401B00002046FFF77FFCE3690022042120469847DBF80000DBF80410B4F930200CAB03C3BDF830C0BDF832E0BDF83400BDF8361093B21A18C3EB0C0CC3EB0E0E0B44ADF877
:401B40003420ADF830C0ADF832E0ADF8363094F82C30DA063FF548AF0CA92046FFF752FC42E744460CAA54F8100FB8F93030616803C2BDF83050BDF83200BDF83410BDF82B
:401B800036209BB2ED1AC01A19441344ADF83050ADF83200ADF83410ADF8363098F82C30DB0603D40CA94046FFF72CFCD8F81C30002204214046984720686168B8F93030D6
:401BC0000CAA03C2BDF83040BDF83200BDF83410BDF836209BB2E41AC01A19441344ADF83040ADF83200ADF83410ADF8363098F82C30DC063FF50BAD0CA94046FFF702FCB8
:401C000005E534463046FFF777FC54F8100FB6F9303061680CAA03C2BDF83050BDF83200BDF83410BDF836209BB2ED1AC01A19441344ADF83050ADF83200ADF83410ADF817
:401C4000363096F82C30DF0603D40CA93046FFF7D9FBF369002204213046984720686168B6F930300CAA03C2BDF83040BDF83200BDF83410BDF836209BB2E41AC01A1944FE
:401C80001344ADF83040ADF83200ADF83410ADF8363096F82C30DD063FF50DAE0CA93046FFF7B0FB07E6019E34463046FFF724FC54F8100FB6F9303061680CAA03C2BDF860
:401CC0003050BDF83200BDF83410BDF836209BB2C01AED1A19441344ADF83200ADF83050ADF83410ADF8363096F82C30D80603D40CA90198FFF786FB019D0022EB6904210A
:401D00002846984720686168B5F930300CAA03C2BDF83040BDF83200BDF83410BDF836209BB21944E41AC01A1344ADF83410ADF83040ADF83200ADF8363095F82C30D906EB
:401D40003FF54DAC0CA90198FFF75CFB47E4039E34463046FFF7D0FB54F8100FB6F9303061680CAA03C2BDF83050BDF83200BDF83410BDF836209BB2ED1AC01A194413445E
:401D8000ADF83050ADF83200ADF83410ADF8363096F82C30DE0603D40CA90398FFF732FB039D0022EB6904212846984720686168B5F930300CAA03C2BDF83040BDF83200AD
:401DC000BDF83410BDF836209BB2E41AC01A19441344ADF83040ADF83200ADF83410ADF8363095F82C30DD063FF5E0AB0CA90398FFF708FBFFF7DABB059E34463046FFF73E
:401E00007BFB54F8100FB6F9303061680CAA03C2BDF83620BDF83050BDF83200BDF834109BB2ED1AC01A19441344ADF83050ADF83200ADF83410ADF8363096F82C30DA06B2
:401E400003D40CA90598FFF7DDFA059D0022EB6904212846984720686168B5F930300CAA03C2BDF83040BDF83200BDF83410BDF836209BB2E41AC01A19441344ADF830400A
:401E8000ADF83200ADF83410ADF8363095F82C30DB063FF572AB0CA90598FFF7B3FAFFF76CBB069E34463046FFF726FB54F8100FB6F9303061680CAA03C2BDF83050BDF8D7
:401EC0003200BDF83410BDF836209BB2ED1AC01A19441344ADF83050ADF83200ADF83410ADF8363096F82C30DD062BD5069D0022EB6904212846984720686168B5F9303023
:401F00000CAA03C2BDF83040BDF83200BDF83410BDF836209BB2C01AE41A19441344ADF83200ADF83040ADF83410ADF8363095F82C30D8063FF508AB0CA90698FFF762FA0A
:401F4000FFF702BB0CA90698FFF75CFACEE7079E34463046FFF7D0FA54F8100FB6F9303061680CAA03C2BDF83050BDF83200BDF83410BDF836209BB2ED1AC01A1944134445
:401F8000ADF83050ADF83200ADF83410ADF8363096F82C30DB0603D40CA90798FFF732FA079D0022EB6904212846984720686168B5F930300CAA03C2BDF83040BDF83200A7
:401FC000BDF83410BDF836209BB2E41AC01A19441344ADF83040ADF83200ADF83410ADF8363095F82C30DF063FF594AA0CA90798FFF708FAFFF78EBA0FB0BDE8F08F00BFB8
:40200000072908D00129034620D0062925D004292FD00120704713689BB15368002B65D09368002B64D0D368002B63D01369002B62D05369002B61D09369002B14BF072323
:4020400006232F4942F823100120704790F82E0000F0010080F001007047826A002A39D0B2F91C20B3F930109142D2DA1A860120704770B5002282B004460286C369062124
:4020800098472246B4F9303052F8100F94F82C6051686A4603C2BDF80050BDF80200BDF80410BDF806209BB2ED1AC01A19441344ADF80630F306ADF80050ADF80200ADF8C6
:4020C000041002D5012002B070BD69462046FFF799F9F7E7016839B18A6A12B11078C007BED509680029F7D1064AB9E70123A8E70223A6E70323A4E70423A2E70523A0E7C7
:40210000683602104C7A020810B5104C2378DBB90AF072F90AF0F4FA09F026FD04F058FE04F0BEFB4FF4B271094809F067FF5C21084809F063FFFEF7C7FE08F08FFC0120D3
:4021400008F022FA0123237010BD00BF7C490208F87B0208E87B020870B50146024651F8100FB2F93030496892F82C6082B06C4603C4BDF80050BDF80240BDF80400BDF84C
:4021800006109BB2ED1AE41A18440B44ADF80630F306ADF80050ADF80240ADF8040003D410466946FFF72EF902B070BD2DE9F04F0B1D9BB08046184617930AF097F810901C
:4021C000002800F0E181109A936A434501F0B980B8F1000F01F0B58013460433129318460AF084F81190002800F0C681119A936A984501F02886B8F1000F01F02486134655
:402200000433139318460AF071F80B90002800F0AB810B9A936A984501F0CD80B8F1000F01F0C98013460433149314980AF05EF80C90002800F090810C9A936A984501F009
:40224000A383B8F1000F01F09F8313460433159315980AF04BF80D90002800F075810D9A936A984501F03F82B8F1000F01F03B8213460433169316980AF038F80E90002830
:4022800000F05A810E9A936A984500F06386B8F1000F00F05F86134604330F930F980AF025F8C3460A90002800F03E810A9A936A9B4500F08B84BBF1000F00F08784134672
:4022C0000433089308980AF011F8D8460390002800F02181039A936A984500F06D82B8F1000F00F06982134604330293029809F0FDFF002800F006818246C1460BE0514671
:402300004846FFF753FF5146029809F0F7FF8246002800F0F680DAF82830994502D0B9F1000FECD10AF10408404609F0DFFF18AB07460193002800F0BC82CDF810A0CDF869
:402340001490C24605E03946504609F0D7FF074678B1BB6A002B60D01B78DA07F3D53846FFF7CAF83946504609F0C8FF07460028EFD1DDF810A0DDF81490019ABAF93030CA
:4023800054469BB254F8100F616803C2BDF86620BDF86050BDF86200BDF86410ED1AC01A19441344ADF86050ADF86200ADF86410ADF866309AF82C30DA0603D40199504643
:4023C000FFF720F8DAF81C30002204215046984720686168019ABAF9303003C2BDF86040BDF86200BDF86410BDF866209BB2E41AC01A19441344ADF86040ADF86200ADF897
:402400006410ADF866309AF82C30DB063FF577AF01995046FEF7F6FF71E707F10409484609F064FF0446E8B1CDF818A0079705E02146484609F062FF044680B1A36A002B7E
:4024400000F0A5801B78D807F2D52046FFF754F82146484609F052FF04460028EED1DDF818A0079F019AB7F930303C469BB254F8100F616803C2BDF86050BDF86200BDF81F
:402480006410BDF86620ED1AC01A19441344ADF86050ADF86200ADF86410ADF8663097F82C30DB0603D401993846FEF7ABFFFB69002204213846984720686168019AB7F92A
:4024C000303003C2BDF86040BDF86200BDF86410BDF866209BB21944E41AC01A1344ADF86410ADF86040ADF86200ADF8663097F82C30D9063FF527AF01993846FEF782FF0C
:4025000021E7C8460399089809F0F8FE039000287FF4E0AEC3460A990F9809F0EFFE0A9000287FF4C3AED8460E99169809F0E6FE0E9000287FF4A6AE0D99159809F0DEFEBA
:402540000D9000287FF48BAE0C99149809F0D6FE0C9000287FF470AE0B99139809F0CEFE0B9000287FF455AE1199129809F0C6FE119000287FF43AAE1099179809F0BEFEE8
:40258000109000287FF41FAE1BB0BDE8F08F271D384609F0ABFE054630B915E02946384609F0ACFE054678B1AB6A002B5BD01B78DE07F3D52846FEF79FFF2946384609F001
:4025C0009DFE05460028EFD12546019A55F8100FB4F93030696803C2BDF86060BDF86200BDF86410BDF866209BB2F61AC01A19441344ADF86060ADF86200ADF86410ADF8F3
:40260000663094F82C30DE0603D401992046FEF7F9FEE369002204212046984728686968019AB4F9303003C2BDF86050BDF86200BDF86410BDF866209BB2ED1AC01A194464
:402640001344ADF86050ADF86200ADF86410ADF8663094F82C30DD063FF5EAAE01992046FEF7D0FEE4E605F10408404609F03EFE064630B915E03146404609F03FFE0646C9
:4026800078B1B36A002B5CD01B78DA07F3D53046FEF732FF3146404609F030FE06460028EFD12E46019A56F8100FB5F93030716803C2BDF860E0BDF86200BDF86410BDF83B
:4026C00066209BB2C01AC3EB0E0E19441344ADF86200ADF860E0ADF86410ADF8663095F82C30D80603D401992846FEF78BFEEB69002204212846984730687168019AB5F9A9
:40270000303003C2BDF86060BDF86200BDF86410BDF866209BB2F61AC01A19441344ADF86060ADF86200ADF86410ADF8663095F82C30DB063FF532AF01992846FEF762FE9D
:402740002CE706F1040A504609F0D0FD834630B915E05946504609F0D1FD834678B1DBF82820C2B11378D907F3D55846FEF7C4FE5946504609F0C2FD83460028EFD1304626
:40278000FFF7EAFCF36900220421304698473046FFF7E2FC6FE758460992FEF7ADFE5846FFF7DAFC099ADBF81C300421584698475846FFF7D1FCCCE7039B04331846029322
:4027C00009F094FD0DF1600A814608B3CDF804A0CDF81080DDF808A005E04946504609F08DFD814680B1D9F82830002B63D01B78D807F2D54846FEF77FFE4946504609F0C7
:402800007DFD81460028EED1DDF81080DDF804A0039E3446524654F8100FB6F93030616803C2BDF86050BDF86200BDF86410BDF866209BB2C01AED1A19441344ADF862000E
:40284000ADF86050ADF86410ADF8663096F82C30D80603D430465146FEF7D4FD039D0022EB6904212846984720686168B5F93030524603C2BDF86040BDF86200BDF8641064
:40288000BDF866209BB21944E41AC01A1344ADF86410ADF86040ADF86200ADF8663095F82C30D9063FF522AD51460398FEF7AAFD1CE51A4662E509F10408404609F016FD8B
:4028C0000446F0B1CDF814A0CDF8189005E02146404609F013FD044678B1A36A002B60D01B78DD07F3D52046FEF706FE2146404609F004FD04460028EFD1DDF814A0DDF83C
:402900001890019AB9F930304C469BB254F8100F616803C2BDF86050BDF86200BDF86410BDF866201944ED1AC01A1344ADF86410ADF86050ADF86200ADF8663099F82C3058
:40294000D90603D401994846FEF75CFDD9F81C30002204214846984720686168019AB9F9303003C2BDF86040BDF86200BDF86410BDF866209BB2E41AC01A19441344ADF849
:402980006040ADF86200ADF86410ADF8663099F82C30DC063FF521AF01994846FEF732FD1BE7271D384609F0A1FC054630B915E02946384609F0A2FC054678B1AB6A002B42
:4029C0005BD01B78DB07F3D52846FEF795FD2946384609F093FC05460028EFD12546019A55F8100FB4F93030696803C2BDF86620BDF86060BDF86200BDF864109BB2F61A70
:402A0000C01A19441344ADF86060ADF86200ADF86410ADF8663094F82C30DA0603D401992046FEF7EFFCE369002204212046984728686968019AB4F9303003C2BDF86050BE
:402A4000BDF86200BDF86410BDF866209BB2ED1AC01A19441344ADF86050ADF86200ADF86410ADF8663094F82C30DE063FF52FAF01992046FEF7C6FC29E705F10409484613
:402A800009F034FC064630B915E03146484609F035FC064678B1B36A002B5CD01B78D907F3D53046FEF728FD3146484609F026FC06460028EFD12E46019A56F8100FB5F962
:402AC0003030716803C2BDF860E0BDF86200BDF86410BDF866209BB2C3EB0E0EC01A19441344ADF860E0ADF86200ADF86410ADF8663095F82C30DB0603D401992846FEF7E5
:402B000081FCEB69002204212846984730687168019AB5F9303003C2BDF86620BDF86060BDF86200BDF864109BB2F61AC01A19441344ADF86060ADF86200ADF86410ADF84C
:402B4000663095F82C30DA063FF532AF01992846FEF758FC2CE706F1040A504609F0C6FB834630B915E05946504609F0C7FB834678B1DBF82820C2B11378D807F3D5584641
:402B8000FEF7BAFC5946504609F0B8FB83460028EFD13046FFF7E0FAF36900220421304698473046FFF7D8FA6FE758460792FEF7A3FC5846FFF7D0FA079ADBF81C300421F8
:402BC000584698475846FFF7C7FACCE70A9B04331846089309F08AFB0DF1600A8146F8B1D046CDF804B0DDF820A005E04946504609F084FB814680B1D9F82830002B61D002
:402C00001B78DD07F2D54846FEF776FC4946504609F074FB81460028EED1DDF804B0C2460A9E3446524654F8100FB6F93030616803C2BDF86050BDF86200BDF86410BDF879
:402C400066209BB2C01AED1A19441344ADF86200ADF86050ADF86410ADF8663096F82C30D80603D430465146FEF7CCFB0A9D0022EB6904212846984720686168B5F93030E6
:402C8000524603C2BDF86040BDF86200BDF86410BDF866209BB2E41AC01A19441344ADF86040ADF86200ADF86410ADF8663095F82C30DC063FF506AB51460A98FEF7A2FBF3
:402CC000FFF700BB09F10407384609F00FFB0446F0B1CDF808A0CDF80C9005E02146384609F00CFB044678B1A36A002B60D01B78DB07F3D52046FEF7FFFB2146384609F0CF
:402D0000FDFA04460028EFD1DDF808A0DDF80C90B9F930304C46424654F8100F616803C2BDF86050BDF86200BDF86410BDF866209BB21944ED1AC01A1344ADF86410ADF8D7
:402D40006050ADF86200ADF8663099F82C30D90603D441464846FEF755FBD9F81C30002204214846984720686168B9F93030424603C2BDF86040BDF86200BDF86410BDF899
:402D800066209BB2E41AC01A19441344ADF86040ADF86200ADF86410ADF8663099F82C30DE063FF523AF41464846FEF72BFB1DE704F1040A504609F099FA0546C0B1049490
:402DC00005E02946504609F099FA054678B1AB6A002B5CD01B78D907F3D52846FEF78CFB2946504609F08AFA05460028EFD1049CB4F930302546424655F8100F696803C201
:402E0000BDF86620BDF86060BDF86200BDF864109BB2F61AC01A19441344ADF86060ADF86200ADF86410ADF8663094F82C30DA0603D441462046FEF7E5FAE3690022042104
:402E40002046984728686968B4F93030424603C2BDF86620BDF86050BDF86200BDF864109BB2ED1AC01A19441344ADF86050ADF86200ADF86410ADF8663094F82C30DA0618
:402E80003FF52CAF41462046FEF7BCFA26E72E1D304609F02BFA044630B914E02146304609F02CFA044670B1A36AC3B11B78D807F4D52046FEF720FB2146304609F01EFAD1
:402EC00004460028F0D12846FFF746F9EB6900220421284698472846FFF73EF971E704F10409484609F002FA834630B915E05946484609F003FA834678B1DBF82820C2B152
:402F00001378DB07F3D55846FEF7F6FA5946484609F0F4F983460028EFD12046FFF71CF9E36900220421204698472046FFF714F9B4E758460592FEF7DFFA5846FFF70CF92C
:402F4000059ADBF81C300421584698475846FFF703F9CCE70E9B043318460F9309F0C6F918AF8146D8B1CDF8088005E049460F9809F0C4F9814680B1D9F82830002B5DD068
:402F80001B78DD07F2D54846FEF7B6FA49460F9809F0B4F981460028EED1DDF808800E9E34463A4654F8100FB6F93030616803C2BDF86050BDF86200BDF86410BDF866202B
:402FC0009BB2ED1AC01A19441344ADF86050ADF86200ADF86410ADF8663096F82C30DB0640F1E4810E9D0022EB6904212846984720686168B5F930303A4603C2BDF8604052
:40300000BDF86200BDF86410BDF866209BB2E41AC01A19441344ADF86040ADF86200ADF86410ADF8663095F82C30DC063FF536A939460E98FEF7E6F9FFF730B909F10403E5
:403040001846019309F052F9044698B1CDF80C90A36A002B5FD01B78DB0702D52046FEF74BFA2146019809F049F904460028EFD1DDF80C90B9F930304C463A4654F8100F66
:40308000616803C2BDF86050BDF86200BDF86410BDF866209BB2ED1AC01A19441344ADF86050ADF86200ADF86410ADF8663099F82C30DD062AD5D9F81C300022042148464F
:4030C000984720686168B9F930303A4603C2BDF86040BDF86200BDF86410BDF866209BB2E41AC01A19441344ADF86040ADF86200ADF86410ADF8663099F82C30DE063FF5FB
:4031000035AF39464846FEF77DF92FE739464846FEF778F9CFE704F10409484609F0E6F8054630B915E02946484609F0E7F8054678B1AB6A002B5BD01B78D907F3D5284607
:40314000FEF7DAF92946484609F0D8F805460028EFD125463A4655F8100FB4F93030696803C2BDF86060BDF86200BDF86410BDF866209BB2C01AF61A19441344ADF86200B2
:40318000ADF86060ADF86410ADF8663094F82C30D80603D439462046FEF734F9E369002204212046984728686968B4F930303A4603C2BDF86620BDF86050BDF86200BDF8BB
:4031C00064109BB2ED1AC01A19441344ADF86050ADF86200ADF86410ADF8663094F82C30DA063FF53EAF39462046FEF70BF938E705F10408404609F079F8064668B950E054
:403200001B78DB0702D53046FEF776F93146404609F074F80646002843D0B36A002BEFD106F1040A504609F061F8834660B926E01378DA0702D55846FEF75EF95946504640
:4032400009F05CF88346D0B1DBF82820002AEFD158460492FEF750F95846FEF77DFFDBF81C30049A0421584698475846FEF774FF5946504609F042F883460028E4D1304648
:40328000FEF76AFFF36900220421304698473046FEF762FF3146404609F030F806460028BBD12E463A4656F8100FB5F93030716803C2BDF860E0BDF86200BDF86410BDF8D7
:4032C00066209BB21944C3EB0E0EC01A1344ADF86410ADF860E0ADF86200ADF8663095F82C30D90603D439462846FEF78BF8EB69002204212846984730687168B5F93030F8
:403300003A4603C2BDF86060BDF86200BDF86410BDF866209BB2C01AF61A19441344ADF86200ADF86060ADF86410ADF8663095F82C30D8063FF5F7AE39462846FEF762F8D1
:40334000F1E6109B04331846129308F0CFFF044670B1A56ADDB12B78D90702D52046FEF7CBF82146129808F0C9FF04460028F0D1109C2046FEF7F0FEE36900220421204659
:4033800098472046FEF7E8FE1298FEF729BF2046FEF7B2F82046FEF7DFFE2A46E3690421204698472046FEF7D7FEDAE730463946FEF728F816E60B9B04331846149308F032
:4033C00095FF18AF8146A0B1CDF80880D9F82830002B60D01B78DD0702D54846FEF78CF84946149808F08AFF81460028EED1DDF808800B9E34463A4654F8100FB6F9303050
:40340000616803C2BDF86050BDF86200BDF86410BDF866209BB2C01AED1A19441344ADF86200ADF86050ADF86410ADF8663096F82C30D80603D430463946FDF7E3FF0B9D7A
:403440000022EB6904212846984720686168B5F930303A4603C2BDF86040BDF86200BDF86410BDF866209BB2E41AC01A19441344ADF86040ADF86200ADF86410ADF8663077
:4034800095F82C30DC063EF5D0AE39460B98FDF7B9FFFEF7CABE09F104031846019308F025FF044698B1CDF80C90A36A002B5ED01B78DB0702D52046FEF71EF8214601981F
:4034C00008F01CFF04460028EFD1DDF80C90B9F930304C463A4654F8100F616803C2BDF86050BDF86200BDF86410BDF866209BB21944ED1AC01A1344ADF86410ADF86050C9
:40350000ADF86200ADF8663099F82C30D90603D439464846FDF776FFD9F81C30002204214846984720686168B9F930303A4603C2BDF86040BDF86200BDF86410BDF86620E7
:403540009BB2E41AC01A19441344ADF86040ADF86200ADF86410ADF8663099F82C30DE063FF53EAF39464846FDF74CFF38E704F10409484608F0BAFE054678B1AB6A002B81
:403580005BD01B78D90702D52846FDF7B5FF2946484608F0B3FE05460028EFD125463A4655F8100FB4F93030696803C2BDF86620BDF86060BDF86200BDF864109BB2F61A60
:4035C000C01A19441344ADF86060ADF86200ADF86410ADF8663094F82C30DA0603D439462046FDF70FFFE369002204212046984728686968B4F930303A4603C2BDF8662031
:40360000BDF86050BDF86200BDF864109BB2ED1AC01A19441344ADF86050ADF86200ADF86410ADF8663094F82C30DA063FF546AF39462046FDF7E6FE40E705F104084046F6
:4036400008F054FE064670B1B36AC3B11B78D80702D53046FDF750FF3146404608F04EFE06460028F0D12846FEF776FDEB6900220421284698472846FEF76EFD87E706F199
:40368000040A504608F032FE834678B1DBF82820C2B11378DB0702D55846FDF72DFF5946504608F02BFE83460028EFD13046FEF753FDF36900220421304698473046FEF797
:4036C0004BFDC9E758460492FDF716FF5846FEF743FD049ADBF81C300421584698475846FEF73AFDDBE70D9B04331846169308F0FDFD18AF8146002800F0F480CDF8088098
:403700000BE01B78D90700F11C834946169808F0F5FD8146002800F0E380D9F82830002BEFD109F104031846019308F0DFFD044600287ED0CDF80C900AE01B78DD0700F1E4
:403740007E832146019808F0D9FD044600286ED0A36A002BF1D104F10409484608F0C6FD054680B1AB6A002B00F0EF821B78DB0702D52846FDF7C0FE2946484608F0BEFD4C
:4037800005460028EED125463A4655F8100FB4F93030696803C2BDF86060BDF86200BDF86410BDF866209BB2F61AC01A19441344ADF86060ADF86200ADF86410ADF8663042
:4037C00094F82C30DE0603D439462046FDF71AFEE369002204212046984728686968B4F930303A4603C2BDF86050BDF86200BDF86410BDF866209BB2ED1AC01A19441344E8
:40380000ADF86050ADF86200ADF86410ADF8663094F82C30DE0694D420463946FDF7F2FD2146019808F06AFD0446002890D1DDF80C90B9F930304C463A4654F8100F6168E1
:4038400003C2BDF86050BDF86200BDF86410BDF866209BB2ED1AC01A19441344ADF86050ADF86200ADF86410ADF8663099F82C30DB0603D439464846FDF7C4FDD9F81C308D
:40388000002204214846984720686168B9F930303A4603C2BDF86040BDF86200BDF86410BDF866209BB2C01AE41A19441344ADF86200ADF86040ADF86410ADF8663099F8D2
:4038C0002C30D8063FF521AF48463946FDF79AFD4946169808F012FD814600287FF41DAFDDF808800D9E34463A4654F8100FB6F93030616803C2BDF86620BDF86050BDF821
:403900006200BDF864109BB2ED1AC01A19441344ADF86050ADF86200ADF86410ADF8663096F82C30DA0603D430463946FDF76AFD0D9D0022EB690421284698472068616896
:40394000B5F930303A4603C2BDF86620BDF86040BDF86200BDF864109BB2E41AC01A19441344ADF86040ADF86200ADF86410ADF8663095F82C30DA063EF57DAC39460D9862
:40398000FDF740FDFEF777BC0C9B04331846159308F0ACFC18AF8146A0B1CDF80880D9F82830002B60D01B78D80702D54846FDF7A3FD4946159808F0A1FC81460028EED190
:4039C000DDF808800C9E34463A4654F8100FB6F93030616803C2BDF86050BDF86200BDF86410BDF866209BB2C01AED1A19441344ADF86200ADF86050ADF86410ADF866304C
:403A000096F82C30D80603D430463946FDF7FAFC0C9D0022EB6904212846984720686168B5F930303A4603C2BDF86040BDF86200BDF86410BDF866209BB21944E41AC01A81
:403A40001344ADF86410ADF86040ADF86200ADF8663095F82C30D9063EF5FAAB39460C98FDF7D0FCFEF7F4BB09F104031846019308F03CFC044698B1CDF80C90A36A002BD9
:403A80005ED01B78DD0702D52046FDF735FD2146019808F033FC04460028EFD1DDF80C90B9F930304C463A4654F8100F616803C2BDF86050BDF86200BDF86410BDF8662037
:403AC0009BB21944ED1AC01A1344ADF86410ADF86050ADF86200ADF8663099F82C30D90603D439464846FDF78DFCD9F81C30002204214846984720686168B9F930303A4653
:403B000003C2BDF86040BDF86200BDF86410BDF866209BB2E41AC01A19441344ADF86040ADF86200ADF86410ADF8663099F82C30DC063FF53EAF39464846FDF763FC38E708
:403B400004F10409484608F0D1FB054678B1AB6A002B5BD01B78DB0702D52846FDF7CCFC2946484608F0CAFB05460028EFD125463A4655F8100FB4F93030696803C2BDF800
:403B80006620BDF86060BDF86200BDF864109BB2F61AC01A19441344ADF86060ADF86200ADF86410ADF8663094F82C30DA0603D439462046FDF726FCE3690022042120468C
:403BC000984728686968B4F930303A4603C2BDF86050BDF86200BDF86410BDF866209BB2ED1AC01A19441344ADF86050ADF86200ADF86410ADF8663094F82C30DE063FF5C1
:403C000046AF39462046FDF7FDFB40E705F10408404608F06BFB064678B1B36A002B5CD01B78D90702D53046FDF766FC3146404608F064FB06460028EFD12E463A4656F8E8
:403C4000100FB5F93030716803C2BDF860E0BDF86200BDF86410BDF866209BB2C3EB0E0EC01A19441344ADF860E0ADF86200ADF86410ADF8663095F82C30DB0603D4394604
:403C80002846FDF7BFFBEB69002204212846984730687168B5F930303A4603C2BDF86620BDF86060BDF86200BDF864109BB2F61AC01A19441344ADF86060ADF86200ADF850
:403CC0006410ADF8663095F82C30DA063FF548AF39462846FDF796FB42E706F1040A504608F004FB834678B1DBF82820C2B11378D80702D55846FDF7FFFB5946504608F07A
:403D0000FDFA83460028EFD13046FEF725FAF36900220421304698473046FEF71DFA85E758460492FDF7E8FB5846FEF715FA049ADBF81C300421584698475846FEF70CFAC6
:403D4000DBE74846FDF7D8FBDFE405F10408404608F0CCFA064678B1B36A002B3BD01B78DA0702D53046FDF7C7FB3146404608F0C5FA06460028EFD12846FEF7EDF9EB695F
:403D8000002204212846984729463A4651F8100FB5F93030496803C2BDF86060BDF86200BDF86410BDF866209BB2C01AF61A19441344ADF86200ADF86060ADF86410ADF88F
:403DC000663095F82C30D8063FF5D6AC39462846FDF718FBD0E406F1040A504608F086FA834678B1DBF82820C2B11378D90702D55846FDF781FB5946504608F07FFA8346B6
:403E00000028EFD13046FEF7A7F9F36900220421304698473046FEF79FF9A6E758460492FDF76AFB5846FEF797F9049ADBF81C300421584698475846FEF78EF9DBE72046B6
:403E4000FDF75AFB7DE4119B04331846139308F04DFA074690B1CDF80880BB6AEBB11B78DC0702D53846FDF747FB3946139808F045FA07460028F0D1DDF80880119C2046CE
:403E8000FEF76AF9E36900220421204698472046FEF762F91398FEF7B6B93B1D1846019308F024FA044670B1A36AC3B11B78DD0702D52046FDF720FB2146019808F01EFAEE
:403EC00004460028F0D13846FEF746F9FB6900220421384698473846FEF73EF9C5E704F10408404608F002FA054670B1AB6AC3B11B78DE0702D52846FDF7FEFA2946404671
:403F000008F0FCF905460028F0D12046FEF724F9E36900220421204698472046FEF71CF9CAE705F10409484608F0E0F9064670B1B36AC3B11B78DB0702D53046FDF7DCFA03
:403F40003146484608F0DAF906460028F0D12846FEF702F9EB6900220421284698472846FEF7FAF8CAE706F1040A504608F0BEF9834678B1DBF82820C2B11378DA0702D5E3
:403F80005846FDF7B9FA5946504608F0B7F983460028EFD13046FEF7DFF8F36900220421304698473046FEF7D7F8C9E758460392FDF7A2FA5846FEF7CFF8039ADBF81C3031
:403FC0000421584698475846FEF7C6F8DBE700BFF0B50468271D064683B0384608F086F986424BD025466A4655F8100FB4F93030696803C2BDF80620BDF800E0BDF8020050
:40400000BDF804109BB2C3EB0E0EC01A19441344ADF800E0ADF80200ADF80410ADF8063094F82C30DA0631D5012332463946384608F0CAF83246E369012120469847286876
:404040006968B4F930306A4603C2BDF80050BDF80200BDF80410BDF806209BB2ED1AC01A19441344ADF80050ADF80200ADF80410ADF8063094F82C30DB0601D503B0F0BD7C
:4040800069462046FDF7BEF903B0F0BD69462046FDF7B8F9C8E700BF2DE9F04F0768B0F810E03E8A7D8A438ACEEB0606ED1A31448EB22A4495B20FFA86F885B00FFA85FA46
:4040C000B8F1000F05D1BAF1000F02D105B0BDE8F08F8146044659F8100FB4F93020D9F804100DF1080CACE80300BDF80E10BDF808B0BDF80AC0BDF80C0092B2C2EB0B0B39
:40410000C2EB0C0C10440A4494F82C10ADF80E20CA06ADF808B0ADF80AC0ADF80C0049D5B4F814C0E28AD9F80000D9F80410B6442B4466441544A4F810E0EE46AEE80300AB
:4041400052466382A6824146E5822046FDF736F86A46E369022120469847FB692246012138469847D9F80000D9F80410B4F9303094F82C6002AA03C2BDF80850BDF80A005D
:40418000BDF80C10BDF80E209BB2ED1AC01A19441344ADF80E30F306ADF80850ADF80A00ADF80C1092D402A92046FDF72BF905B0BDE8F08F02A92046FDF724F9B4F810E0FA
:4041C000638AADE7F0B50D4683B00646002800F01381043007F01CFF0446002800F05781402140F8046B07F009FF94F82D20AA4BE361002363F3830284F82D20B6F91220DA
:404200006282B6F91020718A2282328A94F83D00A24FA3616431963263F30000E182A282238684F83C3023876387636384F83D0027620BF0B9F9002800F02781816894F859
:404240002C3094F82D20A16243F00103002103F0810342F0030261F3C71361F30612FF2084F82C3084F82E10616284F82D2084F82F00002D00F0BB802B4604F1100753F85E
:40428000102F5B6822617B60B5F93030238695F83C3084F83C3095F83D2094F83D30B5F93A10B5F93800208762F300036A6B626384F83D30618795F82C2094F82C30A96908
:4042C000A16162F3000384F82C3095F82C3094F82C2094F82D10C3F3400363F3410284F82C2095F82D3063F3010184F82D1095F82C30D2B2C3F3800363F3820284F82C2065
:4043000095F82C30D2B2C3F3C00363F3C30284F82C2095F82C30D2B2C3F3001363F3041284F82C2095F82C30D2B2C3F3401363F3451284F82C2095F82C30D2B2DB0963F3B8
:40434000C71284F82C2095F82C30D2B2C3F3801363F3861284F82C2095F82E3084F82E3095F82F3084F82F302B68AA6AA262002B38D0002E36D0588A6A8A298A1B8A121A38
:40438000C91A12B209B22046FFF786FEF369304622460121984738687968B4F9303094F82C606A4603C2BDF80050BDF80200BDF80410BDF806209BB2ED1AC01A1944134423
:4043C000ADF80630F306ADF80050ADF80200ADF8041002D5204603B0F0BD69462046FDF711F8F7E7002211462046FFF755FE002EF0D004F11007C9E707F0F6F9002846D011
:40440000243007F005FE0446002840D0402140F8046B07F0F3FD214B1F4A2362E261A66126826682304607F0E5F90138A082304607F0F2F994F83D302686013866F3000351
:40444000E08284F83C6026876687666384F83D300BF0AAF8E8B1026894F82C1094F82D30A26201F08001002203F0F30362F3C71162F30613FF2084F82C1084F82E206262A4
:4044800084F82D3084F82F00F3E60549D7E60020A1E7044AE0E700BF01200110D11001108C7B0208EC7A02082DE9F04F0768B0F812E07A8A85B0002F00F09180C2EB0E03EE
:4044C0009CB2038A3E8AF61A14440E44CEEB0404B6B2A4B20FFA86F90FFA84FAB9F1000F05D1BAF1000F02D105B0BDE8F08F8046054658F8100FB5F93020D8F804100DF17C
:40450000080CACE80300BDF80E10BDF808B0BDF80AC0BDF80C0092B2C2EB0B0BC2EB0C0C10440A4495F82C10ADF80E20CA06ADF808B0ADF80AC0ADF80C0048D5B5F814C05B
:40454000EA8AD8F80000D8F804103344A644664414442B826B4603C3A5F812E05246AE824946EC822846FCF729FE6A46EB69022128469847FB692A46012138469847D8F819
:404580000000D8F80410B5F9303095F82C6002AA03C2BDF80840BDF80A00BDF80C10BDF80E209BB2E41AC01A19441344ADF80E30F306ADF80840ADF80A00ADF80C1093D496
:4045C00002A92846FCF71EFF05B0BDE8F08F02A92846FCF717FF2B8AB5F812E0AEE774466FE700BF2DE9F04F0768B0F810E03A8A85B0002F00F09280C2EB0E039DB2438A7F
