:020000041008E2
:4000000000780408EB0208100D00000051030810510308105103081051030810000000000000000000000000000000004D0308104D030810000000004D0308104D030810DA
:400040004D0308104D0308104D0308104D0308104D0308104D0308104D0308104D0308104D0308104D0308104D0308104D0308104D0308104D0308104D0308104D03081000
:400080004D0308104D0308104D0308104D0308104D0308104D0308104D0308104D0308104D0308104D0308104D0308104D0308104D0308104D0308104D0308104D030810C0
:4000C0004D0308104D0308104D0308104D0308104D0308104D0308104D0308104D0308104D0308104D0308104D0308104D0308104D0308104D0308104D0308104D03081080
:400100004D0308104D0308104D0308104D0308104D0308104D0308104D0308104D0308104D0308104D0308104D0308104D0308104D0308104D0308104D0308104D0308103F
:400140004D0308104D0308104D0308104D0308104D0308104D0308104D0308104D0308104D0308104D0308104D0308104D0308104D0308104D0308104D0308104D030810FF
:400180004D0308104D0308104D0308104D0308104D0308104D0308104D0308104D0308104D0308104D0308104D0308104D0308104D0308104D0308104D0308104D030810BF
:4001C0004D0308104D0308104D0308104D0308104D0308104D0308104D0308104D0308104D0308104D0308104D0308104D0308104D0308104D0308104D0308104D0308107F
:400200004D0308104D0308104D0308104D0308104D0308104D0308104D0308104D0308104D0308104D0308104D0308104D0308104D0308104D0308104D0308104D0308103E
:400240004D0308104D0308104D0308104D0308104D0308104D0308104D0308104D0308104D0308104D0308104D0308104D0308104D0308104D0308104D0308104D030810FE
:400280004D0308104D0308104D03081010B5054C237833B9044B13B10448AFF300800123237010BDE4480208000000001C1A0810084B10B51BB108490848AFF300800848E9
:4002C000036803B910BD074B002BFBD0BDE81040184700BF00000000E84802081C1A0810B4420208000000007047FFF7FDFF72B6104C114DAC4209DA21686268A368043B2E
:40030000A2BFC858D050FAE70C34F3E70B490C4A00209142BCBF41F8040BFAE709480A490860BFF34F8F00F043F900F01DF900F01DF8FEE7201A0810381A0810E448020836
:40034000F04A02080040020808ED00E0FEE7FEE700B504207146084202D0EFF3098001E0EFF30880043001F0F3F8FEE710B562B600F032F9114B19688C6891F8730003230E
:4003800003FA00F091F8702091F8723002FA03F3034343F00043C4F800348B68D3F80034002300E0064BC3F30B01064AC2F804110133B3F5007FF6D1F4E700BFEC4A02084B
:4003C00000FEFFFF0000144108B5012001F03AF808BD00BF704700BF5C4AD2F8803303F00F0303F1D00152F8212002F00702032A04D0042A05D092B9554914E0554A116845
:4004000011E003F1C002514951F8222002F01F02112A06D0132A04D04FF4FA4103E04E4901E04FF400418BBB484BD3F8902502F00100D3F88825C2F30172D3F8883513F0E7
:40044000405F07D0414BD3F88835C3F30173012B02D102E0012300E0002303B108B9032A46D13A48D0F88025C2F31103D0F88425C2F30C02D0F88005C0F300600130B1FBDE
:40048000F2F202FB03F2B2FBF0F131E0012B2FD12E4BD3F8402602F00100D3F80026C2F30172D3F8003613F0405F07D0274BD3F80036C3F30173012B02D102E0012300E0E9
:4004C000002303B108B9032A12D12048D0F8002602F07F02D0F80036C3F30423D0F80006C0F3044002FB01F2B2FBF3F2B2FBF0F1164BD3F88033C3F3011321FA03F21549C4
:400500004A601648D0F89030C3F3072301330069000E0130B2FBF0F08860B2FBF3F3CB600B6103F5742202F23F220D48A0FB0202C2F387420A7503F2E7330A4AA2FB0323D6
:400540009B098B61DB03CB61704700BF0000264000127A008C42020800366E010000214083DE1B43D34D621008B50D4801F054F8FFF730FFFFF730FF00221146042000F024
:4005800029FD084800F0BCFD074B1B6893F8513013B1064800F024FE00F066FC08BD00BF6419081000490208EC4A02087416081008B501F02AF8074AD2F8883043F470032A
:4005C000C2F88830BFF34F8FBFF36F8F01F021F808BD00BF00ED00E010B50E4B1B786BB90D4C21460D4800F0C7FA04F1340201210B4800F017F80122064B1A70074A1368EA
:4006000043F000431360A2F58022136843F00043136010BD804A0208A8160810000014410000104170B50E461446054620B94FF489715C4800F07CFF24B940F21311594800
:4006400000F076FF002D00F0A780002C00F0A680731EDBB2022B04D94FF48F71514800F067FF23683BB1B3F1804F04D040F21F114C4800F05DFF2379032B04D94FF490714A
:40068000484800F055FF637943B1082B06D0102B04D040F22111434800F04AFFE3883BB1B3F5006F04D04FF491713E4800F040FF23896BB1B3F5807F0AD0B3F5007F07D0D3
:4006C000B3F5407F04D040F22311364800F030FFA37A33B1802B04D04FF49271314800F027FFE37A33B1402B04D040F225112D4800F01EFF237B33B1202B04D04FF4937115
:40070000284800F015FF23682B60227961790A43E3881A4323891A43A37A1A43E37A1A43237B134311B94FF4805200E000221343012E01D0032E14D16B606279082A01D17D
:40074000032200E00122C5F8082FAA6A617B09B1012100E000210A43AA622A6A42F001022A62023EF6B2012E1AD8AB606379082B01D1032300E00123C5F8143FAB6A627BC1
:400780000AB1022200E000221343AB622B6A43F002032B62002070BD034870BD024870BD002070BDEC16081001002E00002800F0E081F0B5032840F0D980032921D809B910
:4007C000072A0AD9012901D10F2A06D9022901D1032A02D9032914D19AB9BA4B1D68AE6895F8710001FA00F7032404FA00F307EA030095F870301340034343F08043C6F852
:400800000034B04B1B6893F83F0037281ED903291CD809B9072A0AD9012901D10F2A06D9022901D1032A02D903290FD172B99D6893F8710001FA00F6032404FA00F0304029
:4008400093F8703013400343C5F8DC3C012922D871B9072A56D89B4B18688468B0F87430234453F8220020F47F4043F8220049E0012947D10F2A45D8924B1B689868B3F8C4
:400880007630184450F8223023F47F0323F47F4340F8223036E002291BD1032A32D8894C23689868B3F87830184450F8223023F47F0323F47F4340F8223020688468B0F87B
:4008C0007830234453F8220020F0F80043F8220018E0032916D1AAB97A4C20688568B0F87A302B4453F82200C0B243F8220020688468B0F87A30234453F8220020F0F800CF
:4009000043F82200032900F2338109B9072A0DD9012901D10F2A09D9022901D1032A05D9032940F02581002A40F02281654B1D68AC6895F87360032000FA06F795F87030A1
:4009400095F8726003FA06F63E4395F87170B940B840014031431A4041EA020343F00043C4F80034AB68D3F80034F0BD032921D809B9072A0AD9012901D10F2A06D90229A1
:4009800001D1032A02D9032914D19AB94D480668B76896F8714001FA04FE032505FA04F00EEA000496F870001040204340F08040C7F800044348006890F83F40372C1ED9CC
:4009C00003291CD809B9072A0AD9012901D10F2A06D9022901D1032A02D903290FD172B9866890F8714001FA04F7032505FA04F43C4090F8700010402043C6F8DC0C01297E
:400A000032D8A9B9072A00F28480FF2B00F281802C480468A568B4F87400284450F8224024F47F441B029BB2234340F8223070E001296ED10F2A6CD8B3F5803F69D221486D
:400A400000688468B0F87600044454F8220020F47F0020F47F401B0223F07F4323F0FF03034344F8223054E002292DD1032A50D8B3F5803F4DD205981F284AD8114D2868E1
:400A80008468B0F87800044454F8220020F47F0020F47F401B0223F07F4323F0FF03034344F822302B689868B3F87830184450F8223023F0F804059BDB00DBB2234340F8A2
:400AC000223026E0EC4A0208032922D10ABBB3F1807F1ED205981F281BD8264D28688468B0F87A00044454F82200C0B240EA032344F822302B689868B3F87A30184450F86D
:400B0000223023F0F804059BDB00DBB2234340F8223003292CD809B9072A0AD9012901D10F2A06D9022901D1032A02D903291FD1F2B9104B1D68A86895F87360032404FA01
:400B400006F795F8703095F8726003FA06F63E4395F87170B940BC40214031431A4041EA020343F00043C0F80034AB68D3F80034F0BD7047EC4A020870B582B00C460546A4
:400B800018B94921544800F0D3FC1CB94A21524800F0CEFC002D00F09A80002C00F099802378012B03D958214B4800F0C1FC636833B1B3F1807F03D05921474800F0B8FC71
:400BC000237A042B03D95A21434800F0B1FC638963B1B3F5807F09D0B3F5007F06D0B3F5407F03D05B213C4800F0A2FCE3687BB1B3F5800F0CD0B3F5400F09D0B3F1006FF8
:400C000006D0B3F1086F03D05C21334800F090FC237C012B03D95D212F4800F089FC636933B1B3F1804F03D05E212B4800F080FCA3693F2B03D95F21274800F079FCA36965
:400C400003F03F0263891343217A8A1ED2B2022A01D843F08053042901D143F000536268134362691A43E66816432378012B02D10023012201E001230022217C012902D117
:400C800042F4807201E043F4807394F82410A9620121A962C5F8B020C5F8B430E369C3F30B03C5F80031236AC3F30B03C5F8043194F8253043B1E36AA26A94F82610207A10
:400CC000246B0094FFF772FD2E60002002E0034800E0024802B070BD28170810010066001F4B98422DD00CD840282ED003D8E8B1102828D02FE0802829D0B0F5807F28D04F
:400D000029E0184B984228D006D8B0F1204F0DD0154B984212D01EE0144B98420AD00133984209D0023B984215D101E0002070470F4870470F4870470F4870474FF4A000D4
:400D40007047074870470D4870470D4870470D487047034870470C4870474FF4A400704706005200010000F0090000A0040000F001005200020052000300520001005000B4
:400D80000200500005005200FF00520038B5124B1B6893F83130012B04D840F2C3110F4800F0C6FB0C4B1D682A6AB5F8B03013442C46D5F8B420D358002B0BDB084B1868F4
:400DC000FFF78EFF6B6801229A6063689B68002BFBD138BD034838BDEC4A020868170810884A0208020050001A4B186128B102230370FF23437000234380174B1B6893F807
:400E000050202AB300B583B0B3F93830ADF80030002301931149684600F04EFBBDF90030002B08DB590903F01F03012202FA03F30B4A42F82130084B1B6893F8513023B186
:400E400002220849012000F077FA03B05DF804FB704700BF884A0208EC4A02082543020800E100E0DD43020808B50248FFF7BCFF08BD00BF9C4A020838B50B4B1B68D3F8C8
:400E8000B4301B58002B0DDA0D4604460B0C1B0423B140F2D521054800F04AFBA9B26160002038BD024838BDEC4A0208A817081001008A0038B50368002B01DA002300E005
:400EC000094B73B90D460446C2600B0C1B0423B140F2BB21054800F02BFBA9B2A160002038BD014838BD00BF01008A00A817081038B504460D4619B99921084800F018FBFF
:400F0000074B1B68D3F8B4301B59002B03DAE3682B60002038BD034838BD00BFE8170810EC4A020801008A00254B1B6893F8313083423AD900293AD00B6813F01F0F38D14E
:400F400070B50D4604461E4B1B6893F83130984204D340F2C3111B4800F0EAFA184B1B68186AB3F8B03004FB0304174E34602A68D2080021686800F055FB00212046FFF7DD
:400F80007BFF346825B940F293310E4800F0D0FA2A4600212046FFF78DFF60B900210A4B1868FFF769FF40B970BD084870470748704706487047064870BD054870BD00BF65
:400FC000EC4A0208A8170810A04A020803018A0001018A0010B504461346B2B9A9B9124B1B6893F83130984204D340F2C3110F4800F09EFA0C4B1B681A6AB3F8B03004FB4D
:4010000003240B4B1C60002010BD43B149B1084A51609360111D2046FFF786FF10BD054810BD044810BD00BFEC4A0208A8170810A04A020803018A002DE9F0411B4B1B684F
:40104000DC68236883422CD90D464609A0EB4610012303FA00F819B900F0D7FA074600E00027124B18680368002B01DA002300E00F4B83B9626852F8263018EA030F05D01A
:4010800023EA080342F82630002400E0094C0021FFF7F2FE00E0084C25B9384600F0B9FA00E0064C2046BDE8F08100BFA04A020801008A00020188000301880004018A0063
:4010C0000B4B1B68DB681A6882420CD94109A0EB4110012202FA00F05B6853F82130184203D004487047044870470448704700BFA04A02080101880004018A00000188008A
:40110000024B1B680BB9014B18607047AC4A02082DE9F8430446884691461D46089F2C4B1B681BB9B5212B4800F002FA284B1B682C2000FB04F01C18EEB21E50C5F30723FE
:4011400063602D0CA560244B1B6893F831309E4204D340F2C311214800F0EAF91E4B1B68196AB3F8B02006FB02162661666893F832309E4204D340F2DF11184800F0D8F958
:40118000154B1B681D6A803605EB46156561A668330C1B0423B14FF4FF71104800F0C8F9330C1B0423B140F2FF110C4800F0C0F9B3B243EA0646AE60C4F81C90C4F82080E1
:4011C0000023A36117B1B7F90030A381BDE8F883AC4A020828180810EC4A0208A8170810F0B58FB0044618B95221274800F0A0F9A369072B03D95621234800F099F9E36A38
:401200001BB95821204800F093F9236B1BB959211D4800F08DF907AD04F114060FCE0FC537682F6002AD26460FCE0FC533682B60164B1B68B3F93620079B1344ADF830304E
:40124000089B0D93A26AE16A0CAD00953B460A98FFF75EFF00210091069B0A460598FFF757FF216B284600F027F9BDF93030002B08DB590903F01F03012202FA03F3044A7C
:4012800042F821300FB0F0BD28180810EC4A020800E100E0F8B506460F461D4614461AB9FD211F4800F044F91E4B1B681BB9FE211B4800F03DF91B4B1B682C2101FB06307E
:4012C00001FB07314B68012202FA03F31B04466802FA06F60269EAB18F69EFB91268002A01DA002200E0104AC2B92288134323600369DC6001238B614D620469330C1B047C
:4013000023B140F2BB21094800F012F9B2B2A2600020F8BD0648F8BD0648F8BD0548F8BD28180810AC4A020801008A00A817081004028A0007028A00F8B505460F461646B6
:401340000E4B1B6823B94FF4AF710D4800F0F0F80A4B1B682C2404FB0534236A23B94FF4B171074800F0E4F8E369B34204D9236A43F826700020F8BD0248F8BDAC4A02088C
:40138000281808100A028A0070B582B000230193044620B940F2D111284800F0C9F8236923B94FF4E971254800F0C2F8636923B940F2D311214800F0BBF8236A23B94FF447
:4013C000EA711E4800F0B4F86369DD682A0C20D012041A601B682069194B1B68D3F8B430C358002B15DA01A9FFF782FD60B9019803681E0CDBB2E269934206D2226A52F831
:40140000233013B1984700E0002631462069FFF733FDADB275B16369ADB21D601B68636A1BB198470023636202E0A36A03B198470023A36163691B6802B070BD281808104B
:40144000EC4A020810B50446074B1B6823B940F2B111064800F06CF8034B1B682C2000FB0430FFF791FF10BDAC4A02082818081038B50D4B9A680D4B9A420FD10D460446E7
:4014800021B940F237110A4800F052F804F11003064A52F8230042F8235038BD1030054B53F8200038BD00BF00ED00E000400208681808100000081048B338B504460D46EA
:4014C0004368072B03D93221134800F031F8B4F900306268002B08DB5201D2B203F1604303F5614383F8002305E003F00F035201D2B20A49CA540A4B9A680A4B9A4208D17C
:401500002946B4F90000FFF7B3FF002038BD06487047002038BD00BF6818081014ED00E000ED00E0004002080100560001BEFEE738B50D46044C18220146204600F07AF895
:40154000A5610020FFF7F2FF50480208FEE700BF08B50268254BDA6142681A6282685A62C2689A620269DA6242691A6382695A63C2699A631E4A916AD963D16A1964516AA3
:401580005964516B9964926BDA64F1EE103A13F0900F27D0026A154B1A65426A5A65826A9A65C26ADA65026B1A66426B5A66826B9A66C26BDA66026C1A67426C5A67826CAC
:4015C0009A67C26CDA67026DC3F88020426DC3F88420826DC3F88820C26DC3F88C20026EC3F89020FFF7B2FF08BD00BF5048020800ED00E0000000000230800803D0013088
:401600000238FCD100BF00BF7047EFF3108072B6704780F310887047014B1860704700BFEC4A020802440346934202D003F8011BFAE7704710B5034642B111F8014B03F8AB
:40164000014B013A002CF7D11A4400E010BD934202D003F8014BFAE710BD0000F8B500BFF8BC08BC9E467047F8B500BFF8BC08BC9E46704703000000010000000100000045
:401680000000000005036000040000000100000000000000010000000604600008000000604A0208C90308100100000000000001010000020000400000000000000000006D
:4016C000220000000000000000000000010000000000000000000000000000000000000002080008000000000000000047656E6572617465645F536F757263655C50536FE8
:4017000043365C70646C5C647269766572735C7065726970686572616C5C6374625C63795F6374622E63000047656E6572617465645F536F757263655C50536F43365C70A9
:40174000646C5C647269766572735C7065726970686572616C5C63746461635C63795F63746461632E63000047656E6572617465645F536F757263655C50536F43365C7022
:40178000646C5C647269766572732F7065726970686572616C2F6970632F63795F6970635F6472762E68000047656E6572617465645F536F757263655C50536F43365C703F
:4017C000646C5C647269766572735C7065726970686572616C5C6970635C63795F6970635F6472762E68000047656E6572617465645F536F757263655C50536F43365C7078
:40180000646C5C647269766572735C7065726970686572616C5C6970635C63795F6970635F6472762E63000047656E6572617465645F536F757263655C50536F43365C703C
:40184000646C5C647269766572735C7065726970686572616C5C6970635C63795F6970635F706970652E630047656E6572617465645F536F757263655C50536F43365C709A
:40188000646C5C647269766572735C7065726970686572616C5C737973696E745C63795F737973696E742E6300000000000020400000244000000040000000000000234036
:4018C000000030400000314000009F40000022400000104002020202020202020210101D800017007500FF030602063604102000000000007FC0000000040000000000005E
:401900000019324B647D00804000080B100000000000FF012002001F00800004FF081018001000140018001C4044484C500000000810000008000000040000000410000061
:401940000012000004210000002100000016000040114002C41300138013A013200000001C0000000000214000002540000001400000344000002440000031400000324038
:4019800000001F410000234000001140010101010101010101101010800019005500F0000501053B04101C01010000000FC000000004000001010101011D3A5778960008E8
:4019C0002000101208000000001F00000010000F002000023F06080E00080009000A000B24282C3034000000100000009000000088000000080000008000000004F000003C
:401A000000F00000400200002005A000D00100018001A00120000000100000000000000000000810004002088C020000401A08108C420208C4050000E44802080C02000044
:401A40000048E80100127A0000093D0000127A0000127A0008000000401F00000000A00FB10208108D0208100000000080B2C10050B3164B1B681A6AB3F8B030C3EBC30366
:401A8000D358002BF5DA3E22114B1A6041F61E7204331A60A3F584730622C3F8182521F07F41C3F81C15D3F81C35084B1A68116AB2F8B030C3EBC3030B4400225A60054B02
:401AC000D3F81C35002BFADA704700BFEC4A02080401264000002640F8B5274B1B6893F83130052B04D840F2C311244800F07AFA214F3A68166AB2F8B03003EB83031E44E2
:401B000052684FF26003D458A4B200F05BFA05463B681968D3F890208A58013C032C27D8032A0CD1164A127812F0FF0F07D10822B2601968D3F890208A58032AF9D01968DC
:401B4000D3F884208B588858C0F307221B0E581C02FB00000B4B03FB00F00B4B1B680B4AA2FB03239B09B0FBF3F08230FFF77EFF284600F03FFAF8BDEC4A0208681708100E
:401B80000B00001640420F0090420208D34D62104378FF2B23D110B500F014FA0446104B1B6893F83130042B04D840F2C3110D4800F018FA0A4B1A68136AB2F8B02003EB31
:401BC0008203DB685A68136843F001031360136813F0010FFBD1204600F00CFA10BD7047EC4A0208681708102DE9F04707468846554B1B6893F83130012B04D840F2C311A0
:401C0000524800F0EFF9504B1B681C6AB3F8B0201444D3F8B420161993F85030002B79D04B4B1B7813F0FF0F02D04FF0000901E04FF00109B9F1000F38D0434B1B6893F893
:401C40003130052B04D840F2C311404800F0CAF93D4B1A68116AB2F8B03003EB83030B44D2F8B420D358002B22DB002000F092F9384B98421ED00023374A1269012118466E
:401C800000F090F918B1354D17E0013500E00025002000F07FF92F4B984202D0304B9D42F3D92F4B9D4207D92C4D06E0002504E02A4D02E0294D00E00025002D41D100F0B6
:401CC00081F98246274BD3F81C35002B10DA224A0121204600F07EF960B94046FFF7C6FE57B13368002BFCDB00F064F9054604E01A4D02E0194D00E01B4DB9F1000F05D0A5
:401D00000121002000F03EF90028F9D1504600F071F916E000F056F980460F4A0121204600F058F938B947B13368002BFCDB00F041F9054602E0094D00E00B4D404600F05A
:401D400059F92846BDE8F087EC4A0208681708100B00001601018800884A020805005200EF4902000000264001005000F0B47F4B1A6855684FF0B0535B7813F0FF0F04D03A
:401D80004FF0B0535B78DBB200E02123212B55D1116AB2F8B030C3EBC303CC18CB58002BF6DAE36843F00103E360146AB2F8B030C3EBC3031C44E36813F0020F2DD0E36828
:401DC0009EB21368D2F884105958090A090401F47F01D2F88870DB591B0A41EA03633343E3601168D2F884208B5823F47F4343F410638B505D4A13681C68D3F88810635823
:401E000023F47F4343F41063635013681A68D3F884105158D3F88830D358544B1A68116AB2F8B030C3EBC3030B4400215960116AB2F8B030C3EBC3030B445B684B4B196854
:401E40000C68D1F894301C44494A136943F004031361012801D030BF07E020BF454B1B7803B120BF0122434B1A70236803F00303022BE9D00A6AB1F8B030C3EBC303D018E1
:401E8000D358002BF6DA4FF0B0535B7813F0FF0F04D04FF0B0535B78DBB200E02123212B30D1C36813F0020F1FD00C68D1F88410635823F47F42C3681B0C1B0203F47F4335
:401EC00013436350294B19680C68D1F88800235823F47F420D6AB1F8B030C3EBC3032B44DB681B0E42EA03232350204B1A68136AB2F8B020C2EBC2021344DA6822F00102B5
:401F0000DA6026E0D5F80C311BBB1B490E681B4BD3F818451A4A106841F61E770F600621C3F818153E2111604422C3F81C25134BD3F81C35002BFADA4FF0AA33C5F80C3132
:401F40000D4B1E60A3F58473C3F8184503F582731860064B1A68116AB2F8B030C3EBC3030B4400225A60F0BC704700BFEC4A020800ED00E0B04A0208080126400000264000
:401F80000401264001B40248844601BC604700BF3910081001B40248844601BC604700BFC110081001B40248844601BC604700BF9512081001B40248844601BC604700BFFD
:401FC0008D0D081001B40248844601BC604700BF0B16081001B40248844601BC604700BFB50E081001B40248844601BC604700BF3115081001B40248844601BC604700BF0D
:40200000131608100000000000000000000000000000000000000000000000000000000000000000000000000000000000000000000000000000000000000000000000005F
:402040000000000000000000000000000000000000000000000000000000000000000000000000000000000000000000000000000000000000000000000000000000000060
:402080000000000000000000000000000000000000000000000000000000000000000000000000000000000000000000000000000000000000000000000000000000000020
:4020C00000000000000000000000000000000000000000000000000000000000000000000000000000000000000000000000000000000000000000000000000000000000E0
:40210000000000000000000000000000000000000000000000000000000000000000000000000000000000000000000000000000000000000000000000000000000000009F
:40214000000000000000000000000000000000000000000000000000000000000000000000000000000000000000000000000000000000000000000000000000000000005F
:40218000000000000000000000000000000000000000000000000000000000000000000000000000000000000000000000000000000000000000000000000000000000001F
:4021C00000000000000000000000000000000000000000000000000000000000000000000000000000000000000000000000000000000000000000000000000000000000DF
:0200000490303A
:02000000DCA37F
:0200000490501A
:0C0000000005E2F021002101E2FAFDA35E
:00000001FF